:020000040000FA
:10000000303600200911000065430000F5100000A3
:10001000F5100000F5100000F5100000F5100000CC
:10002000000000000000000000000000AD11000012
:10003000F510000000000000F5100000F5100000B1
:10004000D1120000D1120000D1120000D112000024
:10005000D1120000D1120000D1120000D112000014
:10006000D1120000D1120000D1120000D112000004
:10007000D1120000D1120000D1120000D1120000F4
:10008000D1120000D1120000D1120000D1120000E4
:10009000D1120000D1120000D1120000D1120000D4
:1000A000D1120000D1120000D1120000D1120000C4
:1000B000D1120000D1120000D1120000D1120000B4
:1000C000D1120000D1120000D1120000D1120000A4
:1000D000D1120000D1120000D1120000D112000094
:1000E000D1120000D1120000D1120000D112000084
:1000F000D1120000D1120000D1120000D112000074
:10010000D1120000D1120000D1120000D112000063
:10011000D1120000D1120000D1120000D112000053
:10012000D1120000D1120000D1120000D112000043
:10013000D1120000D1120000D1120000D112000033
:10014000D1120000D1120000D1120000D112000023
:10015000D1120000000000000000000000000000BC
:10016000000000000000000000000000000000008F
:10017000000000000000000000000000000000007F
:10018000000000000000000000000000000000006F
:10019000000000000000000000000000000000005F
:1001A000000000000000000000000000000000004F
:1001B000000000000000000000000000000000003F
:1001C000000000000000000000000000000000002F
:1001D000000000000000000000000000000000001F
:1001E000000000000000000000000000000000000F
:1001F00000000000000000000000000000000000FF
:10020000DEE61E284CBBCE8F02350000EC0000005D
:10021000845E0000010000000000000000000000FB
:10022000FFFF02910000000000000000000000003D
:10023000000000000500000000000000DEE61E28AF
:10024000EAAC45B8023500002000000003100000B1
:100250000100000001000000D9490000DEE61E2870
:10026000EAAC45B802350000300000000210000082
:1002700000000000010000000B4A00001D4A0000C1
:10028000334A000009490000C8000000DEE61E28CD
:10029000EAAC45B802350000200000000110000063
:1002A00002000000010000009F490000DEE61E2859
:1002B000EAAC45B802350000200000000111000042
:1002C00003000000010000006B4A0000DEE61E286B
:1002D000EAAC45B802350000200000000012000022
:1002E0000000000001000000451E00002DE9F0079D
:1002F00091E8F807B2E802105B1854EB0C04B2E87E
:1003000002104D4156EB0C06B2E802104F4158EB7B
:100310000C08B2E8021059EB01095AEB0C0A80E80C
:10032000F80780410130BDE8F00770472DE9F0077C
:1003300091E8F807B2E802105B1A74EB0C04B2E81B
:1003400002108D4176EB0C06B2E802108F4178EB7B
:100350000C08B2E8021079EB01097AEB0C0A80E88C
:10036000F80780414042BDE8F00770472DE9F007EB
:10037000524290E87800B1E880071740DB1918EA8C
:10038000020854EB080419EA020955EB09051AEAB8
:10039000020A56EB0A0678C090E87800B1E88007B8
:1003A00017407B4118EA020854EB080419EA0209D5
:1003B00055EB09051AEA020A56EB0A0678C0804195
:1003C0000130BDE8F00770472DE9F007524290E890
:1003D0007800B1E880071740DB1B18EA020874EBCD
:1003E000080419EA020975EB09051AEA020A76EB14
:1003F0000A0678C090E87800B1E880071740BB4152
:1004000018EA020874EB080419EA020975EB0905F9
:100410001AEA020A76EB0A0678C080414042BDE83B
:10042000F00770472DE9F00152424FF0040890E8C0
:10043000300091E8C000A31B1340E41AF618EB1B30
:100440001340ED1AFF1830C0C0C1B8F10108EED159
:10045000BDE8F001704700BF00B592E8DC072DE968
:10046000DC07B1E8805702B4A7FB02510A95A8FB4C
:10047000020BE7FB6310E9FB62B00B91A8FB035191
:10048000EAFB6201E7FB64B5E7FB6605E8FB66157E
:10049000CDF830B0A9FB03B6EAFB6316ECFB63565C
:1004A000E8FB640BE9FB641BEAFB645BECFB646B3D
:1004B0000D90ACFB0230059CEEFB6250E9FB6460E2
:1004C000EAFB64B0E7FB6431E8FB6451069CE8FB9F
:1004D0006461E9FB64B1EAFB64010E93A7FB04329B
:1004E000079CE7FB6462E8FB64B2E9FB6402EAFB99
:1004F0006412049CE9FB6453EAFB6463089CE7FB19
:1005000064B3E8FB6403E9FB6413EAFB64230F951F
:100510005DF8049B99E80006DDF80080A9FB08540B
:10052000EAFB68B4DDF81080ECFB6804EEFB6814AD
:10053000E9FB6824EAFB6834DDF80480EEFB6865BB
:10054000E9FB68B5EAFB6805DDF81480ECFB68158B
:10055000EEFB6825E9FB6835EAFB68450F96DDF898
:100560000880AEFB0876E9FB6806EAFB6816DDF852
:100570001880ECFB6826EEFB6836E9FB6846EAFB70
:100580006856DDF80C80ECFB68B7EEFB6807E9FB0A
:100590006817EAFB6827DDF81C80ECFB6837EEFB88
:1005A0006847E9FB6857EAFB686708B000BD00BF11
:1005B0002DE9F14F87B0FFF74FFFDDF81C8008F100
:1005C000200888E8FF00FFBC87E87F08BDE8F08FBF
:1005D00000B591E89857A3FB03520195A3FB0401D2
:1005E000E3FB6420E3FB67100292A3FB0752E3FBEB
:1005F0006802E4FB6415E3FB6805E3FB69250391EE
:10060000A4FB07B6E3FB6926E3FB6A56E4FB670B32
:10061000E4FB682BE3FB6A5BE3FB6C6B0490A4FBDD
:100620000810E4FB6950E3FB6C60E3FB6EB0E7FB92
:100630006721E4FB6951E4FB6A61E3FB6EB1E4FB13
:100640006E010592A7FB0832E4FB6A62E4FB6CB220
:10065000E4FB6E02E7FB6E12E7FB6853E7FB69639E
:10066000E4FB6CB3E7FB6C03E7FB6E13E8FB6E2364
:100670000695A7FB0954E7FB6AB4E7FB6C04E8FBAB
:100680006C14E8FB6E24E9FB6E34E8FB6865E7FB5D
:100690006AB5E8FB6A05E8FB6C15E9FB6C25E9FB2C
:1006A0006E35EAFB6E450796A8FB0976E8FB6A06FD
:1006B000E9FB6A16E9FB6C26EAFB6C36EAFB6E4640
:1006C000ECFB6E56E8FB69B7E9FB6907E9FB6A17C3
:1006D000EAFB6A27EAFB6C37ECFB6C47ECFB6E57D6
:1006E000EEFB6E6700BD00BF2DE9F14F87B0FFF74D
:1006F0006FFFDDF81C8008F1200888E8FF00FFBCD0
:1007000087E87F08BDE8F08F30B44FF0000310F8A1
:10071000014B11F8015B013A84EA050443EA040342
:10072000F5D1A3F101034FEAD37030BC704700BF8D
:100730004FF0000310F8012B013943EA0203F9D10D
:10074000A3F101034FEAD370704700BF30B411F832
:10075000014B12F8015B6C4000F8014B013BF6D1F4
:1007600030BC70472DE9F00791E8F807B2E80210B5
:100770005B1854EB0C04B2E802104D4156EB0C062A
:10078000B2E802104F4158EB0C08B2E8021059EBE6
:1007900001095AEB0C0A8941B3F1FF3374F1FF34BC
:1007A00075F1FF3576F1000677F1000778F1000862
:1007B00079F101097AF1FF3A51F100015B184C41DE
:1007C0004D4156F1000657F1000758F1000859EB6A
:1007D000D1795AEB010A80E8F807BDE8F0077047C5
:1007E0002DE9F00791E8F807B2E802105B1A74EB04
:1007F0000C04B2E802108D4176EB0C06B2E8021050
:100800008F4178EB0C08B2E8021079EB01097AEB22
:100810000C0A89415B184C414D4156F1000657F1D5
:10082000000758F1000859EBD1795AEB010A80E82A
:10083000F807BDE8F007704718EB040859EB050905
:100840005AEB060A5BEB070B5FF0000C4CF1000C57
:1008500018EB050859EB06095AEB070A5BEB070B87
:1008600050EB0C005FF0000C51EB0C0152EB0C0252
:1008700063414CF1000CB8EB070879F100097AF1FB
:10088000000A7BEB040BA841B141A241B3416CF1DA
:10089000000CBBEB050BB041B941AA41BB416CF167
:1008A000000C4CF001068CF0020718EB060859EB1F
:1008B0006C095AEB6C0A7BEB6C0B70EB6C0471EB04
:1008C0006C0572EB670653EB6C076CEB6C0C18EB6A
:1008D0000C0059EB0C015AEB0C025BF1000354F1D4
:1008E000000455F1000556EBDC7657EB0C0770471A
:1008F0002DE9F14F87B0FFF7AFFDDDF81080DDF88F
:100900001490DDF818A0FFF797FFBDE8000FFFF780
:1009100093FF03B05DF8048B88E8FF00BDE8F08F1B
:100920002DE9F14F87B0FFF753FEDDF81080DDF8B9
:100930001490DDF818A0FFF77FFFBDE8000FFFF768
:100940007BFF03B05DF8048B88E8FF00BDE8F08F03
:100950002DE9F04F90E8F00F00F140004FF0040E49
:1009600059E0F0B4826BC36B0468052524268759CF
:100970003C444FEA724787EAF24787EA92273C44B1
:1009800042684FEAF21787EAB24787EAD2073C4447
:1009900040F8044B032D08BF6FF01B0687593A44FB
:1009A0004FEA734787EAF34787EA93273A44436855
:1009B0004FEAF31787EAB34787EAD3073A4440F888
:1009C000042B87593B444FEA744787EAF44787EA88
:1009D00094273B4444684FEAF41787EAB44787EA10
:1009E000D4073B4440F8043B013DC0D1A0F13C009A
:1009F000076A3C444FEA724787EAF24787EA922740
:100A00003C4402684FEAF21787EAB24787EAD20706
:100A10003C44C463F0BC4FF0020288EA781C8CEAC4
:100A2000F84C0BEBBC1C8AEA090303EA080383EACF
:100A30000A039C4450F8043B9C4451F8043B9C44FA
:100A4000674444EA050B0BEA060B04EA05034BEA8C
:100A5000030BE34484EAF42383EA34530BEBB30B34
:100A600087EA771C8CEAF74C0AEBBC1C89EA08037E
:100A700003EA070383EA09039C4450F8043B9C44BF
:100A800051F8043B9C4466444BEA040A0AEA050A0E
:100A90000BEA04034AEA030AE2448BEAFB2383EAF3
:100AA0003B530AEBB30A86EA761C8CEAF64C09EB58
:100AB000BC1C88EA070303EA060383EA08039C4494
:100AC00050F8043B9C4451F8043B9C4465444AEA7A
:100AD0000B0909EA04090AEA0B0349EA0309E1449C
:100AE0008AEAFA2383EA3A5309EBB30985EA751CCB
:100AF0008CEAF54C08EBBC1C87EA060303EA050305
:100B000083EA07039C4450F8043B9C4451F8043B9F
:100B10009C44644449EA0A0808EA0B0809EA0A0303
:100B200048EA0308E04489EAF92383EA395308EBE9
:100B3000B30884EA741C8CEAF44C07EBBC1C86EA0C
:100B4000050303EA040383EA06039C4450F8043BCC
:100B50009C4451F8043B9C44E34448EA090707EAF3
:100B60000A0708EA090347EA0307674488EAF82303
:100B700083EA385307EBB3078BEA7B1C8CEAFB4C08
:100B800006EBBC1C85EA040303EA0B0383EA0503B6
:100B90009C4450F8043B9C4451F8043B9C44E24480
:100BA00047EA080606EA090607EA080346EA0306D2
:100BB000664487EAF72383EA375306EBB3068AEAEB
:100BC0007A1C8CEAFA4C05EBBC1C84EA0B0303EAA2
:100BD0000A0383EA04039C4450F8043B9C4451F804
:100BE000043B9C44E14446EA070505EA080506EA99
:100BF000070345EA0305654486EAF62383EA36538C
:100C000005EBB30589EA791C8CEAF94C04EBBC1CB2
:100C10008BEA0A0303EA090383EA0B039C4450F8B6
:100C2000043B9C4451F8043B9C44E04445EA0604E0
:100C300004EA070405EA060344EA0304644485EA77
:100C4000F52383EA355304EBB304013A7FF4E5AEB0
:100C5000A0F14000BEF1010E7FF483AEA0F1400C84
:100C60009CE80F00001949199219DB19ACE80F0034
:100C70009CE80F004044494452445B44ACE80F00F8
:100C8000BDE8F08F2DE9F0430746002685B0DFF878
:100C90003490DFF8348001AD59F8044B98E8070030
:100CA0003C4485E807000C222946204604F0FCF865
:100CB00000B91CB90136052EEED10024204605B03E
:100CC000BDE8F08318530000D052000037B5044649
:100CD0001E480D4603F01BFB2CB91D4803B0BDE8B0
:100CE000304003F014BBA1691A4803F010FB214601
:100CF000A06903F0C8FE40B9174803F008FB20467E
:100D000003B0BDE8304001F05DB91448616903F0FB
:100D1000FEFA0DF1060003F096FE40B1104803F014
:100D2000F6FA104803F0F3FA0023ADF806306069D4
:100D3000BDF80630984203D9294680B200F0F4FD90
:100D4000204600F071FD03B030BD00BFB05600007A
:100D5000CE560000E9560000115700004157000030
:100D6000575700007F57000070B54FF40041002036
:100D700000F03CFD064620B1134803F0C8FA0020FD
:100D800070BD00F0E3FF044600F0E6FF0546204694
:100D9000FFF778FF04462846FFF774FF054618B1B1
:100DA000626943699A4209D300212046FFF78EFF0A
:100DB00001212846FFF78AFF0448DEE70121FFF7FB
:100DC00085FF31462046F5E7C2570000F057000086
:100DD000C04330B50C4D0A44914201D1C04330BDEF
:100DE00011F8013B83EA000404F00F0455F8244095
:100DF00084EA101080EA131303F00F0355F8233030
:100E000083EA1010E8E700BF2C530000014B1B6879
:100E1000184700BF0020002030B585B004460D46BD
:100E200010220021684604F0BEF802238DF802303B
:100E3000044B2A4621466846019302F0EDFE05B0B8
:100E400030BD00BF0D0E0000014B1860704700BFA1
:100E50000020002008B5044803F059FABDE8084016
:100E6000024803F054BA00BF1A580000535800005B
:100E700030BFFFF7FDBF00BF154B9A6A12F0007F2D
:100E80009A6A14BF1E201D2012F0807F9A6A18BF34
:100E90001F2012F4801F9A6A18BF022012F4002F3C
:100EA0009A6A18BF212012F4802F9A6A18BF222054
:100EB00012F4003F9A6A18BF232012F4803F9A6A06
:100EC00018BF24206FEA02426FEA12429A6270470A
:100ED00000ED00E010B5194B0246986A9C6A10F4C8
:100EE000805F14BF1720162014F4006F9C6A18BF8F
:100EF0001820A40509D5986B986A000404D51AB186
:100F00009A6A22F400429A6219200C4B9A6A12F4EF
:100F1000806F9A6A18BF1A20D2050CD49B6A13F40A
:100F2000005F18BF1C20054A936A43F47F43936215
:100F300000230B7010BD1B20F5E700BF00ED00E0A3
:100F400010B51C4B0246986A9C6A10F0100F14BF33
:100F50001120102014F0080F9C6A18BF1220A4075B
:100F600009D5586B986A000604D51AB19A6A22F01E
:100F700080029A6213200F4B9A6A12F0010F9A6A4C
:100F800018BF142012F0200F9A6A18BF1520D4063B
:100F900058BF9B6A074B9A6A920642BF5A6A22F46C
:100FA00000525A629A6A42F0FF029A6200230B7062
:100FB00010BD00BF00ED00E0F0B5474B04465B6894
:100FC00000258BB0C3F3080385F31188BFF36F8F3F
:100FD00002F07F40B0F17F4F11D102F00C000828E1
:100FE0000DD010074CBF0C4601250022033B8DF8A5
:100FF0000720032B05D8DFE803F02462665F2C4648
:10100000F3E700239DF80720CAB902AE04F12007D8
:10101000324620686168083403C2BC421646F7D1E4
:10102000099A002D53D0C2F3080121B96FEA522268
:101030006FEA42220992184602A903F089F90BB01F
:10104000F0BD254BDA6A9107DBD4DA6A002AD8DBD7
:10105000DA6A5200D5D55A69A16942F480725A61A0
:10106000BFF34F8FBFF36F8F5A6931F8021C22F420
:1010700080725A61BFF34F8FBFF36F8F4DF60272CC
:10108000914209D09A6AD2B242B101200DF1070112
:10109000FFF756FF0346B5E72368B3E79A6A12F4F1
:1010A0007F4F05D001200DF10701FFF713FFF1E796
:1010B0009B6AB3F5803FA4D3FFF7DEFEEAE700208A
:1010C0000DF10701E4E700200DF10701EDE722F43F
:1010D000FF7222F00102ADE700ED00E0044B5A6917
:1010E00042F010025A615A6942F480625A617047B4
:1010F00000ED00E0EFF30880EFF3098101B57246DF
:10110000FFF75AFF01BD00BF002080F31488BFF332
:101110006F8F002080F30A8880F30B8800F072FF45
:1011200000200E490860BFF34F8F0D4880F30888F8
:1011300000F01AF8202080F311880A484FF400616B
:10114000401880F30988EFF314800221084380F3EC
:101150001488BFF36F8F00F06BF8000094ED00E08F
:10116000303600203026002072B6002383F3138827
:101170004FF0FF300C4A03F120010133102B42F8ED
:101180002100F8D100234FF0FF30074A03F160013E
:101190000133102B42F82100F8D162B6BFF34F8F14
:1011A000BFF36F8F704700BF00E100E01EF0040F37
:1011B0000CBFEFF30880EFF30980816911F8021C7E
:1011C0000229FFD001B503F0C9F801BD40B20028E3
:1011D00007DB01234109034A00F01F00834042F866
:1011E0002130704700E100E0054B420953F822200E
:1011F000012300F01F0003FA00F01040704700BF09
:1012000000E100E040B2002801F10101ACBF00F1B3
:101210006040064B4FEA4111C9B2ABBF00F56140D7
:1012200000F00F0080F800131954704714ED00E02F
:101230000B4A08B50B4B22F07F029A60BFF34F8F29
:10124000BFF36F8FD3F8882022F47002C3F8882090
:1012500001F05EFA01F0A0FA00F02EF801F064FA55
:101260000000000000ED00E01E4680B50C46074679
:101270001546002383F30B88DFF824C0ACF5006E1D
:101280008EF30B888CF309884FF0000005498847DE
:10129000204629463246B84703488047FEE700BF4C
:1012A000303600207D4300008B4300001022014BAC
:1012B0001A61704700ED00E0002320210348C218A6
:1012C0000133452B82F80013F9D1704700E100E0AB
:1012D00008B5EFF30583064A103B02EBC30152F851
:1012E000330049688847BDE8084003F042B800BFB2
:1012F000A850000008B5024B1B689847002008BDA5
:1013000028200020034B044A1860937843F002031E
:1013100093707047282000200420002008B505495C
:10132000054A21F007010548521A02F096FF0020F5
:1013300008BD00BF3736002000FC06202C2000200E
:1013400000F01F0240090DD001280DD1094B03EB1D
:101350008203D3F8002222F0E04242EA0171C3F88E
:1013600000127047044BF2E70023803253F822301A
:10137000FFDE00BF002884500025845038B50124CA
:10138000124B134DC3F8004502230321C5F8D03694
:101390000020FFF7D5FF20460321FFF7D1FF2146AC
:1013A000C5F804471620C5F80449FFF7C9FF2146D0
:1013B0001720FFF7C5FF21461420FFF7C1FF214684
:1013C0000620FFF7BDFF002038BD00BF0010005011
:1013D0000040005007B50DF1070003F0D1FB114BA1
:1013E00098421CD14FF480620F4B1049C3F8B825C6
:1013F0004FF40062C3F83C259DF8070003F0BBFBE7
:101400000B499DF8070003F0B1FB01209DF8073060
:10141000984000F023FF002003B05DF804FB6FF05C
:101420000B00F9E70000AD0B00A002502CA0025009
:1014300028A1025048B1054B054A1B68B3FBF2F3E3
:101440005843044B43F00103184770471420002011
:1014500040420F00105300000149024802F064BFEF
:101460006C530000382000204FF47F032DE9F04139
:10147000D3F830210646072A0D46D3F8343120D15F
:10148000023B032B02D8124AD35CD3B14FF0502455
:101490004FF0010800270520C4F81886C4F8147618
:1014A00003F062FB4046C4F8148603F05DFBC4F809
:1014B0001476C4F8187630462B46BDE8F04100217A
:1014C00018474FF050230022C3F81426F3E700BF5B
:1014D000815800001022174B70B5C3F840244FF418
:1014E0007F03D3F83021D3F83431072A1BD1023BD4
:1014F000032B02D8104AD35CABB14FF05024012625
:1015000000250520C4F81866C4F8145603F02CFB17
:101510003046C4F8146603F027FBC4F81456C4F828
:101520001856002070BD4FF050230022C3F8142637
:10153000F7E700BF0030005085580000084B70B539
:10154000C31A0D4607499B100446594340220648DA
:1015500003F0E3F82B4601462046BDE870401847EB
:1015600054200020B76DDBB630500000402373B527
:101570000B4C0093041B0B460D460A49A410614313
:101580000646094A094803F0F4F8011E05DA304618
:101590002B4602B0BDE87040184702B070BD00BFD6
:1015A00054200020B76DDBB6E34700003050000048
:1015B00010B5EFF31184202383F31288BFF36F8FEC
:1015C000074A136823F00201DB07116002D40120EF
:1015D00003F089FB84F31188BFF36F8F10BD00BF48
:1015E000F42000202DE9F8430022012106460520C1
:1015F000FFF708FE114800F037FE114B984219D151
:1016000000F042FE00244FF01C090C27DFF8348064
:101610003569414609FB045002F086FE002807DBCD
:10162000012307FB04551C44042CAB67F0D10020B8
:10163000BDE8F8836FF00400FAE700BF0D17000063
:101640000000AD0BA45300000C22104B014602FB1E
:101650000033002030B4D3E91C521867EFF3118037
:10166000202484F31288BFF36F8F9C6F04F0C004B2
:1016700044F002049C6780F31188BFF36F8F1DB1A3
:101680002B4630BC0248184730BC7047542000201D
:101690003050000010B4EFF31182202383F312883E
:1016A000BFF36F8F1748016841F002040460C80758
:1016B00007D482F31188BFF36F8F012010BC00F0B4
:1016C000FBBD4FF05021D1F80C04D1F80C14C90720
:1016D000EFD5EFF3118083F31288BFF36F8F0A49C0
:1016E0008B6F03F0C00343F002038B6780F3118814
:1016F000BFF36F8F82F31188BFF36F8F002010BC90
:10170000FFF7A2BFF420002054200020062812D8A2
:10171000DFE800F0040F1111110D0B00064B986F5C
:1017200010F0070007D1FFF78FBF0220FBE703206F
:10173000F9E70120F7E770475420002010B5044C6A
:101740002046FFF781FB2046FFF7DCFD002010BD9F
:10175000551700002DE9F341044603250E4E8DF880
:10176000070003F04EFB012280460DF10701002027
:1017700000F002FF0746404603F04BFB2FB1012368
:101780003370204602B0BDE8F0813378002BF8D0EA
:10179000013DE6D13570F4E71D22002008B5074869
:1017A00003F041FB38B10648FFF7ACFD0448FFF7F2
:1017B0004BFB002008BD6FF01200FBE74450000017
:1017C000C51700000A2838B50446074D04D1AB6898
:1017D0000D2128465B689847AB6803485B68E1B217
:1017E0009847204638BD00BF4450000040EA01033E
:1017F000C3F30D0330B58BB940F21515094C890BB5
:10180000C0F38730994201D1002030BDC218D2B256
:1018100002F5C07244F822500133F3E76FF015006F
:10182000F3E700BF0030005038B5044681692A480C
:1018300002F06DFD4FF0FF324FF05023C3F8082344
:10184000BFF36F8F72B60023244903F120000133E8
:10185000102B41F82020F8D100234FF0FF301F4A11
:1018600003F160010133102B42F82100F8D14FF051
:10187000E02300221A61D3F8042D03F5506342F0EF
:1018800000725A605A6A22F4E0225A62EFF314821C
:10189000920707D5EFF3148222F0020282F3148834
:1018A000BFF36F8FBFF34F8FBFF36F8FA26901211B
:1018B0009A602046A56900F0C5FA58B1002383F369
:1018C0000B8883F30A882A6882F3088883F30988DF
:1018D0006B68984738BD00BFD258000000E100E0B7
:1018E0001FB50446074A01AB07CA83E807000C226C
:1018F0001946204603F0D8FA00280CBF20460020E5
:1019000004B010BDDC52000070B505460024054E41
:1019100056F8040B2844FFF7E3FF10B90134052CF7
:10192000F6D170BD3054000073B50A4606460D4628
:101930000146144802F0EBFC01200DF1060103F012
:10194000D2F8044620B101460F4802F0E0FC07E05F
:10195000BDF806303BB90D4802F0D9FC6FF0150414
:10196000204602B070BDB5FA85F1490941EA460149
:10197000012089B203F0D0F804460028F0D00146D7
:101980000348E2E7E4580000185900005E590000DF
:10199000875900002DE9F04F824689B010460F4666
:1019A00015461C46D668D2F81080FFF799FF38B963
:1019B00014B99C4802F0ABFC002009B0BDE8F08FE0
:1019C000A869504503D0002CF6D19748F2E71CB91E
:1019D000B8420BD09548EDE73846FFF795FF8542B2
:1019E000EAD12A6A924B9A42E6D109E0FFF78CFFCE
:1019F000854201D08F48DDE7296A8D4B994216D187
:101A00000DF10E0003F01FF80146002837D094B9FD
:101A1000894802F07CFC894802F079FCADF80E4060
:101A2000D5F81090B9F5A03F34D98548C2E785486C
:101A300002F06DFCC0E70023ADF80E30D5F8109031
:101A4000B9F5A03FB8D8EB689945B5D3AE19B3D274
:101A500018EB0703B0D2BD4224D39D4222D2013EEF
:101A6000B7421FD89E421DD218EB0A082CBF012690
:101A70000026EB6926D3002C9ED173489AE769694A
:101A8000BDF80E20914211D2002C95D16F4802F082
:101A90003EFC91E7EB689945C7D3AE1902D218EB2B
:101AA0000703D8D3002C87D1694883E7D5F8109075
:101AB000B9F5A03F02D8EB689945EED2002C7FF42F
:101AC0007BAFB2E75345D6D34345D4D23A1DA2EB00
:101AD0000A02D3589A4504D9002C7FF46DAF5D48B3
:101AE00068E79845F8D907EB09085B4B08F1050B47
:101AF0000DF1100A93E807008AE807000C2251460E
:101B0000404603F0D1F9544B10B9B8F1000F7AD127
:101B100008F10108D845EDD1002C7FF44DAF4F48B6
:101B200048E7002C7FF448AF4D4843E700F020F928
:101B3000054658B1002C7FF43FAF0146494802F0FA
:101B4000E6FB71357FF438AF474833E7474A484BE7
:101B5000002C14BF93469B4600F004F9854204D341
:101B6000002C7FF429AF434824E75146284600F073
:101B70002DF9102801460ED010F1160F06D11CB910
:101B800029463D4802F0C3FB0135E5E7002C7FF410
:101B900013AF3A484CE754B92946394802F0B7FB2D
:101BA0009DF81F209DF81010364802F0B0FB5146FA
:101BB0003B46CDF8009008F1700208F13000D8479C
:101BC000014690B9304FB54205D114B92F4802F003
:101BD0009EFB0120F1E61CB93146384602F097FB26
:101BE000304600F01BF90136EDE710F1650F05D125
:101BF000002CC9D1264802F08AFBC5E7002C7FF4EF
:101C0000DBAE244814E7D8F80C20AB699A4288D19F
:101C100002F0D2FE0146002888D0002C7FF4CCAE22
:101C20001D4805E7C0590000E0590000135A0000A4
:101C3000FFFF0291405A0000905A00007F570000B9
:101C4000F75A0000695A0000535B0000B75A0000C1
:101C5000265B00007F5B0000E8520000AC5B0000E8
:101C6000DD5B0000305C0000545C00009F49000018
:101C7000C7490000985D0000895C0000B25C00006C
:101C8000D55C0000FB5C0000115D0000285D0000D9
:101C9000475D00006C5D0000105C00000F4BD3F846
:101CA0003031984215D2142343430D4A99580D4AB6
:101CB0000D4B42EA00628A4243EA006309D08B423C
:101CC00009D0002383F31188BFF36F8F04231846D4
:101CD00002DF002070470120704700BF0080FF0036
:101CE0003481FF000000FA50FFFFFA5014222DE962
:101CF000F041144B144DD3F83031074602FB035525
:101D0000284603F010F8012803D000242046BDE83F
:101D1000F0814FF000082C1DAE1C304603F003F894
:101D20004045F2D9A01C02F0FEFF0546204602F015
:101D3000FAFFB842EAD0023504EB450408F1010885
:101D4000EBE700BF0080FF003481FF00014BD3F8B8
:101D5000280170470080FF00014BD3F82C01704729
:101D60000080FF00014BD3F8300170470080FF0076
:101D70002DE9F041134FD7F83031102B1BD8002438
:101D80004FF6FF78104DD7F830319C4202D3002037
:101D9000BDE8F0812046FFF781FF48B1A5F11006AC
:101DA000304602F0C0FF404508D00236AE42F7D1BF
:101DB00001341435E7E76FF01500E9E76FF07000C4
:101DC000E6E700BF0080FF004881FF0070B50446D1
:101DD0000D46FFF763FFB8B10E4BD3F830319C428C
:101DE00015D2142300200C4A03FB042200231658AA
:101DF000291826FA03F40833202B01F8014BF8D1F7
:101E000004301028F2D170BD6FF01500FBE76FF0C1
:101E10000D00F8E70080FF003881FF0010B5044690
:101E2000FFF73CFF40B11420044B054900FB043090
:101E3000BDE8104000F01CBB10BD00BF3481FF00A6
:101E40000000FFFF2DE9F04F87B00646009198B3E0
:101E500002F07EFE00270446B36BBB424ED94FF022
:101E60000008DFF8ACA04FF000095AF8043BDFF897
:101E7000A4B05BF8045B01931D44274B93E8070073
:101E800003AB83E8070019460C22284603F00CF840
:101E9000019B00B9A5B909F10109B9F1050FE8D114
:101EA0001E4B08F101089845DDD3009B13B10022B9
:101EB000636A1A60236A3BB3002007B0BDE8F08F65
:101EC0002B6A174A9342EBD1AE42E9D0696B05F118
:101ED0003C038842E4D025691A6995420AD19A697F
:101EE000A569954206D8E569954203D962695D699D
:101EF000AA4305D0DA6801301344EAE70120DCE7A1
:101F0000009A0AB1626A1360E36801371C44A3E7D0
:101F10004C5E000044540000F45200000100000038
:101F2000FFFF02912DE9F043224885B002F010FE38
:101F3000002604461F4B204FD3F83880DFF87C90F2
:101F4000B04503D8002005B0BDE8F083636A97E888
:101F500007001D6801AB83E807000C2219462846DC
:101F600002F0A2FF78B975B122692B699A420AD1B1
:101F7000AB69A2699A4206D8E2699A4203D96369B9
:101F80006A6993430CD0256A75B10D4802F0BFF918
:101F9000002383F31188BFF36F8F0423184602DFF9
:101FA000E36801361C44CBE7484602F0B0F9636AA7
:101FB0001D60F5E70002000000530000E15D000035
:101FC000B85D0000026A044B9A4203D103492030F5
:101FD00000F04EBA704700BFFFFF02910000FFFF04
:101FE0004FF47F03D3F83021D3F83431072A05D1D9
:101FF000023B032B02D8024AD05C70470020704796
:102000001C5E000008B5FFF7EBFF58B1784BD3F822
:10201000202A3AB90D21C3F8201A0121C3F81C194E
:10202000C3F81C290022D30003F57F03D3F8001363
:10203000013107D0D3F800130132D3F80433202A3A
:102040000B60F0D1FFF7CCFF002840F0B980FFF71C
:10205000C7FF40B1674B684AC3F830254FF05023A3
:102060000122C3F858254FF47F03D3F83021D3F869
:102070003431072A09D1023B032B06D85F4AD35CCF
:102080001BB100225E4BC3F84C25FFF7A9FF50B1EE
:102090004FF05023D3F80024D00742BF0022C3F8EA
:1020A0001421C3F818214FF47F03D3F83021D3F85B
:1020B0003431072A09D14FF05023D3F80024D10737
:1020C00044BF6FF00102C3F80024FFF789FF18B185
:1020D0006522474BC3F80C274FF47F03D3F8302118
:1020E000D3F83431072A16D1454BD3F82034002BCE
:1020F00011DA4FF050230322C3F8182501229A6009
:10210000D3F80421002AFBD00022C3F804210122C5
:10211000DA60C3F818254FF47F03D3F83021D3F8E1
:102120003431072A23D1023B032B02D8354AD35C32
:10213000EBB17E222E4B2F49C3F80C27C3F83C2964
:102140007F23314AC2F818310023C1F8043EC1F898
:10215000083E01F54821C1F81031C2F82431C2F817
:102160002C3102F5FF1202F58052C2F8A032274B43
:102170009A6AD2072CD501211E4AC2F80415D2F85A
:1021800000140029FBD09A6A22F001029A62194BCE
:10219000D3F80024002AFBD00022C3F80425D3F88A
:1021A0000024002AFBD0BFF34F8F1949194BCA688E
:1021B00002F4E0621343CB60BFF34F8F00BFFDE733
:1021C00029220B4BC3F80C270322C3F83C273EE718
:1021D0000F49D1F88C2042F44062C1F88C20196874
:1021E0000D4AC2F84415DB69C2F84C3508BD00BF82
:1021F00000400050009003504400EFBE185E000005
:1022000000200350145E0000002000500080FF00FA
:1022100000ED00E00400FA050060005030B50468ED
:10222000ACB1B4FA84F30122C3F11F03DBB29A40CC
:1022300024EA0202D0E8EF5FA54204D1C0E8EC2F07
:10224000BCF1000FF6D1EAD102480B7030BD024854
:10225000FCE700BF0000AD0B0200AD0B014BC3F863
:102260000405704700700150044B1A7922B901220D
:1022700018601A710248704702487047F820002021
:102280000000AD0B0C00AD0B08B50A4B1B6833B159
:102290000520FEF7A9FF10B90520FEF797FF4FF0C4
:1022A00050230122C3F81825C3F81425C3F880254C
:1022B00008BD00BFF820002010B5032845D8DFE88E
:1022C00000F01802554F00224FF4807301210020C6
:1022D00003F1502318601C68012402F1502214609D
:1022E000284A1268002A47D04FF05023C3F804133D
:1022F0002BE04FF05023D3F81814D3F81824C90357
:1023000012D502F00303022B05D0012B02D00020CE
:1023100002F038FC01234FF050220221C2F8183598
:1023200008224FF48273D2E7D3F81424D207F1D5F0
:10233000D3F81C2402F00302013A012AE7D8114A1B
:1023400012681AB10222C3F8042310BDD3F8042185
:10235000002AFBD00022C3F80421D3F80431F4E7AB
:1023600018224FF490734FF48071B0E720224FF49D
:1023700092734FF40071AAE71A68002AFCD0186023
:102380001B68E2E7F82000204FF0502310B5D3F887
:10239000002152B10020C3F80001D3F8002101222E
:1023A000C3F80823234B1B6898474FF05023D3F8FA
:1023B000042182B10022C3F80421D3F80421D3F808
:1023C0001824D3F81824022102F00302012A28D18C
:1023D000C3F818159A604FF05023D3F8202162B14A
:1023E0000022C3F82021D3F820214FF48072C3F8D3
:1023F0000823104B05201B6898474FF05023D3F853
:102400002421AAB10022C3F82421D3F824214FF4B7
:102410000072C3F80823074B0620BDE810401B6874
:102420001847C3F80813034B01201B689847D2E7ED
:1024300010BD00BFF820002001460148FFF7EEBEA6
:10244000182000200022034BC3F88425C3F804257C
:10245000704700BF00900350044AD2F80034DB07F5
:10246000FBD50160BFF35F8F704700BF0090035042
:10247000012208B5054BC3F88425C3F80425FFF7EE
:10248000EBFFBDE80840FFF7DDBF00BF0090035041
:1024900008B5124BA8220021184602F084FD032241
:1024A0000F49026142610F4A8161C2614FF480624B
:1024B0000262002282624262C26201660A490346E7
:1024C00041661021816609490267C266426711F8B8
:1024D000010D98540132102AF9D108BD00210020C5
:1024E000205E00002E2200201E220020395E000007
:1024F0002DE9F84FDFF87C80824698F80030894655
:1025000016460BB9FFF7C4FF182707FB0A873D6F74
:10251000D7F86CB05D452BD9BC6E796E641BB442A4
:1025200028BF344648462944224602F02FFDBB6EA0
:102530002544AB4208BF0025A144361BABEB050B7D
:102540005E4528BF5E4656B1182303FB0A83596EC9
:1025500032462944484602F019FD3444354424B13A
:10256000182303FB0A88C8F870502046BDE8F88F8E
:102570000024E3E700210020F8B5182700FB0775C9
:10258000124B0E461D4407FB0033DB6A1446012B39
:102590000AD0022B14D023B9284602F0CCFB844287
:1025A00008D900242046F8BD284602F0C4FB844226
:1025B00028BF044622463146284602F0C5FBF1E713
:1025C0002846BDE8F84002F0DABB00BF0021002039
:1025D000F8B50B4B04461B780E4617460BB9FFF7B0
:1025E00057FF02F00EFC3A46054631462046FFF7FB
:1025F000C3FF0446284602F00CFC2046F8BD00BF8D
:10260000002100202DE9F843144C1F46237805468D
:10261000894690460BB9FFF73BFF022D1AD802F00E
:10262000F0FB6DB1182605FB066344F80390E21831
:102630000023C2F8048006FB0542176293625362CE
:10264000182303FB0544089BE36202F0E2FB002031
:10265000BDE8F8834FF0FF30FAE700BF002100200B
:102660002DE9F843124E1F463378054689469046B9
:102670000BB9FFF70DFF022D17D802F0C2FB55B1C1
:102680001824002304FB0564C4F86090C4F8648037
:10269000A7662367E366182303FB0566089B736739
:1026A00002F0B7FB0020BDE8F8834FF0FF30FAE7F7
:1026B0000021002038B5094B53F82040013053F871
:1026C0002050A54200D838BD636823B1204602F0EF
:1026D000CFFB0834F5E723689847FAE75854000021
:1026E000012208B5084B03201A70FFF7E3FFFEF73D
:1026F000B1FB0420FFF7DEFFFEF736FB034A137B36
:1027000023F00103137308BD2E260020A82100200A
:1027100008B50348034A0021121A02F0C1FB08BDA4
:10272000282000203026002008B50020FFF7C2FF37
:10273000164B03F5006282F3088883F30A880025AC
:10274000E023134C84F82230E57725766576A5766C
:1027500084F82050636A43F4E023636284F82350D2
:10276000FEF7BCFCFEF7A2FD4FF0FF33A362E3626D
:1027700002F058FB0120FFF79DFF0220FFF79AFFB0
:102780002B462A4629460348FEF76EFD30260020D8
:1027900000ED00E0E126000008B50648064A0749BA
:1027A000121A02F07FFBBDE80840054A05490648B9
:1027B00002F078BB0020002028200020585E000096
:1027C00000000000585E000000200020F0B5054623
:1027D000C1B00F4608A805F12001164600F094F993
:1027E00008A90446684600F0D7F9394608A800F061
:1027F0008BF908A96A46084600F0C0F908A920A884
:1028000001F004FA0346294608A81D4600F07CF9A9
:102810006A4608A90443684600F0B0F9314630A87A
:1028200001F00CF930A96A460443084601F038F972
:1028300020AA044330A918A8FDF794FF18A9084658
:10284000FEF76EF820AA30A910A8FEF751F818A9D3
:10285000084610AAFDF7C4FF18A90846194AFDF753
:10286000BFFF28AA10A838A9FDF77CFF10A90846C9
:1028700000F062F810A918AA0846FEF739F810A966
:102880000846FEF74DF820AA10A918A8FDF7A8FFE2
:1028900018A930AA0846FDF7A3FF684618A900F05A
:1028A0005DF9684630A96A42FDF7BCFD2022684602
:1028B0000DEB0201FDF728FF0138204340F3000033
:1028C00041B0F0BD7054000070B588B004460D46AC
:1028D000164600212022684602F065FB00232946A7
:1028E00020222046009302F051FB2A4669466846A2
:1028F000FDF776FF324669462046FDF793FD08B0A6
:1029000070BD00BF0B681BBAC3614B681BBA836103
:102910008B681BBA4361CB681BBA03610B691BBA96
:10292000C3604B691BBA83608B691BBA4360CB6978
:102930001BBA0360704700BF70B50D46052498B000
:10294000064610A8FDF7ECFF2A46684610A9FDF7D9
:10295000CFFF694610A8FDF7E3FF10A90846FDF771
:10296000DFFF6A4610A908A8FDF7C2FF08A910A852
:10297000FDF7D6FF10A90846FDF7D2FF10A90846BB
:10298000FDF7CEFF10A90846FDF7CAFF10A908AA57
:102990000846FDF7ADFF10A90846FDF7C1FF10A9D5
:1029A0000846FDF7BDFF10A96A4608A8FDF7A0FF7D
:1029B00008A910A8FDF7B4FF10A90846FDF7B0FF5D
:1029C000013C10A9F5D1084608AAFDF791FF05249E
:1029D00010A90846FDF7A4FF10A90846FDF7A0FFBF
:1029E000013CF5D110A908AA0846FDF781FF10A9FE
:1029F00008A8FDF795FF08A90846FDF791FF08A96B
:102A00006A466846FDF774FF1024694610A8FDF772
:102A100087FF10A90846FDF783FF013C10A9F5D1F7
:102A20002A460846FDF764FF402410A90846FDF732
:102A300077FF10A90846FDF773FF013CF5D110A9F7
:102A40006A460846FDF754FF102410A90846FDF712
:102A500067FF10A90846FDF763FF013CF5D110A9F7
:102A60006A460846FDF744FF102410A90846FDF702
:102A700057FF10A90846FDF753FF013CF5D110A9F7
:102A8000084608AAFDF734FF2A46304610A9FDF78C
:102A90002FFF18B070BD00BFF0B5144605460F46B5
:102AA000A1B068462146164AFDF782FD154E08A9D9
:102AB00022460846FDF71AFC324608A910A8FDF781
:102AC00077FD189B2468394610AA2846E41AFDF7BA
:102AD0002DFC0346324629462846E41AFDF726FC1B
:102AE0000346E41AE24331462846D20FFDF76CFC58
:102AF000024631462846121BFDF738FC21B0F0BDD6
:102B000090540000B054000038B50B68124D1BBA49
:102B1000C3614B682A461BBA83618B6804461BBAA3
:102B20004361CB681BBA03610B691BBAC3604B6975
:102B30001BBA83608B691BBA4360CB6901461BBA21
:102B40000360FDF7F3FB034620461C4629461A4660
:102B5000FDF70CFC601E38BDB054000038B5064DC2
:102B600004462A46FDF7E2FB294602462046BDE818
:102B70003840FDF7FBBB00BFB054000010B5044661
:102B800090B06846FDF714FD6946204608AAFFF795
:102B900083FF10B010BD00BFF0B50F46A1B00446D2
:102BA00010A8FDF7A1FD18AA10A908A8FFF774FF47
:102BB0003A4608A910A8FDF7FBFC18AA684610A918
:102BC000FFF76AFF694610A8FDF78EFD18AA10A945
:102BD00008A8FFF761FF08A910A8FDF785FD18AA4E
:102BE00010A908A8FFF758FF6A4608A910A8FDF722
:102BF000DFFC18AA684610A9FFF74EFF694610A827
:102C0000FDF772FD18AA10A908A8FFF745FF08A94B
:102C100010A8FDF769FD18AA10A908A8FFF73CFF46
:102C200008A910A8FDF760FD18AA10A908A8FFF7C9
:102C300033FF08A910A8FDF757FD18AA10A908A886
:102C4000FFF72AFF6A4608A910A8FDF7B1FC10A9F2
:102C5000684618AAFFF720FF0225694600E0012513
:102C600010A8FDF741FD18AA10A908A8FFF714FF46
:102C700008A910A8FDF738FD18AA10A908A8FFF7A1
:102C80000BFF08A910A8FDF72FFD18AA10A908A886
:102C9000FFF702FF08A910A8FDF726FD10A918AA42
:102CA00008A8FFF7F9FE012D08A9D8D16A4610A897
:102CB000FDF77EFC10A9684618AAFFF7EDFE042573
:102CC000694610A8FDF710FD18AA10A908A8FFF77B
:102CD000E3FE08A910A8FDF707FD18AA10A908A887
:102CE000FFF7DAFE08A910A8FDF7FEFC18AA10A944
:102CF00008A8FFF7D1FE08A910A8FDF7F5FC10A958
:102D000018AA08A8FFF7C8FE013D08A9D9D16A464C
:102D100010A8FDF74DFC10A9684618AAFFF7BCFEE5
:102D20001025694610A8FDF7DFFC18AA10A908A80D
:102D3000FFF7B2FE08A910A8FDF7D6FC18AA10A943
:102D400008A8FFF7A9FE08A910A8FDF7CDFC18AA4E
:102D500010A908A8FFF7A0FE08A910A8FDF7C4FC59
:102D600010A918AA08A8FFF797FE013D08A9D9D114
:102D70006A4610A8FDF71CFC18AA10A908A8FFF7BE
:102D80008BFE082508A910A8FDF7AEFC18AA10A90B
:102D900008A8FFF781FE08A910A8FDF7A5FC18AA4E
:102DA00010A908A8FFF778FE08A910A8FDF79CFC59
:102DB00018AA10A908A8FFF76FFE08A910A8FDF728
:102DC00093FC18AA10A908A8FFF766FE013DD9D107
:102DD0006A4608A910A8FDF7EBFB204618AA10A91F
:102DE000FFF75AFE20263C4D01E0013E18D0214657
:102DF00010A8FDF779FC204618AA10A9FFF74CFE91
:102E0000002D4FEA4505F0DA3A46214610A8FDF7B5
:102E1000CFFB204618AA10A9FFF73EFE013EE6D1DF
:102E200020262E4D01E0013E18D0214610A8FDF7C6
:102E30005BFC204618AA10A9FFF72EFE002D4FEAD2
:102E40004505F0DA3A46214610A8FDF7B1FB2046C9
:102E500018AA10A9FFF720FE013EE6D12026204D3A
:102E600001E0013E18D0214610A8FDF73DFC2046A8
:102E700018AA10A9FFF710FE002D4FEA4505F0DA59
:102E80003A46214610A8FDF793FB204618AA10A940
:102E9000FFF702FE013EE6D12026124D01E0013E81
:102EA00018D0214610A8FDF71FFC204618AA10A92B
:102EB000FFF7F2FD002D4FEA4505F0DA3A462146CC
:102EC00010A8FDF775FB204618AA10A9FFF7E4FD2E
:102ED000013EE6D121B0F0BDADFAE6BC849E17A755
:102EE000C2CAB9F34F2563FC3F2A2DE9F041904651
:102EF00052D905460C46A2F1400626F03F06403660
:102F0000274F0E44236840341BBA2B6454F83C3CD2
:102F100039461BBA6B6454F8383C28461BBAAB647C
:102F200054F8343C1BBAEB6454F8303C1BBA2B65A4
:102F300054F82C3C1BBA6B6554F8283C1BBAAB65A3
:102F400054F8243C1BBAEB6554F8203C1BBA2B66A2
:102F500054F81C3C1BBA6B6654F8183C1BBAAB66A1
:102F600054F8143C1BBAEB6654F8103C1BBA2B67A0
:102F700054F80C3C1BBA6B6754F8083C1BBAAB679F
:102F800054F8043C1BBAEB67FDF7E2FCB442B9D13C
:102F900008F03F00BDE8F0811046BDE8F08100BFB9
:102FA000D05400000A4610B514681A4924BA0464C3
:102FB000546824BA4464946824BA8464D46824BAF3
:102FC000C464146924BA0465546924BA44659469D4
:102FD00024BA8465D46924BAC465146A24BA046620
:102FE000546A24BA4466946A24BA8466D46A24BAB9
:102FF000C466146B24BA0467546B24BA4467946B98
:1030000024BA8467D26B12BAC267FDF7A1FC002014
:1030100010BD00BFD05400000023F0B50B490C4C8C
:103020000C4ADFF834E0DFF834C00D4F0D4E0E4D82
:10303000C0E903ECC0E90576C0E90041C5618260E2
:10304000C0F8C030C0F8C430F0BD00BF85AE67BB6B
:1030500067E6096A72F36E3C3AF54FA57F520E514E
:103060008C68059BABD9831F19CDE05B2DE9F0413E
:10307000D0E930531344074614460E46C0F8C43016
:10308000E5B13F2D00F2C280CAB105F17F01C5F163
:10309000400833460144B04400E0ACB3013313F8B8
:1030A000010C9A1B434501F8010F04F1FF342A4437
:1030B000F3D1402A00F09880154646461CB9C7F85F
:1030C000C050BDE8F081224631463846FFF70CFF7C
:1030D000221A0546B3180028F1D0411E052906D949
:1030E0000132324407F180018A1A022A13D8264499
:1030F00007F17F0213F8011B9E4202F8011FF9D16C
:10310000C7F8C050BDE8F081402A78D01546C7F80E
:10311000C050BDE8F08119688208012AC7F8801004
:1031200077D05968022AC7F8841043D09968032AD7
:10313000C7F888103ED0D968042AC7F88C1039D057
:103140001969052AC7F8901034D05969062AC7F8BA
:1031500094102FD09969072AC7F898102AD0D969F6
:10316000082AC7F89C1025D0196A092AC7F8A010A8
:1031700020D0596A0A2AC7F8A4101BD0996A0B2AD2
:10318000C7F8A81016D0D96A0C2AC7F8AC1011D00D
:10319000196B0D2AC7F8B0100CD0596B0E2AC7F85E
:1031A000B41007D0996B0F2AC7F8B81002D0DA6BA9
:1031B000C7F8BC20AA0782D025F003021344187870
:1031C000B91881F88000511C8D427FF678AF58788D
:1031D00002323944954281F880007FF670AF9B78C7
:1031E0003A4482F880306AE7384607F18001FFF7F9
:1031F000D9FE46460546002C3FF461AF63E73846EA
:1032000007F18001FFF7CEFE054658E72A468846BB
:103210004FE704221344D2E7F8B580260446D0F8DD
:10322000C0300D46C218581C382882F880602644E9
:1032300032D93F282AD8002220443E2B80F8802013
:1032400003F1020122D021443D2B81F8802003F1BB
:1032500003011BD021443C2B81F8802003F10401A1
:1032600014D021443B2B81F8802003F105010DD0BF
:1032700021443A2B81F8802003F1060106D0214435
:10328000382B81F8802001D184F8BF2031462046B8
:10329000FFF788FE3A285BD8421C3B2AC0F13A016E
:1032A000C0F13B0388BF0123022941D900219A08BC
:1032B00000F1800E012A04EB0E0C44F80E1031D000
:1032C000022ACCF804102DD0032ACCF8081029D0FB
:1032D000042ACCF80C1025D0052ACCF8101021D0E7
:1032E000062ACCF814101DD0072ACCF8181019D0D3
:1032F000082ACCF81C1015D0092ACCF8201011D0BF
:103300000A2ACCF824100DD00B2ACCF8281009D0AA
:103310000C2ACCF82C1005D00E2ACCF8301008BF9F
:10332000CCF8341023F003029B07104410D0421C49
:10333000002321183B2A81F8803009D02244392803
:1033400082F8803000F1020202D0224482F88030FC
:103350000022D4F8C43031465F0F4FEA535E67F362
:1033600007024FEA533C6EF30F225E096CF31742DB
:10337000DB0066F31F6284F8BF302046C4F8BB2030
:10338000FFF710FE23681BBA2B6063681BBA6B60E3
:10339000A3681BBAAB60E3681BBAEB6023691BBA76
:1033A0002B6163691BBA6B61A3691BBAAB61E369EB
:1033B0001BBAEB61F8BD00BF2DE9F0410027B54C09
:1033C000B54BB2B0CDE90043B44BB54E0293B54B0B
:1033D0001446CDE90363B44B05460593B34B3097D0
:1033E000069303F17453A3F52303A3F6924331929A
:1033F0000793002A40F0848080224FF03A0C01238A
:103400006E460DEB02078DF8802000204FEA9C02EB
:1034100003F1800E012A06EB0E0146F80E0024D0BF
:10342000022A486021D0032A88601ED0042AC8607E
:103430001BD0052A086118D0062A486115D0072A32
:10344000886112D0082AC8610FD0092A08620CD0FE
:103450000A2A486209D00B2A886206D00C2AC86260
:1034600003D00E2A086308BF48631CF0030F16D070
:103470002CF0030C6344002103F1C8026A443A2B88
:1034800002F8481C0BD003F1C9026A44392B02F838
:10349000481C04D0CA330DEB030202F8481C002379
:1034A000620F62F30703620D62F30F23620B62F394
:1034B00017436209394662F31F633046E400CDF8D2
:1034C000BB308DF8BF40FFF76DFDDDE90001DDE9A0
:1034D000022306BA14BA18BA09BADDE9042312BAEB
:1034E00069602A6119BADDE9062312BA1BBA2E6097
:1034F000AC60E8606961AA61EB6132B0BDE8F0815F
:103500006E4630468846FFF7EFFC241A08EB0403AA
:10351000002800F0F580421E022A53D958F80420F2
:1035200020928208012A00F0E6805968022A21913F
:1035300000F0BE809968032A229100F0E780D968E4
:10354000042A239100F0E7801969052A249100F0EC
:10355000E7805969062A259100F0E7809969072AD2
:10356000269100F0E780D969082A279100F0E780CA
:10357000196A092A289100F0ED80596A0A2A2991CE
:1035800000F0B180996A0B2A2A9100F0F480D96A80
:103590000C2A2B9100F00381196B0D2A2C9100F05D
:1035A0000981596B0E2A2D9106D00F2A996B18BFED
:1035B000DA6B2E9118BF2F9220F0030782073B444D
:1035C00000F0DE80197807F1C8026A4402F8481C4E
:1035D0007A1C90420FD9591C0978C83202376A44C4
:1035E000B84202F8481C06D99B7807F1C8020DEBD7
:1035F000020707F8483C8021431C00F1C8026A44D6
:10360000382B309002F8481C6AD93F2B2CD8002266
:10361000C8336B443E2803F8482C25D000F1CA0378
:103620000DEB03013D2801F8482C1DD000F1CB0320
:103630006B443C2803F8482C16D000F1CC036B44B3
:103640003B2803F8482C0FD000F1CD036B443A28F7
:1036500003F8482C08D000F1CE036B44382803F857
:10366000482C01D18DF8BF2020AF39463046FFF7F6
:1036700099FC3A2803463CD8319CC3F13A02022A0D
:103680007FF6F9AE5A1C3B2AC3F13B0C88BF4FF0C2
:10369000010CBAE667E6096A85AE67BB72F36E3C59
:1036A0003AF54FA57F520E518C68059BABD9831F0D
:1036B000082854D008273B4419467A1C11F801CB3E
:1036C00007F1C8046C44904204F848CC84D88021A7
:1036D00000F1C8030DEB03023090431C02F8481CB4
:1036E000319C20AFC9E7282800F0888028273B4478
:1036F000E2E7319CD3E6042826D004273B44DBE7ED
:103700008022012330908DF88020E9E70C282CD00E
:103710000C273B44D0E710283BD010273B44CBE795
:10372000142841D014273B44C6E7182847D018274F
:103730003B44C1E71C2849D01C273B44BCE7202858
:1037400050D020273B44B7E78022052330908DF8E6
:103750008420C5E724283FD024273B44ACE78022BF
:10376000092330908DF88820BAE780220D2330900D
:103770008DF88C20B4E72C283AD02C273B449BE7CB
:10378000802100F1C8026A443090431C02F8481CB2
:103790003BE78022112330908DF89020A0E730285D
:1037A00032D030273B4487E78022152330908DF8B4
:1037B000942095E734282DD034273B447CE718210A
:1037C0008022192330918DF8982089E780221D23CB
:1037D00030908DF89C2083E78022252330908DF84F
:1037E000A4207DE78022212330908DF8A02077E768
:1037F00080222D2330908DF8AC2071E78022292380
:1038000030908DF8A8206BE78022312330908DF81E
:10381000B02065E78022352330908DF8B4205FE733
:103820002DE9F04106460C46904688B0684602F104
:10383000200106F12007FDF773F86A4669466846DD
:10384000FCF790FF69463846FDF76AF83A46394674
:10385000384604F12005FCF785FF6A46694668464C
:10386000FCF780FF41462846FDF75AF86A46414674
:103870003046FDF73DF82A4629466846FCF772FFB8
:103880002A4669466846FCF76DFF69466846114A54
:10389000FCF768FF69462046FDF742F832462146AC
:1038A0002046FCF79DFF324621462046FCF798FF54
:1038B000224631462846FCF793FF6A4629462846A9
:1038C000FDF716F83A4629462846FCF789FF08B066
:1038D000BDE8F08190560000F0B504460D4699B061
:1038E0002A4668462146FCF77BFF69466846FDF795
:1038F00017F86A46214608A805F1200604F12007BA
:10390000FCF7F6FF6A4629466846FCF7F1FF3246A7
:10391000394610A8FCF726FF324639463046FCF7F8
:103920005FFF31462846FCF7FBFF6A46204608A9A0
:10393000FCF718FF224629462846FCF751FF6A4645
:10394000684608A9FCF74CFF6A4639463846FCF73A
:10395000CFFF2A46684608A9FCF742FF6A4631466F
:103960003046FCF7C5FF3A4631463046FCF738FF93
:10397000684610A9FCF7D4FF224669462046FCF7AA
:103980002FFF08A922460846FCF72AFF10A908467F
:1039900008AAFCF7ADFF3A46384610A9FCF720FF0D
:1039A00019B0F0BD2DE9F04105460C46904688B0AF
:1039B0000A4668462946FCF713FF69466846FCF745
:1039C000AFFF6A462946284604F12006FCF790FF1F
:1039D00005F120076A4621466846FCF789FF324612
:1039E00039463046FCF7FCFE31462046FCF798FF8E
:1039F0002A4621462046FCF7F3FE6A462146204629
:103A0000FCF7EEFE6A4629464046FCF7E9FE4246D0
:103A100039463846FCF76CFF224629466846FCF7D3
:103A2000DFFE6A4631463046FCF762FF3A463146D1
:103A30003046FCF7D5FE08B0BDE8F08170B504460D
:103A40000D4690B004F12006FEF75CFF304605F10C
:103A50002001FEF757FF214608A8FCF761FF08A9DF
:103A600008460D4AFCF77EFE08A922460846FCF7E8
:103A70003FFF08A90846094AFCF774FE314668462C
:103A8000FCF74EFF202269460DEB0200FCF73CFEDE
:103A9000013810B070BD00BF905600007056000095
:103AA00013462DE9F047B8B08946544A1946804676
:103AB00010A8FCF73BFC5249024610A8FCF756FC44
:103AC0000746179E4D4907EAD676C6F1010210A8AF
:103AD000FCF74CFC179C4A46E44328A918A8FFF7BA
:103AE0009FFEE40F20A90846C4F101024FF0FE0A30
:103AF000C7F10107FEF7E8FE25466A4618A928A87F
:103B0000FFF750FF4FEA6A1338AA02EB830353F81A
:103B1000A04C0AF01F03DC4004F0010465402A4673
:103B200028A918A8FCF77EFC2A4630A920A8FCF793
:103B300079FC0AF1FF3A28A918A8FFF7CDFEBAF1DF
:103B4000FF3FD9D1C4F1010220A908A8FEF7BCFEAD
:103B500066406A4618A928A8FFF724FF324628A91C
:103B600018A8FCF75FFC324630A920A8FCF75AFCE5
:103B700008A96A460846FCF7BBFE08A90846FEF7F6
:103B8000DBFE08A908F12004084609F12002FCF731
:103B9000AFFE204620A908AAFCF7AAFE08AA68469C
:103BA00018A9FCF7A5FE69466846FCF7B9FE18AAF5
:103BB000694608A8FCF79CFE21466846FCF7B0FE63
:103BC00008AA69461046FCF70BFE68460D4A08A98C
:103BD000FCF706FE20462021FCF7AAFD024608A9B4
:103BE000684654423C43FCF71DFC40466946064A81
:103BF000FCF77EFE204638B0BDE8F087F0550000A7
:103C00001056000070560000D05500000A460149C9
:103C1000FFF746BF305600002DE9F04F43688DB0E6
:103C200015468046029383789A0740F10D8100245F
:103C30000E78002E00F00A81252E0BD04B1C03932A
:103C4000013441463046029B98470028C0F2F68076
:103C50000399EDE74E788B1C252E0393F0D00027B7
:103C6000B946BB46BBF11F0F38D8A6F12003102B75
:103C70000AD8DFE803F02A090930090909210909EE
:103C80000928092D09091F00A6F13003092B33D992
:103C90002A2E37D11BF0400F55F8043B40F08280AC
:103CA000002BA7BF4BF0200B9946C3F100094BF046
:103CB000280B01E04BF0010B039B13F8016B0393FE
:103CC000002ECFD130E04BF0020B4BF0040BF3E7AA
:103CD0004BF0080BF0E74BF0100BEDE7BBF17F0F5B
:103CE00019D8A6F13003092BD2D81BF0400F03D00E
:103CF0000A2101FB0737DFE70A214BF0200B01FB0C
:103D00000939D9E72E2E06D11BF0400F40F09E80D6
:103D10004BF0400BD0E76C2E31D02BD8682E36D02C
:103D20006A2E3CD04C2E3AD0002F46F02003B8BF6C
:103D30002BF04002A3F16501BCBF00271FFA82FBF4
:103D4000022901D9612B2FD107350727DFF8ACA253
:103D500025F0070508351BF0080F66D00AEB070BA6
:103D600056465E4563D1A4EB0A0AA9EB070906EBA8
:103D70000A026FE1742E9FD07A2E9DD0D4E71BF0FB
:103D8000800F18BF4BF4007B4BF0800B94E71BF4C3
:103D9000807F18BF4BF4007B4BF4807B8CE74BF4A7
:103DA000207B89E71F4687E7A6F16301122900F20D
:103DB000F080DFE811F013004F00EE00EE00EE009F
:103DC000EE004F00EE00EE00EE00EE00EE00FE0012
:103DD000E900EE00EE001B00EE00AF0055F8043BDA
:103DE00001270DF1180A8DF81830B4E755F804AB27
:103DF000834BBAF1000F08BF9A461BF0400F5046A4
:103E000014BF39464FF0FF3101F05EF80746A2E7D4
:103E100041462020029B984700280FDB013EB74215
:103E2000F6D34C44B146A41B98E74E46F7E741460B
:103E300016F8010B029B9847002892DA98F8023096
:103E400043F0040388F802304FF0FF3420460DB0F1
:103E5000BDE8F08F1BF0800F34D01BF4007F2CD016
:103E6000073525F00705AA4669685AF8080B2BF0B4
:103E700010050029ADB237DA404245F4806561EBA8
:103E800041010DF1180B0A235A4601F029F8A0EB65
:103E90000B0301936B0662D5019B25F001019F4244
:103EA00089B240F3A180002E00F0998015F0100235
:103EB00040F09C80BB460D4623E0AA465AF8040B0E
:103EC000C117D4E7AA461BF4807F5AF8041B01D11E
:103ED0000846F5E71BF4007F19BF48B241F3C01153
:103EE00008B241F3C031C2E750EA0103C9D11BF067
:103EF000400FC6D0002FC4D12BF01102BB46019752
:103F000095B240F2064115EA01021CBF0BF1010B0C
:103F100000222CE02BF010020A231FFA82FB1BF078
:103F2000800C49D01BF4007115BF0735AA4625F057
:103F300007055AF8040B1EBFAA4669685AF8080B11
:103F400050EA010545D12BF016051BF0400FADB22C
:103F500042D0002F40D12BF01702019795B215F0F7
:103F6000100248D0019B002E42D103F1010B29071A
:103F70005AD4EB0706D5D9456FDDA9EB0B030199A0
:103F8000CB465F185B4649E04BF0100B10237826B8
:103F9000C5E7782B04D1C6F1780343F01003BEE7E0
:103FA00041462520029B98470028FFF647AF023480
:103FB00047E608230026B2E7AA461BF480715AF8A8
:103FC000040BBDD01BF400711ABFC0B2614680B2B1
:103FD000B6E72BF0060295B20DF1180B54E725F069
:103FE0001105BB46ADB28CE70D46B8E73B460D4622
:103FF00003F1020BBBE7DDF804B082E7415E00008D
:104000003A5E0000CDE9043241462020029B9847E9
:104010000028FFF613AF049B059A01339945F1DCA4
:10402000A4EB0B019B46CC180AB341463020029BFF
:1040300098470028FFF602AF8EB901342744391B98
:10404000019B994224DC1D4655BB019AA9EB0B0943
:10405000554622441446914433E0019F92E70234CE
:1040600041463046029B98470028E7DAE6E640F2F0
:1040700006410D42E2D015F0020F04F10104414661
:1040800014BF2B20202015F4806F18BF2D20E9E7E6
:1040900041463020029B013498470028CFDACDE614
:1040A00006AB013D4146585D029B98470028CBDA9C
:1040B000C4E641462020029B013498470028FFF6C1
:1040C000BDAEA9EB0403002BF3DCC1E570470A4445
:1040D0008A4200D1704711F8013B40BA80B2584083
:1040E000C0F303134340180380B24340580100F467
:1040F000FF505840ECE7F0B50144054618469DF8DE
:1041000014608D4200D1F0BD15F8013B58400823E2
:104110005EB100F001075C1E400897B182EA00031F
:10412000D8B22346002CF4D1EBE710F0800F4FEA11
:104130004000C0B203F1FF3318BF5040002BF4D150
:10414000DFE72346002CE3D1DBE7836800EBC10106
:10415000B3F5004F2CBF51F8220031F81200704720
:1041600000EBC1018068B0F5004F2CBF41F8223050
:1041700021F812307047012208B5FFF7E6FFD04062
:1041800008BD836800EBC101B3F5004F08D34B684D
:104190001AB143F001034B60704723F00103FAE7C3
:1041A0004B881AB143F001034B80704723F00103A1
:1041B000FAE753000122FFF7D3BFB0F5004F34BF39
:1041C00004230823481C0833A0EBD300B0FA80F086
:1041D000C0F11F0070472DE9F0410D468668044686
:1041E000FFF7C9FFB6F5004F014601D3012832D0D1
:1041F0003046FFF7E2FF04EB80010E6996B9012219
:10420000E36882401343E36002220D612B46294696
:104210002046FFF7A5FF032229462046BDE8F041CE
:10422000FFF79EBF022231462046FFF78EFF07466A
:10423000034629462046FFF793FF032233462946CB
:104240002046FFF78DFF39462B462046FFF788FFB3
:1042500002223146E1E7BDE8F081B2F5802F2CBFA4
:10426000082304232DE9F0410026D21A8C18CD1D15
:1042700025F0070524F00704641BE40805602146C7
:104280002046AC60EE60FFF798FF421D92000130BF
:1042900002F107074FEAD7073146A2F1100205F1F4
:1042A0001000B8BF324600F07EFE3A46314628463E
:1042B000FFF77FFF3346324631462846FFF750FF6F
:1042C000A4EB0708284631460122FFF75AFF424671
:1042D0003946FFF76EFF3B46324639462846FFF720
:1042E0003FFF21462846FFF764FF434632462146FA
:1042F0002846FFF735FF214628460122FFF741FFF8
:104300003946BDE8F041FFF766BF002070470FB4A3
:1043100007B504A951F8040B0191FCF77DFD03B02A
:104320005DF804EB04B0704738B50C46054658B14B
:1043300051B10B6843B14B6833B11C22002100F02E
:1043400032FE00202C6138BD6FF01500FBE770478E
:10435000012801D1EFF3058300F07BBD0146006821
:10436000FFF7F6BF08B5FCF783FDBDE8084000F095
:1043700000B8704700210120FFF7EABF61B662B6BE
:1043800080F31188BFF36F8F7047EFF31180202304
:1043900083F31288BFF36F8F704708B5FCF7AAFF4D
:1043A000002008BD0B464FF050220121C2F8141620
:1043B000002118472DE9F04106460D4617461C46D8
:1043C000ABB1D0F80880D8F800309847002D11DB49
:1043D00084420FD8031BAB420CD3D8F804E0234629
:1043E0003A4629463046F446BDE8F0416047184653
:1043F000BDE8F0816FF01500FAE72DE9F0410646BF
:104400000D4617461C46ABB1D0F80880D8F80030EE
:104410009847002D11DB84420FD8031BAB420CD30D
:10442000D8F808E023463A4629463046F446BDE827
:10443000F04160471846BDE8F0816FF01500FAE7DB
:104440004368D3E90203C01A704770B400291C46C0
:1044500040680DDBD0E902560C44AD1BAC4207D8D6
:1044600044682144447C0068214470BCFFF7A2BF2B
:104470006FF0150070BC70477FB500240669456871
:1044800010220021684600F08EFD20463470AB6893
:10449000A34201D804B070BD1B1B6968102B28BF54
:1044A00010236A4628682144FFF7A7FF0028F1DBA4
:1044B000AB681B1B102B94BFE4181034E7E710B552
:1044C0004468206800F0AFFC70B1206883681B6806
:1044D0009847002807DBD4E90132134483428CBF9C
:1044E0006FF01500002010BD6FF01200FBE72DE902
:1044F000F047037C05465A1E012A0C4686B001D9B6
:10450000042B3FD14FF0000A6FF057086F686E7CA4
:10451000AA683E441744FF1AC4F800A0B74203D863
:10452000404606B0BDE8F087A7EB0609B9F1100FC9
:1045300028BF4FF0100931464B46286802AAFFF702
:1045400039FFB0F10008EBDB2B7C012B0AD1CDF851
:1045500000A012224946237802A8FFF7CCFD206074
:104560004E44DBE7022B05D14A46208802A9FFF71B
:10457000AEFDF4E7042BF3D14A46206802A9FCF70C
:1045800027FCECE76FF05708CAE72DE9F0414468D3
:104590008046238A86B0002B5DD0637C33B1002631
:1045A0000769657CB54205DC01233B70267CEEB9CA
:1045B000012016E0AD1B102D28BF102561682B4689
:1045C000206802AA3144FFF7F5FE002809DB06F156
:1045D00012002A4602A9204400F066FC20B1002007
:1045E000387006B0BDE8F0812E44DAE70023CDE94B
:1045F0000133D8F8040001A9A568FFF778FF002867
:10460000EFDB237CA91B012B10D160680DF10202A6
:1046100001442068FFF7CEFE9DF802300293002887
:10462000DFDBDDE901239A42DBD1C1E7022B09D1AF
:1046300060680DF1020201442068FFF7BBFEBDF87F
:104640000230EBE7042BECD1606802AA0144206839
:10465000FFF7B0FEE3E76FF08500C2E7F7B5054668
:1046600000296C682E694CDBD4E9027003EB010C65
:104670003F1ABC4545D860680144607C014420680D
:10468000FFF7BBFE002826DB637C5BB132784AB9BA
:10469000D4E9000104F11202FFF7AFFE00281ADB93
:1046A00001233370237CB3B10023686801A901930F
:1046B000FFF71DFF00280EDB237C012B0DD1019A93
:1046C0008DF80220D4E90112114401390DF10202E2
:1046D0002068FFF792FE03B0F0BD022B09D1019ACA
:1046E000ADF80220D4E90112114402390DF10202A1
:1046F000EEE7042BEFD1D4E901121144043901AAE9
:10470000E6E76FF01500E6E70C220369C9B201FB8A
:104710000233986F00F00700704770B5C9B20369A3
:10472000EFF31185202484F31288BFF36F8F0C26DA
:1047300006FB0134A46F14F0C00408D0A24206D0D6
:1047400085F31188BFF36F8F4FF0FF3070BD0122EA
:1047500006FB01339A6785F31188BFF36F8F4368B7
:1047600003EBC1035B6898470020EFE78022FFF767
:10477000D4BFF8B5069F0469C9B2EFF311862025AE
:1047800085F31288BFF36F8F0C2505FB0144A56FDD
:1047900005F0070CBCF1010F0CD1A76786F3118857
:1047A000BFF36F8FC4E91C23436853F83130984737
:1047B0000020F8BD05F0C005AF4286F31188BFF3B5
:1047C0006F8F0CBF6FF077004FF0FF30F1E713B53C
:1047D00080240094FFF7CDFF02B010BD6FF085007C
:1047E000704710B41C240069CBB203FB0400002105
:1047F00010BC10470320FDF75FBD0220FDF75CBD34
:104800000020FDF759BD032000F06DBA022000F032
:104810006ABA002000F067BA002070474368586801
:10482000704708B5436800215A68186800F0BBFB60
:10483000002008BD10B50C461146426810681A46A3
:10484000204400F0A3FB002010BD10B50446104624
:10485000626814681A46214400F098FB002010BDDD
:104860000020704743685868704708B543680021C6
:104870005A68186800F097FB002008BD10B50C4678
:104880001146426810681A46204400F07FFB002061
:1048900010BD10B504461046626814681A462144DB
:1048A00000F074FB002010BD07B540688DF80710BC
:1048B00000B1007C01220DF10701FDF789FE03B074
:1048C0005DF804FB08B5406800B1007C012200F0EF
:1048D0007FFAB0FA80F04009404208BD73B54468E1
:1048E000054674B10026207C00962968D4E900238F
:1048F000FDF788FE207C00962968D4E90223FDF7A5
:10490000AFFE002002B070BD30B589B0154601235E
:104910000A460146684600F073F8044640B9202272
:1049200069462846FBF7F0FE002808BF6FF06404D4
:10493000204609B030BD2DE9F04190B09DF85C6093
:104940000446884615461F4601463346402208A8BD
:1049500000F056F838B91022404608A9FBF7D4FEFB
:1049600020B96FF0640010B0BDE8F08133463946DD
:104970006846169A00F044F80028F4D12022334605
:1049800069460DEB020000F03BF80028EBD1202136
:104990002B4622460DEB010000F01EF8E3E713B5AD
:1049A00001240194049C0094FFF7C5FF02B010BDE0
:1049B000002070470020704708B5FFF7F9FF08B9DD
:1049C000FFF7F8FF08BD13B500240194049C009480
:1049D000FFF7B1FF02B010BD38B50D46014660B11A
:1049E000202D0AD14AB143B11846FDF7EFFE431C12
:1049F0000CBF6FF06500002038BD6FF01500FBE7BD
:104A000008B5FEF7D9FC002008BD08B518B1FEF7BF
:104A100003FB002008BD6FF00D00FBE708B528B1CF
:104A200001B91AB9FEF722FB002008BD6FF015008E
:104A3000FBE708B520B119B1FEF7EEFB002008BD79
:104A40006FF01500FBE713B5044658B101200DF1D6
:104A5000060100F05EF818B9BDF806305B08238047
:104A600002B010BD6FF01500FAE770B505460846B4
:104A70000C46FCF749FF2146024601232846BDE8C3
:104A80007040FCF787BF0A4600230146FCF782BF4F
:104A90002DE9F8430D461646FDF728F90446F8B10E
:104AA000F5B1023000F03FF900278146B8460434E2
:104AB000B94507D8002406B134600020A5F800806D
:104AC000BDE8F883204600F02EF9C3439BB2A21C38
:104AD000002BF0D0984538BF984614460137E7E7D9
:104AE0006FF01500ECE710B50C46FDF7FFF858B174
:104AF00054B1023000F017F94FF6FF7290420346AE
:104B00004FF0000003D120806FF0150010BD23800E
:104B1000FCE70022FFF7BCBF37B50D4601AA0DF137
:104B20000201FFF7B5FF044648B9BDF80230AB42B9
:104B300008D2019848B1E94389B200F0E4F8204670
:104B400003B030BD6FF01504F9E76FF00B04F6E722
:104B500003465A6B00233C309A4200D17047C1682B
:104B600001330844F8E7004700F058B940F000402E
:104B7000C1F88000704740F00040C1F880007047E5
:104B8000FDF75ABC73B503285DD8DFE800F00218C2
:104B900026344FF050230222C3F808230122DA60A2
:104BA0000022C3F80421D3F80431002401238DF836
:104BB0000730032847D8DFE800F02C4865824FF023
:104BC00050230122C3F808235A600022C3F80021B1
:104BD000D3F800310DF10704E8E74FF050234FF40C
:104BE0000072C3F8082301225A620022C3F824216C
:104BF000D3F82431D9E74FF050234FF48072C3F833
:104C000008230122DA610022C3F82021D3F82031E1
:104C1000CBE742F210754FF05026D6F8183403F463
:104C2000803334B97BB10120FFF79EFF013DF4D101
:104C300009E0D6F8182402F0030222701BB19DF897
:104C400007000128F0D002B070BD42F210754FF09D
:104C50005026D6F80C3403F480333CB9002BF2D044
:104C60000120FFF781FF013DF3D1ECE7D6F80C24DA
:104C700002F001022270002BE5D09DF80700012808
:104C8000EFD0E0E742F210754FF05026D6F85C34D2
:104C900003F480333CB9002BD5D00120FFF764FF2B
:104CA000013DF3D1CFE7D6F85C2402F00102227077
:104CB000002BC8D09DF807000128EFD0C3E742F2CF
:104CC00010754FF05026D6F85434DB03BBD52CB901
:104CD0000120FFF749FF013DF5D1B4E79DF807003A
:104CE0000128F6D0AFE7FFF74DBF4FF0FF3307B510
:104CF00000F00300019301AB184400F047F901985C
:104D000003B05DF804FB13B50222ADF806100DF1F7
:104D100006010446FFF7E9FF014624F00300FDF712
:104D2000A7FB02B010BD20F003031B6882070CBF75
:104D300098B2180C70470369C26893429CBF81689F
:104D40005B18013B981A70472DE9F0410546D0E900
:104D500002844068A8EB0406964220440F4614449F
:104D600004D900F013F9EC60BDE8F0813246A4EB01
:104D7000080400F00BF922466868B919F1E72DE93B
:104D8000F8430646894617464FF00008C568336960
:104D9000B4689D4228BF1B19641BBC4228BF3C4617
:104DA000013B5B1B9C4228BF1C4670684946284457
:104DB000224600F0EBF8B3682544AB4208BF00255B
:104DC0003F1BA044A144F560E1D14046BDE8F88313
:104DD000F8B504460E46174600F013F83A46054665
:104DE00031462046FDF784FB0446284600F011F8C2
:104DF0002046F8BDFDF74CBB08B5FFF7FBFF0020D0
:104E000008BDEFF31180202383F31288BFF36F8F67
:104E1000704780F31188BFF36F8F704708B1FCF7BC
:104E200009BB7047704740B1C368587810F0010063
:104E30001EBF1878B0FA80F040097047EFF3118375
:104E4000202383F31288BFF36F8FFEE708B5FFF7C7
:104E5000F5FF10B5EFF31184202383F31288BFF31D
:104E60006F8FFFF7F3FF84F31188BFF36F8F10BDCF
:104E700010B5D0E9003433B90020E268537843F02C
:104E80000103537010BD204698470028F4D0002835
:104E9000B8BF4042FF28A8BFFF20E3681870ECE7C6
:104EA00000F081B800F072B80139024410B59042A8
:104EB00001D1002005E0037811F8014FA34201D091
:104EC000181B10BD0130F2E70246014410B58A42BA
:104ED000134603D01C780132002CF8D1181A10BDEB
:104EE000F0B5C3F13707044603F01F031046FFB2C5
:104EF000082BE6B232D0102B3DD06508A40845EA55
:104F0000C17544EA81748A082D1942EB51022909BE
:104F100041EA02716D1842EB1212290A41EA02615C
:104F20006D1842EB1222290C41EA02416D1842EB46
:104F30001242AD1842F10002EC0844EA4274D10872
:104F400004EB8402A6EB4205EDB2092D0CD9013425
:104F5000A5F10A0541F10001EDB212E0E40806F006
:104F6000070544EA4174C908303554EA010200F8E3
:104F7000015BBDD1F0BD240906F00F0544EA0174C0
:104F80000909092D84BFED19EDB2EDE70A44431E6E
:104F9000914200D1704710B511F8014B914203F8CE
:104FA000014FF9D110BD02440346934200D170472E
:104FB00003F8011BF9E700007D130000000000006A
:104FC0005914000000000000E515000030500000FA
:104FD000F94D0000000000003D1700000000000037
:104FE0009D17000000000000DD4800004450000054
:104FF000D513000000000000194800006C500000AC
:10500000194800005850000061480000805000001E
:105010001D13000000000000D51400000000000077
:10502000BF44000094500000251F00000000000055
:1050300095580000B0530000D05300001E200020FF
:1050400054200020C8580000000000002454000034
:10505000262000201E220020A0580000EC53000053
:10506000FC5300002020002000000000AE5800008B
:10507000F4530000FC530000222000200000000038
:10508000BC5800000C5400001454000024200020E0
:105090000000000089580000785300009053000081
:1050A0001C2000201C22002000000000754300008E
:1050B0000000000075430000000000007543000080
:1050C0000000000075430000000000007543000070
:1050D00089230000674B00000000000075430000BA
:1050E0000000000075430000000000007543000050
:1050F0000000000075430000000000007543000040
:10510000000000007543000000000000754300002F
:10511000000000007543000000000000754300001F
:10512000000000007543000000000000754300000F
:1051300000000000754300000000000075430000FF
:1051400000000000754300000000000075430000EF
:1051500000000000754300000000000075430000DF
:1051600000000000754300000000000075430000CF
:1051700000000000754300000000000075430000BF
:1051800000000000754300000000000075430000AF
:10519000000000007543000000000000754300009F
:1051A000000000007543000000000000754300008F
:1051B000000000007543000000000000754300007F
:1051C000000000007543000000000000754300006F
:1051D000000000007543000000000000754300005F
:1051E000000000007543000000000000754300004F
:1051F000000000007543000000000000754300003F
:10520000000000007543000000000000754300002E
:10521000000000007543000000000000754300001E
:10522000000000007543000000000000754300000E
:1052300000000000754300000000000075430000FE
:1052400000000000754300000000000075430000EE
:1052500000000000754300000000000075430000DE
:1052600000000000754300000000000075430000CE
:1052700000000000754300000000000075430000BE
:1052800000000000754300000000000075430000AE
:10529000000000007543000000000000754300009E
:1052A000000000007543000000000000754300008E
:1052B000000000007543000000000000754300007E
:1052C000000000007543000000000000754300006E
:1052D000DEE61E284CBBCE8F02350000DEE61E281F
:1052E0004CBBCE8F02350000DEE61E28838451863B
:1052F00002350100DEE61E284CBBCE8F02350000D1
:10530000DEE61E28EAAC45B80235000000000000C9
:105310000338FDD8704700000000000000020000C4
:105320000004000000080000001000000000000061
:105330006410B71DC8206E3BAC30D9269041DC7696
:10534000F4516B6B5861B24D3C7105502083B8ED40
:1053500044930FF0E8A3D6D68CB361CBB0C2649B64
:10536000D4D2D38678E20AA01CF2BDBD6914000035
:10537000A543000000000000805000000000000075
:10538000000100000300000001020804000000000A
:10539000414400008B4500004B4400005D46000086
:1053A000794400006D1500003D150000000000006C
:1053B00095160000B11500000148000013480000D8
:1053C000FB4700000D480000F547000007480000BB
:1053D000DD4700006D470000CF47000000000000DF
:1053E00009470000000000000000000020550050A8
:1053F000010000001C550050010000001D48000085
:105400004B480000354800002348000000FC0720FE
:105410000004000065480000934800007D4800003B
:105420006B480000C5480000A948000000000000CB
:10543000000000000002000000040000000800005E
:105440000010000000000000000200000004000046
:105450000008000000100000B84F0000B84F000026
:10546000E84F0000F04F00003050000030500000C6
:105470000300000000000000000000000000000029
:10548000000000000000000000000000000000001C
:10549000FE9BDFEE85FD2F01216C1ADF52051943BB
:1054A000FFFFFFFFFEFFFFFFFFFFFFFF0000000009
:1054B000512563FCC2CAB9F3849E17A7ADFAE6BCB6
:1054C000FFFFFFFFFFFFFFFF00000000FFFFFFFFE8
:1054D000982F8A4291443771CFFBC0B5A5DBB5E95F
:1054E0005BC25639F111F159A4823F92D55E1CABD3
:1054F00098AA07D8015B8312BE853124C37D0C5561
:10550000745DBE72FEB1DE80A706DC9B74F19BC1A8
:10551000C1699BE48647BEEFC69DC10FCCA10C2498
:105520006F2CE92DAA84744ADCA9B05CDA88F9767C
:1055300052513E986DC631A8C82703B0C77F59BFE6
:10554000F30BE0C64791A7D55163CA066729291412
:10555000850AB72738211B2EFC6D2C4D130D3853AF
:1055600054730A65BB0A6A762EC9C281852C729271
:10557000A1E8BFA24B661AA8708B4BC2A3516CC79F
:1055800019E892D1240699D685350EF470A06A10D8
:1055900016C1A419086C371E4C774827B5BCB03427
:1055A000B30C1C394AAAD84E4FCA9C5BF36F2E68C5
:1055B000EE828F746F63A5781478C8840802C78C54
:1055C000FAFFBE90EB6C50A4F7A3F9BEF27871C657
:1055D000AAAAAAAAAAAAAAAAAAAAAAAA555555557F
:1055E00055555555555555550000000055555555BF
:1055F000522563FCC2CAB9F3849E17A7ADFAE6BC74
:10560000FFFFFFFFFFFFFFFF00000000FFFFFFFFA6
:10561000512563FCC2CAB9F3849E17A7ADFAE6BC54
:10562000FFFFFFFFFFFFFFFF00000000FFFFFFFF86
:1056300096C298D84539A1F4A033EB2D817D03772C
:10564000F240A463E5E6BCF847422CE1F2D1176BC7
:10565000F551BF376840B6CBCE5E316B5733CE2B9A
:10566000169E0F7C4AEBE78E9B7F1AFEE242E34FC9
:105670004B60D2273E3CCE3BF6B053CCB0061D6506
:10568000BC86987655BDEBB3E7933AAAD835C65A8F
:10569000FCFFFFFFFFFFFFFFFFFFFFFF0000000019
:1056A000000000000000000001000000FFFFFFFFFD
:1056B000417474656D7074696E6720746F20626FD9
:1056C0006F7420736C6F742025642E0D0A004E6F6A
:1056D0002066775F696E666F2073747275637420DD
:1056E000666F756E642E0D0A00417474656D70747A
:1056F000696E6720746F20626F6F742066726F6DC1
:10570000206164647265737320307825782E0A0DE9
:10571000004661696C656420746F2076616C696411
:105720006174652C207065726D616E656E746C7944
:1057300020696E76616C69646174696E67210A0D17
:10574000004669726D776172652076657273696F64
:105750006E2025640D0A004661696C656420746FD3
:10576000207265616420746865206D6F6E6F746F60
:105770006E696320636F756E746572210A0D005740
:105780006520617373756D65207468697320697332
:105790002064756520746F20746865206669726D79
:1057A000776172652076657273696F6E206E6F74B3
:1057B000206265696E6720656E61626C65642E0AA1
:1057C0000D004661696C656420746F2070726F749F
:1057D00065637420423020666C6173682C206361BD
:1057E0006E63656C20737461727475702E0A0D009F
:1057F0004E6F20626F6F7461626C6520696D6167C6
:105800006520666F756E642E2041626F7274696EDA
:105810006720626F6F742E0A0D002A2A2A20426FB9
:105820006F74696E67206E524620436F6E6E6563BB
:10583000742053444B2076322E372E302D72633332
:105840002D623664376537623634326463202A2A23
:105850002A0A002A2A2A205573696E67205A657021
:10586000687972204F532076332E362E39392D31F8
:105870006135643362346134666639202A2A2A0A23
:10588000000000000100000001626F6F745F6D6F27
:105890006465403000636C6F636B403530303000BE
:1058A00067707265677265743240353230006770B8
:1058B0007265677265743140353163007265746179
:1058C000696E65646D656D007274745F6368616EA6
:1058D0003000426F6F74696E672028307825782910
:1058E0002E0D0A0053657474696E67206D6F6E6FBC
:1058F000746F6E696320636F756E746572202876AD
:10590000657273696F6E3A2025642C20736C6F7416
:105910003A202564290D0A004661696C656420649B
:105920007572696E672072656164696E67206F6663
:1059300020746865206E756D626572206F662074D4
:10594000686520636F756E74657220736C6F747315
:105950002C206572726F723A2025640D0A004D6F1B
:105960006E6F746F6E69632076657273696F6E20F7
:10597000636F756E74657220697320646973616208
:105980006C65642E0D0A004661696C65642064755F
:1059900072696E672073657474696E6720746865D8
:1059A000206D6F6E6F746F6E696320636F756E74B8
:1059B00065722C206572726F723A2025640D0A00A0
:1059C000496E76616C6964206669726D7761726593
:1059D00020696E666F20666F726D61742E0A0D000D
:1059E000546865206669726D7761726520646F65C1
:1059F000736E27742062656C6F6E6720617420641B
:105A0000657374696E6174696F6E20616464722E6F
:105A10000A0D0073726320616E6420647374206DDC
:105A200075737420626520657175616C20666F7294
:105A3000206C6F63616C2063616C6C732E0A0D00C7
:105A40004669726D7761726520696E666F20646F5A
:105A500065736E277420706F696E7420746F20698F
:105A60007473656C662E0A0D00466972776D6172FB
:105A70006520686173206265656E20696E76616C71
:105A80006964617465643A20307825782E0A0D00C7
:105A900043616E6E6F742072656164207468652066
:105AA0006669726D776172652076657273696F6E73
:105AB0002E2025640A0D004669726D77617265209B
:105AC00076657273696F6E202825752920697320A9
:105AD000736D616C6C6572207468616E206D6F6EA1
