:1000000098D60020750A0000574D0000610A0000D4
:10001000610A0000610A0000610A0000610A000034
:10002000000000000000000000000000190B0000AC
:10003000610A000000000000610A0000610A00007F
:10004000650C0000650C0000650C0000650C0000EC
:10005000650C0000650C0000650C0000650C0000DC
:10006000650C0000650C0000650C0000650C0000CC
:10007000650C0000650C0000650C0000650C0000BC
:10008000650C0000650C0000650C0000650C0000AC
:10009000650C0000650C0000650C0000650C00009C
:1000A000650C0000650C0000650C0000650C00008C
:1000B000650C0000650C0000650C0000650C00007C
:1000C000650C0000650C0000650C0000650C00006C
:1000D000650C0000650C0000650C0000650C00005C
:1000E000650C0000650C0000650C0000650C00004C
:1000F000650C0000650C0000650C0000650C00003C
:10010000650C0000650C0000650C0000650C00002B
:10011000650C0000650C0000650C0000650C00001B
:10012000650C0000650C0000650C0000650C00000B
:10013000650C0000650C0000650C0000650C0000FB
:10014000650C00000000000000000000000000003E
:10015000000000000000000000000000000000009F
:10016000000000000000000000000000000000008F
:10017000000000000000000000000000000000007F
:10018000000000000000000000000000000000006F
:10019000000000000000000000000000000000005F
:1001A000000000000000000000000000000000004F
:1001B000000000000000000000000000000000003F
:1001C000000000000000000000000000000000002F
:1001D000000000000000000000000000000000001F
:1001E000000000000000000000000000000000000F
:1001F00000000000000000000000000000000000FF
:10020000DEE61E284CBBCE8F025B0000EC00000037
:10021000F86A00000100000000000000000000007B
:10022000FFFF02910000000000000000000000003D
:10023000000000000500000000000000DEE61E28AF
:10024000EAAC45B8025B000020000000031000008B
:10025000010000000100000051500000DEE61E28F1
:10026000EAAC45B8025B000030000000021000005C
:100270000000000001000000891400000D51000082
:1002800013510000854F000074000000DEE61E28B8
:10029000EAAC45B8025B000020000000011000003D
:1002A00002000000010000001B500000DEE61E28D6
:1002B000EAAC45B8025B000020000000011100001C
:1002C000030000000100000079510000DEE61E2856
:1002D000EAAC45B8025B00002000000000120000FC
:1002E0000000000001000000991A000030B44FF037
:1002F000000310F8014B11F8015B013A84EA050490
:1003000043EA0403F5D1A3F101034FEAD37030BCF3
:10031000704700BF4FF0000310F8012B013943EA8A
:100320000203F9D1A3F101034FEAD370704700BF74
:1003300030B411F8014B12F8015B6C4000F8014B2E
:10034000013BF6D130BC704753B94AB9002908BF08
:1003500000281CBF4FF0FF314FF0FF3000F00CB809
:10036000ADF1080C6DE904CE00F008F8DDF804E00A
:10037000DDE9022304B07047704700BF2DE9F04764
:1003800086468C460846089E154674461946002B3C
:1003900040F0C1808542B2FA82F245D94AB1C2F139
:1003A000200300FA02FC954094402EFA03F343EA3E
:1003B0000C0C4FEA154EA8B2230CBCFBFEF80EFB4A
:1003C00018CC08FB00F943EA0C43994528D9EB18EF
:1003D00008F1FF3704D2994502D9A8F102072B444E
:1003E000A3EB0903A4B2B3FBFEFC0EFB1C330CFB16
:1003F00000F044EA0344A04214D92C190CF1FF3355
:1004000004D2A04202D9ACF102032C44241A43EADC
:1004100007401EB1D440002334607360BDE8F0870C
:100420004746DDE76346F1E792BB431B01214FEAF4
:10043000154EAFB2200CB3FBFEFC0EFB1C330CFBC5
:1004400007F840EA0343984561D9EB180CF1FF30F7
:1004500004D2984502D9ACF102002B44A3EB080367
:10046000A4B2B3FBFEFC0EFB1C330CFB07F744EA03
:100470000344A7424DD92C190CF1FF3304D2A742F3
:1004800002D9ACF102032C44E41B43EA0040C0E76C
:10049000C2F120039540944020FA03F12EFA03F3B1
:1004A0004FEA154E9040AFB20343B1FBFEFC0EFB8A
:1004B0001C10190C0CFB07F841EA0041884522D9B1
:1004C00069180CF1FF3004D2884502D9ACF1020062
:1004D0002944A1EB08019BB2B1FBFEFC0EFB1C11F1
:1004E0000CFB07F743EA01439F420ED9EB180CF1CE
:1004F000FF3104D29F4202D9ACF102012B44DB1B35
:1005000041EA004193E76046E3E76146F7E760466A
:10051000A4E76346B8E7834206D916B90021084626
:100520007CE7C6E900E0F9E7B3FA83F78FB98342C5
:1005300001D3724508D8BEEB020460EB030301202F
:100540009C461EB9002169E73846FAE7C6E9004C27
:10055000F8E7C7F1200CBB400EFA07F522FA0CF4BD
:100560002EFA0CF1BA401C4320FA0CF3B8404FEAC3
:10057000144901431FFA84FEB3FBF9F809FB183054
:100580000B0C08FB0EFA43EA00439A4540D9E318E6
:1005900008F1FF3004D29A4502D9A8F102002344A1
:1005A000A3EB0A0389B2B3FBF9F809FB183308FB84
:1005B0000EFE41EA03418E452CD9611808F1FF3344
:1005C00004D28E4502D9A8F10203214443EA004037
:1005D000A1EB0E01A0FB02984145CE46434602D353
:1005E00006D14D4504D20138B9EB020E68EB040385
:1005F000002EA7D0B5EB0E0261EB030101FA0CFC53
:1006000022FA07F3F9404CEA0303C6E9003199E7FF
:100610004046C5E74346D9E72DE9F04307460026A3
:1006200085B0DFF83490DFF8348001AD59F8044B21
:1006300098E807003C4485E807000C22294620463C
:1006400004F084FF00B91CB90136072EEED1002456
:10065000204605B0BDE8F083A85E0000C05B000046
:1006600037B504461E480D4604F03BFB2CB91D4827
:1006700003B0BDE8304004F034BBA1691A4804F06F
:1006800030FB2146A06904F085FD40B9174804F00D
:1006900028FB204603B0BDE8304001F0BDBA144845
:1006A000616904F01EFB0DF1060000F057FF40B138
:1006B000104804F016FB104804F013FB0023ADF8BB
:1006C00006306069BDF80630984203D9294680B2E9
:1006D00000F00AFF204600F00BFE03B030BD00BF63
:1006E000D4610000F26100000D620000356200007C
:1006F000656200007B620000A362000070B54FF4E9
:100700000041002000F0A2FD064620B1134804F08D
:10071000E8FA002070BD01F0EDF8044601F0F0F8B1
:1007200005462046FFF778FF04462846FFF774FF8A
:10073000054618B1626943699A4209D300212046EF
:10074000FFF78EFF01212846FFF78AFF0448DEE706
:100750000121FFF785FF31462046F5E7E6620000FC
:1007600014630000014B1B68184700BFE8C4002059
:10077000014B1860704700BFE8C4002030B585B059
:1007800004460D4610220021684604F0D7FE0223DD
:100790008DF80230044B2A4621466846019303F047
:1007A00063F905B030BD00BF6507000008B5044817
:1007B00004F097FABDE80840024804F092BA00BF7E
:1007C0003E63000073630000014802F045BF00BFB4
:1007D000C45E000030BFFFF7FDBF00BF154B9A6A33
:1007E00012F0007F9A6A14BF1E201D2012F0807F35
:1007F0009A6A18BF1F2012F4801F9A6A18BF02203D
:1008000012F4002F9A6A18BF212012F4802F9A6ADE
:1008100018BF222012F4003F9A6A18BF232012F456
:10082000803F9A6A18BF24206FEA02426FEA1242A0
:100830009A62704700ED00E010B5194B0246986AC5
:100840009C6A10F4805F14BF1720162014F4006F08
:100850009C6A18BF1820A40509D5986B986A0004F3
:1008600004D51AB19A6A22F400429A6219200C4BFC
:100870009A6A12F4806F9A6A18BF1A20D2050CD4B3
:100880009B6A13F4005F18BF1C20054A936A43F467
:100890007F43936200230B7010BD1B20F5E700BF60
:1008A00000ED00E010B51C4B0246986A9C6A10F0FF
:1008B000100F14BF1120102014F0080F9C6A18BFED
:1008C0001220A40709D5586B986A000604D51AB1FE
:1008D0009A6A22F080029A6213200F4B9A6A12F0F1
:1008E000010F9A6A18BF142012F0200F9A6A18BFDD
:1008F0001520D40658BF9B6A074B9A6A920642BFDE
:100900005A6A22F400525A629A6A42F0FF029A62CC
:1009100000230B7010BD00BF00ED00E0F0B5474BA9
:1009200004465B6800258BB0C3F3080385F3118888
:10093000BFF36F8F02F07F40B0F17F4F11D102F013
:100940000C0008280DD010074CBF0C4601250022D2
:10095000033B8DF80720032B05D8DFE803F0246262
:10096000665F2C46F3E700239DF80720CAB902AE64
:1009700004F12007324620686168083403C2BC4293
:100980001646F7D1099A002D53D0C2F3080121B9B8
:100990006FEA52226FEA42220992184602A904F035
:1009A000D0F90BB0F0BD254BDA6A9107DBD4DA6AD7
:1009B000002AD8DBDA6A5200D5D55A69A16942F417
:1009C00080725A61BFF34F8FBFF36F8F5A6931F84E
:1009D000021C22F480725A61BFF34F8FBFF36F8FF6
:1009E0004DF60272914209D09A6AD2B242B1012008
:1009F0000DF10701FFF756FF0346B5E72368B3E79C
:100A00009A6A12F47F4F05D001200DF10701FFF71C
:100A100013FFF1E79B6AB3F5803FA4D3FFF7DEFE37
:100A2000EAE700200DF10701E4E700200DF10701DE
:100A3000EDE722F4FF7222F00102ADE700ED00E0E5
:100A4000064B5A6942F010025A615A6942F48062B8
:100A50005A615A6922F008025A61704700ED00E0BD
:100A6000EFF30880EFF3098101B57246FFF756FFF7
:100A700001BD00BF002080F31488BFF36F8F0020FA
:100A800080F30A8880F30B880F4880F3088801F010
:100A90000FF900200D490860BFF34F8F00F01AF8DE
:100AA000202080F311880A484FF40061401880F339
:100AB0000988EFF314800221084380F31488BFF300
:100AC0006F8F00F06DF8000098D6002094ED00E0E4
:100AD00098C6002072B6002383F313884FF0FF30CE
:100AE0000C4A03F120010133102B42F82100F8D108
:100AF00000234FF0FF30074A03F160010133102B50
:100B000042F82100F8D162B6BFF34F8FBFF36F8F69
:100B1000704700BF00E100E01EF0040F0CBFEFF3D0
:100B20000880EFF30980816911F8021C0229FFD0C7
:100B300001B5724604F00BF901BD00BF40B20028B8
:100B400007DB01234109034A00F01F00834042F8FC
:100B50002130704700E100E0054B420953F82220A4
:100B6000012300F01F0003FA00F01040704700BF9F
:100B700000E100E040B2002801F10101ACBF00F14A
:100B80006040064B4FEA4111C9B2ABBF00F561406E
:100B900000F00F0080F800131954704714ED00E0C6
:100BA000144A08B5144B22F07F029A60BFF34F8FAE
:100BB000BFF36F8FD3F8882022F47002C3F8882027
:100BC000D3F8882042F4A002C3F888204FF04042B6
:100BD000C3F83422BFF34F8FBFF36F8F0023E1EED2
:100BE000103A01F08BFA01F0CDFA00F02FF801F085
:100BF00091FA00BF0000000000ED00E01546064637
:100C00000C46002280B5E1EE102A82F30B88094FD2
:100C1000A7F5006888F30B8887F309884FF0000078
:100C200005498847204629461A46B0470348804769
:100C3000FEE700BF98D600206F4D00007D4D0000FC
:100C40001022014B1A61704700ED00E000232021C3
:100C50000348C2180133412B82F80013F9D17047C1
:100C600000E100E008B5EFF30583064A103B02EB14
:100C7000C30152F8330049688847BDE8084004F0D2
:100C800071B800BF8059000008B5024B1B68984737
:100C9000002008BD7CC50020034B044A18609378EF
:100CA00043F00203937070477CC50020ECC4002021
:100CB00008B50649064821F00701C1F1005202F5C6
:100CC000802203F0B4FF002008BD00BF9F56012022
:100CD00080C500200122024B0020C3F84025704748
:100CE0000090035020B1034B800143F001031847EB
:100CF000704700BF105C0000084B70B5C31A0D466A
:100D000007499B10044659434022064804F04CF81A
:100D10002B4601462046BDE8704018478CC5002090
:100D2000B76DDBB644590000402373B50B4C0093FC
:100D3000041B0B460D460A49A41061430646094AA6
:100D4000094804F05CF8011E05DA30462B4602B073
:100D5000BDE87040184702B070BD00BF8CC50020D0
:100D6000B76DDBB66D4E00004459000010B5EFF3CF
:100D70001184202383F31288BFF36F8F074A13680F
:100D800023F00201DB07116002D4012004F00EFB06
:100D900084F31188BFF36F8F10BD00BFDCC5002046
:100DA00070B50022012104460520FFF7E3FE0F483D
:100DB00001F092F80E4B984215D101F09DF826698A
:100DC0000C49304603F09AFF00280BDB01253564FF
:100DD0002469084904F11C0003F090FF002801DB9E
:100DE0000020E56470BD6FF00400FBE7C10E000059
:100DF0000000AD0BCC5E00000C22104B014602FB44
:100E00000033002030B4D3E90E529863EFF3118021
:100E1000202484F31288BFF36F8F1C6C04F0C0048D
:100E200044F002041C6480F31188BFF36F8F1DB17E
:100E30002B4630BC0248184730BC70478CC5002098
:100E40004459000010B4EFF31182202383F3128879
:100E5000BFF36F8F1848016841F002040460C807AF
:100E600008D482F31188BFF36F8F01205DF8044B23
:100E700001F056B84FF05021D1F80C04D1F80C1401
:100E8000C907EED5EFF3118083F31288BFF36F8F9C
:100E90000A490B6C03F0C00343F002030B6480F3B8
:100EA0001188BFF36F8F82F31188BFF36F8F00201B
:100EB0005DF8044BFFF7A0BFDCC500208CC5002007
:100EC00010B1012804D07047034B1B6C5B0701D1A4
:100ED000FFF792BF704700BF8CC5002008B50748D8
:100EE00004F091FA38B10648FFF7D6FE0448FFF740
:100EF0003FFC002008BD6FF01200FBE76C590000BA
:100F0000050F00000A2838B50446074D04D1AB6828
:100F10000D2128465B689847AB6803485B68E1B2DF
:100F20009847204638BD00BF6C5900002DE9F047B6
:100F300040F2FF16594FDFF868C1DFF868E100EBB7
:100F40008101814202D10020BDE8F087046814F4D9
:100F5000804FC4F3C325C4F3080340F08C80240EF3
:100F6000B34208BF4FF0FF337D5D192C00F286803D
:100F7000DFE804F00D13191C1F251C8484848436BB
:100F80006084848484848484848463787B7EC2F8CF
:100F90000C355C1C5BD10430D3E7C2F814355C1C03
:100FA000F9D000245CE0C2F80835F2E7C2F8103549
:100FB000F5E75C1CC2F80835EDD0002404E05C1CA9
:100FC000C2F80C35E7D001245FEA531859D14FF02D
:100FD0000109DFF8CC8009FA03FAC8F80CA008E090
:100FE000C2F80835002DDAD15C1CD4D000240625C7
:100FF000A146D0F800A00AF40048B8F1000F1CBFC9
:101000004FF00009012403F01F085B093FD10CEBEE
:101010008808D8F80032CAF3412A03EA0E0343EAEB
:101020008A0343EA052343EA090343EA4403C8F871
:101030000032B0E7C2F80C35D4E7C2F86035B3F13E
:10104000FF3F0468A7D0C4F30044002CBBD05C0968
:101050001AD10124DFF8488004FA03F9C8F808908F
:10106000A146C6E7C2F86435E9E7C2F86835E6E7A5
:10107000C2F86C35E3E76FF0150065E76FF08500A7
:1010800062E70023DB60FFDE00239B60FBE70023B9
:1010900008F1800853F82830F5E700BFB863000076
:1010A00000258450F0F8FCFF2DE9F04104460D4680
:1010B000476804F0EAF94FF0200868B9244B1B7820
:1010C00053B16426606803F00EFFD0B9012004F02C
:1010D0000DF9013EF6D1F4E7EFF31186314688F3BE
:1010E0001288BFF36F8F606803F0FDFEA8B986F326
:1010F0001188BFF36F8FEFE786F31188BFF36F8F0F
:10110000DFE7EFF31186314688F31288BFF36F8F64
:10111000606803F0E8FE0028EED0BB6900201D7077
:101120006368BA691B68C3F844250122C3F84825DF
:10113000C3F82001D3F82041C3F85801D3F858016F
:101140009A6081F31188BFF36F8FBDE8F08100BF13
:1011500091C60020F7B50546426813691168C1F8C9
:101160002435137D507D927D03431343C1F86C35C4
:101170006E68D6E9004313F0010348D02F6907F1E8
:10118000080000F0A3FE304B98425AD1387A04F19F
:101190000C0204F5907104F0ABF8387A012707FAD5
:1011A00000F000F08DFE0823C4F80035B369C4F8E0
:1011B00044350023C4F84835A760D4F85831002BD3
:1011C000FBD00021C4F800156B6801AADC6820463A
:1011D00003F05CFE002805DB019B22681979186882
:1011E000FFF7A4FE08216A681368C3F80015117A96
:1011F00051B9D269C3F834250122C3F83825C3F8A0
:101200001011D3F810111A60002003B0F0BD0822AD
:10121000C4F80025B269C4F84425C4F84835012350
:10122000A360D4F82031002BFBD00023C4F8203178
:10123000D4F820310123E3604FF48073C4F8043301
:10124000BBE76FF00400E0E70000AD0B40EA0103EC
:10125000C3F30E0330B58BB940F21515094CC90B19
:10126000C0F3C730994201D1002030BDC218D2B2BC
:1012700002F5C07244F822500133F3E76FF0150015
:10128000F3E700BF00300050002230B5C0F8002561
:10129000D0F80C3585B00093D0F81435124C01937A
:1012A000D0F80835114D0293D0F8103568460393F5
:1012B00050F8041B4B1C0CD001F01F0349090DD141
:1012C00004EB8303D3F80012294041F00201C3F874
:1012D00000120132042AEBD105B030BD0022803368
:1012E00052F82330FFDE00BF00258450F0F8FCFFE9
:1012F00070B5044681692F4803F0F3FC01212046B4
:1013000000F0CAFB20B9BDE870402B4803F0E9BCEF
:101310002A48FFF7B9FF2A48FFF7B6FF4FF0FF3220
:101320004FF05023C3F80823BFF36F8F72B600232A
:10133000244903F120000133102B41F82020F8D17B
:1013400000234FF0FF301F4A03F160010133102BDF
:1013500042F82100F8D14FF0E02300221A61D3F8BF
:10136000042D03F5506342F000725A605A6A22F469
:10137000E0225A62EFF31482920707D5EFF314824A
:1013800022F0020282F31488BFF36F8FBFF34F8FF6
:10139000BFF36F8FA2699A60A269002383F30B8861
:1013A00083F30A88116881F3088883F309885668F3
:1013B00030460047D4630000E66300000080005020
:1013C0000090005000E100E00122024BC3F800252C
:1013D000704700BF000084500022024BC3F8002574
:1013E000704700BF0000845070B5EFF30883B3F579
:1013F000004F02D2094D2B780BB1002070BD0126A1
:10140000074CC4F8006501F0BBF818B92E70C4F899
:101410000005F2E76FF00D00F0E700BF90C6002076
:101420000000845090B5B1F1005F83B002AF1FD2CD
:10143000BBB16C46ADF5007D02AB00934FF4007379
:1014400003F031FEA5460E4B984213D00A33984262
:1014500013D00C3B984208BF6FF015000437BD460F
:1014600090BD084B00934FF4004303F01CFEEAE7E5
:101470000023F7E76FF01500F0E76FF08500EDE768
:101480000202F00098D6002008B500F0D7FF034B09
:10149000984208BF6FF0150008BD00BF0002F000C1
:1014A0001FB50446074A01AB07CA83E807000C22B0
:1014B0001946204604F04AF800280CBF20460020B8
:1014C00004B010BDCC5B000070B505460024054E8D
:1014D00056F8040B2844FFF7E3FF10B90134072C3A
:1014E000F6D170BD685F000073B50B460246064634
:1014F0000D461648492103F015FC01200DF10601A7
:1015000003F05BFE044628B145210246104803F073
:1015100009FC08E0BDF8063043B945210D4803F049
:1015200001FC6FF01504204602B070BDB5FA85F1DC
:10153000490941EA4601012089B203F083FE0446CD
:101540000028F0D0024645210348E0E71B64000074
:10155000526400009B640000C764000037B5054674
:1015600090B101200DF1060103F069FE044630B18F
:101570004521074803F0D6FB204603B030BDBDF837
:1015800006305B082B80F7E76FF01504F4E700BF27
:10159000036500002DE9F04F824689B010460F46E2
:1015A00014461D46D2F80C90D2F81080FFF778FF51
:1015B00040B91DB94521A74803F0B4FB002009B08C
:1015C000BDE8F08FA069504504D0002DF6D145212B
:1015D000A148F1E725B9B8421FD045219F48EBE764
:1015E0003846FFF771FF8442E8D1226A9C4B9A4249
:1015F000E4D10DF10E00FFF7B1FF002842D162697E
:10160000BDF80E309A42D9D32669B6F5A03FD5D899
:10161000E368B34240D995B3D0E7FFF755FF844262
:1016200002D045218F48C7E7226A8D4B9A4213D1D9
:1016300049218D4803F076FB0DF10E00FFF78EFF78
:10164000024670B96269BDF80E309A4243D32669EA
:10165000B6F5A03FDCD912E04521844803F062FBD7
:10166000ACE74521824803F05DFB4921814803F046
:1016700059FBADF80E502669B6F5A03F30D945218B
:101680007D4899E70023ADF80E302669B6F5A03FF6
:1016900094D8E3689E4291D314EB090924D218EB45
:1016A000070321D2BC421FD3A3421DD909F1FF3940
:1016B0004F4519D84B4517D918EB0A082CBF4FF0E6
:1016C00001094FF00009E36914D3002D7FF476AFD0
:1016D00045216A4870E74521694803F023FB6DE71F
:1016E000E3689E42D8D2CAE7002D7FF467AF452158
:1016F000644861E75345E8D34345E6D23A1DA2EB7F
:101700000A02D358534505D2002D7FF457AF452127
:101710005D4851E74345F7D207EB06085B4B08F1FC
:10172000050B0DF1100A93E807008AE807000C2268
:101730005146404603F00AFF544B18B9B8F1000F68
:1017400040F0C48008F10108C345ECD1002D7FF4BE
:1017500035AF45214E482FE7002D7FF42FAF4521AF
:101760004C4829E700F02CF9044668B1002D7FF4BD
:1017700025AF02464521484803F0D4FA71347FF47E
:101780001DAF4921454817E7454A464B002D14BF78
:1017900093469B4600F0BAF8844205D3002D7FF4AF
:1017A0000DAF4521404807E75146204600F030F98B
:1017B0001028024610D010F1160F07D125B9224685
:1017C00049213A4803F0AEFA0134E3E7002D7FF4F3
:1017D000F5AE4521364841E765B9224649213548ED
:1017E00003F0A0FA49219DF81F309DF810203248DF
:1017F00003F098FA08F170023B465146009608F152
:101800003000D8470246A8B92C4E4C4506D11DB928
:1018100049212B4803F086FA0120D0E625B94A4633
:101820004921304603F07EFA484600F021F909F1DB
:101830000109EAE710F1650F06D1002DC4D1572147
:10184000204803F06FFABFE7002D7FF4B7AE4521C3
:101850001D4803E7286500004B6500008165000016
:10186000FFFF0291B165000007660000DD65000022
:101870002B66000055660000DE6600004067000031
:101880009B660000106700006F670000D85B0000D7
:101890009F670000D36700002C68000053680000B9
:1018A0001B5000003B500000B26900008B68000034
:1018B000B7680000DD680000066900001F690000CD
:1018C000396900005B69000083690000D8F80C20CA
:1018D000A3699A427FF440AF03F0A8FB02460028B8
:1018E0003FF440AF002D7FF469AE45210048B5E6D6
:1018F00009680000014803F052BC00BF3081FF00BE
:10190000014803F04CBC00BF3481FF00014803F0E4
:1019100046BC00BF3881FF0008B50246FFF7F6FF5E
:10192000904217D914200D4B0D4900FB023003F0F3
:1019300036FC0C4B43EA026341EA0262824209D060
:10194000834209D0002383F31188BFF36F8F0423F0
:10195000184602DF002008BD0120FCE73C81FF00A3
:101960000000FA50FFFFFA502DE9F0410746FFF75B
:10197000CDFF1423114D03FB0055284603F036FD1F
:10198000012803D000242046BDE8F0814FF0000874
:101990002C1DAE1C304603F029FD4045F2D9A01C99
:1019A00003F024FD0546204603F020FD8742EAD0DF
:1019B000023504EB450408F10108EBE73C81FF0028
:1019C000F8B5FFF7A3FF10281AD800244FF6FF77C9
:1019D0000E4DFFF79BFFA04201D80020F8BD204626
:1019E000FFF79AFF48B1A5F11006304603F0FEFC60
:1019F000B84208D00236AE42F7D101341435E8E7D8
:101A00006FF01500EAE76FF07000E7E75081FF0024
:101A1000F8B504460D46FFF77FFF08B3FFF776FFE2
:101A2000A04220D9142300225C43104F0434A01894
:101A3000384403F0B4FBC2F11003032B94BF00231E
:101A4000012300219B00CE0020FA06F66E540131DE
:101A50009942F8DB1A440F2A1D44E8D91020F8BD3A
:101A60006FF01500FBE76FF00D00F8E73C81FF0019
:101A700010B50446FFF750FF40B11420044B054950
:101A800000FB0430BDE8104000F0F8BA10BD00BF04
:101A90003C81FF000000FFFF2DE9F04F87B00646B4
:101AA000009198B303F0EAFB00270446B36BBB42F6
:101AB0004ED94FF00008DFF8B8A04FF000095AF8EF
:101AC000043BDFF8B0B05BF8045B01931D44254B89
:101AD00093E8070003AB83E8070019460C22284669
:101AE00003F034FD019B00B9A5B909F10109B9F171
:101AF000070FE8D11C4B08F101089845DDD3009B86
:101B000013B10022636A1A60236A3BB3002007B056
:101B1000BDE8F08F2B6A154A9342EBD1AE42E9D073
:101B2000696B05F13C038842E4D025691A69954246
:101B30000AD19A69A569954206D8E569954203D903
:101B400062695D69AA4305D0DA6801301344EAE7A7
:101B50000120DCE7009A0AB1626A1360E36801378A
:101B60001C44A3E7E45B000001000000FFFF0291BA
:101B7000546A0000845F00002DE9F043224885B0DC
:101B800003F07CFB002604461F4B204FD3F838801F
:101B9000DFF88090B04503D8002005B0BDE8F083A1
:101BA000636A97E807001D6801AB83E807000C2211
:101BB0001946284603F0CAFC78B975B122692B6929
:101BC0009A420AD1AB69A2699A4206D8E2699A425E
:101BD00003D963696A6993430CD0256A75B10C48CF
:101BE00003F07FF8002383F31188BFF36F8F042382
:101BF000184602DFE36801361C44CBE7484603F091
:101C000070F8636A1D60F5E700020000F05B0000F9
:101C1000E36900000C6A0000026A044B9A4203D197
:101C20000349203000F02ABA704700BFFFFF02913D
:101C30000000FFFF08B5EFF31083012B0C4A07D11A
:101C4000126ABFF34F8F511C4A424A41104608BDE9
:101C500003F02AFB00B172B6126ABFF34F8F531C18
:101C60005A425A4103F020FB0028EFD062B6EDE75C
:101C70000080FF0008B5EFF31083012B0B4A06D15B
:101C8000D269BFF34F8F02F00102104608BD03F086
:101C90000BFB00B172B6D269BFF34F8F02F00102A5
:101CA00003F002FB0028F0D062B6EEE70080FF00F0
:101CB00010B503F0F9FA30B14FF050230022C3F809
:101CC0001421C3F8182103F0FEFA28B10122644B55
:101CD000C3F8382AC3F878254FF47F02D2F83031A0
:101CE000D2F83421BFF34F8FC3F30B03092B05D177
:101CF000012A1EBF01225A4BC3F8782503F0E3FAEC
:101D000018B10E22574BC3F8E42E03F0CDFA30B1D0
:101D10000022534BC3F80C270122C3F810270022DE
:101D2000D30003F57F03D3F80013BFF34F8F0131C6
:101D300008D0D3F800130132D3F80433B2F5807F12
:101D40000B60EDD1EFF31084FFF794FF00284DD026
:101D5000BFF34F8F444BD3F80024012AFBD1C3F8C3
:101D60000425D3F80024012AFBD1012C03D003F071
:101D70009BFA00B172B6FFF77DFF58B13B4AD369B9
:101D800023F00103D361BFF34F8F374AD2F80034F9
:101D9000012BFBD1FFF74EFF68B1344A136A23F0E1
:101DA000FF0343F020031362BFF34F8F2E4AD2F894
:101DB0000034012BFBD1012C03D003F075FA00B1E4
:101DC00062B60022284BC3F80425D3F80024012A68
:101DD000FBD1BFF34F8F2649264BCA6802F4E0625D
:101DE0001343CB60BFF34F8F00BFFDE7FFF722FF28
:101DF0000028ADD11E4AD2F88C3043F44063C2F8BB
:101E00008C304FF47F03D3F83021D3F83431BFF353
:101E10004F8FC2F30B02092A16D1013B022B02D8C5
:101E2000154AD35C83B11148144903680E4A8B42AA
:101E30000CBF5A230023C2F8103EC36A8B420CBF6A
:101E40005A230023C2F8003E094AD2F8883043F4EE
:101E50007003C2F88830BFF34F8FBFF36F8F10BD90
:101E60000040005000A00350009003500080FF008D
:101E700000ED00E00400FA053F6A0000FA50FA5055
:101E800030B50468ACB1B4FA84F30122C3F11F0386
:101E9000DBB29A4024EA0202D0E8EF5FA54204D107
:101EA000C0E8EC2FBCF1000FF6D1EAD102480B706C
:101EB00030BD0248FCE700BF0000AD0B0200AD0BD7
:101EC000014BC3F8040570470070015001460148FA
:101ED00000F0B6B8FCC40020044B1A7922B90122E4
:101EE00018601A710248704702487047F8C5002010
:101EF0000000AD0B0C00AD0B08B5084B1B6833B1EF
:101F00000520FEF729FE10B90520FEF717FE4FF059
:101F100050230122C3F8182508BD00BFF8C50020D2
:101F200010B510B1012847D010BD4FF05023D3F8A1
:101F30001814D3F81824C90322D502F00303022B86
:101F400005D0012B02D0002003F0D9F901234FF076
:101F500050220220C2F8183508224FF48273002163
:101F600003F1502319601C68012402F1502214600F
:101F7000164A126822B34FF05023C3F80403D3E784
:101F8000D3F81424D207E1D5D3F81C2402F00302BD
:101F9000013A012AD7D80D4A12681AB10222C3F8B1
:101FA0000423C1E7D3F80421002AFBD00022C3F8A0
:101FB0000421D3F80431B7E700224FF48073CEE751
:101FC0001A68002AFCD019601B68ADE7F8C500202C
:101FD000F8B54FF0502301250026D3F80443174FDE
:101FE00004B9F8BDB4FA84F0C0F11F00830003F512
:101FF00080739BB203F1502305FA00F21968D2B244
:1020000024EA02040029EBD01E601B684FF0502325
:10201000022AC3F808230DD1D3F81814D3F81814E2
:1020200001F00301012905D1C3F81825C3F80423E1
:102030009960D5E73B68C0B29847D1E7F8C5002062
:102040000079024B03EB0010FFF71ABF04C5002014
:102050000022034BC3F88425C3F80425704700BF52
:1020600000900350044AD2F80834DB07FBD5016026
:10207000BFF35F8F704700BF00900350012208B587
:10208000054BC3F88425C3F80425FFF7EBFFBDE833
:102090000840FFF7DDBF00BF0090035038B5094B83
:1020A00053F82040013053F82050A54200D838BDE5
:1020B000636823B1204603F0CBF90834F5E72368C1
:1020C0009847FAE7A05F0000012208B5094B0320FA
:1020D0001A70FFF7E3FFFEF769FB03F0D5F9042060
:1020E000FFF7DCFFFEF70AFB034A137B23F0010333
:1020F000137308BD91C6002000C6002008B5034830
:10210000034A0021121A03F0BBF908BD7CC5002068
:1021100094C6002008B50020FFF7C0FF164B03F55A
:10212000006282F3088883F30A880025E023134CB9
:1021300084F82230E57725766576A57684F82050F8
:10214000636A43F4E023636284F82350FEF778FC6B
:10215000FEF776FD4FF0FF33A362E36203F052F91E
:102160000120FFF79BFF0220FFF798FF2B462A462E
:1021700029460348FEF742FD98C6002000ED00E026
:10218000C9200000074808B5074A0849121A03F099
:1021900079F9BDE808400648064A0749121A03F0D3
:1021A00071B900BFE8C400207AC50020606A000051
:1021B000E8C40020E8C40020606A000030B1026872
:1021C000034B04489A4208BF0020704702487047FA
:1021D000DD55AABB8208F0007108F00038B50D4645
:1021E0000446B0B1A0220021043003F06DF995B18E
:1021F0000822294604F1640003F06CF9082205F175
:10220000200104F1840003F065F90020034B2360F2
:1022100038BD0348FCE70348FAE700BFDD55AABB19
:102220007108F0008308F0002DE9F74305460E46DB
:1022300099461146FFF7C2FF0446002840F084800B
:10224000002E00F08580002900F08480B9F1200F75
:1022500040F0828005F14404082205F1040820467C
:1022600003F038F905F1240708223146404603F00F
:1022700031F906F120010822384603F02BF902A9B2
:1022800041F8049D4FF4807003F018F9002865D1DF
:102290004FF48073324A0121136093600823314A5E
:1022A00000F034FB0121052308462F4A00F02EFBE5
:1022B0000823424601211C2000F028FB08233A464F
:1022C0000121032000F022FB2246082301210220E5
:1022D00000F01CFB0823254A01211A2000F016FB00
:1022E0000523234A01211B2000F010FB0823214A6B
:1022F0000121142000F00AFB08231F4A01211520A8
:1023000000F004FB082305F164020121162000F00F
:10231000FDFA082305F184020121172000F0F6FAE6
:102320000823164A01210B2000F0F0FA00F04AFBC6
:102330000446019800F0D8FA114B002C18BF1C4637
:10234000A421284603F0C2F8204603B0BDE8F0837C
:102350000C4CF9E70C4CF7E70C4CF5E7084CEFE7B1
:1023600090108450F85F000070600000B85F0000BB
:102370005C6000001C6000003C600000D85F000052
:102380008408F0007608F0008008F0008108F00072
:10239000C2690C4B1A60826943F8042C426943F805
:1023A000082C026943F80C2CC26843F8102C826890
:1023B00043F8142C426843F8182C026843F81C2C8C
:1023C000704700BF5C1684500C4B1B68C3610C4BFC
:1023D0001B6883610B4B1B6843610B4B1B680361DC
:1023E0000A4B1B68C3600A4B1B688360094B1B6860
:1023F0004360094B1B680360704700BF5C16845044
:102400005816845054168450501684504C168450DC
:1024100048168450441684504016845030B10268E7
:10242000034B04489A4208BF002070470248704797
:10243000DD55AABB0202F0000002F00038B50446E8
:1024400068B1051D7021284603F040F82846202277
:10245000044903F037F80020034B236038BD0348DC
:10246000FCE700BF84600000DD55AABB0002F0005D
:102470002DE9F04385B015466F46274B04460E46BE
:102480000FCB87E80F002DB94FF00009484605B083
:10249000BDE8F0832046FFF7C1FF81460028F5D153
:1024A000231D0193636AA3BB236F8BB1C3F1400863
:1024B000A84528BFA84604F13000314618444246DA
:1024C00003F000F8236F464443442367A5EB080557
:1024D000226F402A06D104F13001384600F0B4FBE7
:1024E0000023236705F03F0835F03F0505D031464E
:1024F0002A46384600F0A8FB2E44B8F1000FC3D09E
:102500004246314604F1300002F0DCFFC4F870802E
:10251000BCE7DFF80890B9E7FC5B00000C02F000B4
:102520002DE9FF4104466F46134B0E460FCB87E85B
:102530000F002046FFF772FF8046B0B9CEB1636A44
:10254000251D01953BB90123226F636204F130011F
:10255000384600F079FB2B46043E243453F8042B14
:1025600012BAA34246F8042FF8D1404604B0BDE8A1
:10257000F081DFF80880F8E7FC5B00000502F0005E
:10258000084B1B681B0EF02B08D1074B1A68074B32
:102590009A4205D10020064B18607047052070470D
:1025A0000620704728198450241A84500000E02027
:1025B0000C1A8450002230B5134640F6FC754900D1
:1025C000023802F1A15404F5823490424FEA8404A7
:1025D00002F10102CABF236025605B181E2AF0D1F8
:1025E000034A13600B445360024B034A1A6030BD28
:1025F000781084508410845020F80F001E4B30B5A2
:102600001A4685B0196800910099CC07FAD500F1F7
:10261000A15000F582308000016813680193019B8E
:10262000D807FAD5154B164C186820231F3090FB9D
:10263000F3F0144D0138002810DA00230130400176
:1026400053B14FF00042A0F12001134204D10138F0
:1026500088424FEA5202F8D105B030BD13680393A7
:10266000039BDB07FAD5431823602B680293029B78
:10267000002BE3D10138DEE7B4108450AC10845055
:10268000E4108450DC108450F0B51D6885B001F072
:102690001F040DB91F2C28D1174D2E462F68019706
:1026A000019FFF07FAD500F1A15000F582308000AC
:1026B000006835680395039DED07FAD51F2C00EBE4
:1026C000611018BFC9430D4D18BF01F01F012860EC
:1026D0000B480068029002981CBF00FA01F11160DB
:1026E0004FF0000108BF1060196010684300C00F70
:1026F000136005B0F0BD00BFB4108450E4108450E6
:10270000DC1084500C4B890118603F3020F03F00F2
:102710004030586099600948D960196159619961E0
:102720001C3382B0196002680192019AD207FAD56F
:10273000196002B0704700BF90108450B4108450EC
:1027400038B5A0F12003B3F5426F05462CD88F2889
:1027500026D800F1470300F16604DB064FEA541463
:1027600000D0013464013F34A409013411B1A14205
:102770001AD30C464FF48050E300B0FBF3F020284E
:1027800028BF202002B110600122084B21461A60A8
:10279000FFF710FF28462146FFF7B4FF002038BDA1
:1027A00000F11F046409DDE70148F8E71C188450B4
:1027B0002221F000464BF0B51D4689B01C680194FB
:1027C000019CE407FAD5434B002413449B001A688C
:1027D0000B181E2B88BFC0F11E011F320B185209A7
:1027E0005343B3F5806F84BF4FF48061B1FBF2F1C6
:1027F000274688BF091ADFF8E4E000F1A150DFF8AE
:10280000E0C000F58230A14233DC2B680493049BC6
:10281000DB07FAD5304B1B68296805910599CF076E
:10282000FAD52E4C2E49236000231E46934203F115
:10283000010040D11946002620F0010228488A42B2
:102840003CD8296806910699CE07FAD5254909682A
:10285000286807900798C007FAD5216000210C4628
:102860001F488B422DD100201D499A422CD809B017
:10287000F0BD2B680293029BDB07FAD503199B007E
:102880001B682E680396039EF607FAD5CEF8003033
:102890000023934203F1010306D1164623F00103FE
:1028A000B34204D80134AEE7CCF80070F1E7CCF8BD
:1028B00000700136F4E70E600346B7E706600131A9
:1028C000BDE704600131CCE708600133CDE700BF0C
:1028D000B4108450240421147C108450D4108450EB
:1028E000D81084507810845008B540B12028014693
:1028F0004FF0070228BF20210020FFF75BFF0022D6
:10290000014B1A6008BD00BF1C188450F0B5294D5A
:1029100085B02C462E680096009EF607FAD500F189
:10292000A15000F582308000056820680190019870
:10293000C707FAD52048214F056002EB8306B24253
:1029400029D100275A1C1D4E22F001029A4227D895
:1029500023680293029BDE07FAD5194B0B449B00B8
:102960001B681F335B099A4213D2216803910399B4
:10297000C907FAD500211544056008469B1A0F4A7D
:102980008B4210D800205A1C0C4922F001029A42B6
:102990000CD805B0F0BD52F804CBC7F800C0CEE7A4
:1029A00037600133D2E710600131E9E70860013395
:1029B000EDE700BFB4108450D4108450D810845078
:1029C000240421142DE9F041814BA0B01D689868C2
:1029D00020331E461A680192019AD707FAD57D4B1B
:1029E0007D4A1A6032680292029AD407FAD57B4A6D
:1029F0001A607B4A1446116803910399C907FAD5F6
:102A0000784A1168C1F3402137680497049FFF0793
:102A1000FAD5754F1F6027680597059FFF07FAD500
:102A20001768002900F0CF80B90540F1CC803168EB
:102A300006910699CF07FAD56C491960216807916C
:102A40000799C907FAD51168C1F34021376808977B
:102A5000089FFF07FAD5664F1F6027680997099FEF
:102A6000FF07FAD51268002900F0AF80910540F108
:102A7000AC8032680A920A9AD207FAD5564A1A608E
:102A800032680B920B9AD707FAD55A4A1A60316806
:102A90000C910C99CC07FAD55749196031680D9102
:102AA0000D99C907FAD55549196031680E910E99EB
:102AB000CF07FAD55249196031680F910F99CC07A9
:102AC000FAD550491960504B1E461968109110995B
:102AD000C907FAD53F4C4D4B236033681193119BC6
:102AE000DB07FAD54A4B236033681293129BDF074A
:102AF000FAD5484B23603A4B9846196813911399BD
:102B0000C907FAD5324F386033681493149BDB073A
:102B1000FAD5226033681593159BD807FAD53E4B3A
:102B2000236033681693169BD907FAD53B4B236075
:102B300033681793179BDA07FAD5394B236033684C
:102B40001893189BDB07FAD5364B2360336819932B
:102B5000199BD807FAD5344B236033681A931A9B14
:102B6000D907FAD5314B236033681B931B9BDA07D7
:102B7000FAD52F4B236000F01DFC08BBD8F80030BD
:102B80001C931C9BDB07F9D53D6033681D931D9B8F
:102B9000D907FAD5274B236033681E931E9BDA07AB
:102BA000FAD5254B2360D8F800301F931F9BDB0715
:102BB000F9D50C4B1B6813F4805F204B08BF1846F7
:102BC00020B0BDE8F0811E48FAE71E48F8E700BFD4
:102BD000901084508010845000100251C01F722940
:102BE000B410845088108450C0CF0129C01F0E2912
:102BF000C03F002940010249003184A80000164965
:102C0000400108A180440888B0108450C0447088F6
:102C100080077A41C0077E4100006A498006164954
:102C200040006E49000200210082202140822021C4
:102C30008082242140A161A100C861510308F100F4
:102C40000108F1000208F100324B2DE9F74F8046F0
:102C50009246994644681A68002AFCD12E4B9B463E
:102C60001A68002AFCD14FF0FF30019100F094FC6B
:102C7000802000F097FC01230720284A284DA2F568
:102C80009E722B60C2F83C011360636A254F264E8A
:102C90003B60A36A20463360D8F8003042F8043C19
:102CA000D8F8083098470199D9F80030002BFBD1AB
:102CB000BAF1000F20D104221C4B1A60D9F8003061
:102CC000002BFBD1DBF800A0BAF1000FFAD1D8F845
:102CD0000C30204698473B6863623368A362144B0C
:102CE000C3F800A0C3F844A1D9F80030002BFBD1F1
:102CF0002B6003B0BDE8F08F236A4020012B04BF96
:102D00000B4A13600B4B1960C3F804A000F050FC91
:102D1000D4E700BF10198450201C8450001984503F
:102D200018188450CC178450D0178450C81784507A
:102D300084168450281C8450544B10B5194698B002
:102D40001A680192019AD207FAD5514B514A1A607A
:102D50000A680292029AD407FAD54F4A1A600A68A2
:102D60000392039AD007FAD54C4818600A68049277
:102D7000049AD207FAD54A4A1A600A680592059A57
:102D8000D407FAD5474A1A600A680692069AD2070B
:102D9000FAD5454A1A600A680792079AD407FAD505
:102DA000424A1A600A680892089AD207FAD5404A3D
:102DB0001A600A680992099AD407FAD53D4A1A603E
:102DC0000A680A920A9AD207FAD53B4A1A600A6838
:102DD0000B920B9AD407FAD5384A1A600A680C92FB
:102DE0000C9AD207FAD5364A1A600A680D920D9AE3
:102DF000D407FAD5334A1A600A680E920E9AD2079F
:102E0000FAD5314A1A600A680F920F9AD407FAD598
:102E10002E4A1A600A681092109AD207FAD52C4AE4
:102E20001A601A4B19461C681194119CE407FAD5D4
:102E3000174B1860086812901298C407FAD51A60E8
:102E40000A681392139AD007FAD5124A1A600A68D0
:102E50001492149AD207FAD51E4A1A600A6815927B
:102E6000159AD407FAD51C4A1A600A681692169A5F
:102E7000D007FAD5194A1A600A681792179AD2072A
:102E8000FAD5174A1A6018B010BD00BFB0108450B0
:102E90008010845000936521000431904096659025
:102EA0000083612100C3302100C3649000816190E0
:102EB00000461021008111210041442100C3202936
:102EC0000C4610C80086312100C3602140C128296A
:102ED000409665210013319040962529594614C823
:102EE00040043249494B10B5194694B01A68009213
:102EF000009AD207FAD5464B464A1A600A680192F0
:102F0000019AD407FAD5444A1A600A680292029AD2
:102F1000D007FAD5414818600A680392039AD2078D
:102F2000FAD53F4A1A600A680492049AD407FAD57F
:102F30003C4A1A600A680592059AD207FAD53A4ABD
:102F40001A600A680692069AD407FAD5374A1A60B8
:102F50000A680792079AD207FAD5354A1A600A68B2
:102F60000892089AD407FAD5324A1A600A68099278
:102F7000099AD207FAD5304A1A600A680A920A9A60
:102F8000D407FAD52D4A1A600A680B920B9AD20719
:102F9000FAD52B4A1A600A680C920C9AD407FAD513
:102FA000284A1A600A680D920D9AD207FAD5264A65
:102FB0001A600A680E920E9AD407FAD5234A1A604C
:102FC0000A680F920F9AD207FAD5214A1A600F4B5E
:102FD00019461C681094109CE407FAD50C4B186035
:102FE000086811901198C407FAD51A600A681292FD
:102FF000129AD007FAD5174A1A600A681392139AE0
:10300000D207FAD5144A1A6014B010BDB01084501B
:10301000801084508090652100040990409665904E
:10302000808061218020082180206490008161904F
:1030300000461021008111210041442180202029D7
:10304000024610C8008609218020602140212829DD
:103050004096652140962529594614C8504B10B515
:103060001C4696B01A680192019AD207FAD54D4BC8
:103070004D4A1A6022680292029AD207FAD54B4A48
:103080001A604B4A42EA804022680392039AD207B0
:10309000FAD5186022680492049AD007FAD5454AF6
:1030A0001A60A2F5800242EA814122680592059ADF
:1030B000D207FAD5196022680692069AD007FAD587
:1030C0003D4A1A6022680792079AD107FAD53B4A0F
:1030D0001A6022680892089AD207FAD5384A1A600C
:1030E00022680992099AD007FAD5364A1A602268EE
:1030F0000A920A9AD107FAD5334A1A6022680B92CB
:103100000B9AD207FAD5314A1A6022680C920C9AAF
:10311000D007FAD52E4A1A6022680D920D9AD1076F
:10312000FAD52C4A1A6022680E920E9AD207FAD566
:10313000294A1A6022680F920F9AD007FAD5274AB7
:103140001A60216810911099C907FAD51A60144BBA
:103150001A46196811911199C807FAD5114B2049DF
:103160001960116812911299C907FAD51D491960A1
:10317000116813911399CC07FAD50B49196011689E
:1031800014911499C807FAD5174919601168159157
:103190001599C907FAD5154A1A6016B010BD00BFB7
:1031A000B01084508010845040044190008629293A
:1031B000D81001C8401441904014212940146521C1
:1031C0000034409000310C90C0400C90C030202959
:1031D00040960D9000416090031645C8008611216D
:1031E00000416021594644C84014459040142D9038
:1031F000264870B5054688B004680094009CE60730
:10320000FAD5234C23480460234C44EA83432C68BA
:103210000194019CE407FAD50360930143EA8242DA
:1032200042F0104444F4C0442B680293029BDE0732
:10323000FAD504602B680393039BDB07FAD5174B81
:1032400003608B0143EA814141F0104343F4C043E2
:103250002E680496049EF607FAD503602B68059342
:10326000059BDE07FAD5046041F058412B680693B0
:10327000069BDC07FAD5016042F058422B680793A1
:10328000079BDB07FAD5026008B070BDB010845010
:10329000C0210229801084508071009880611890AC
:1032A000354B8EB019461A680092009AD207FAD5AB
:1032B000324B334A1A600A680192019AD007FAD554
:1032C000304A1A600A680292029AD207FAD52E4A48
:1032D0001A600A680392039AD007FAD52B4A1A603B
:1032E0000A680492049AD207FAD5294A1A600A6831
:1032F0000592059AD007FAD5264A1A600A680692FE
:10330000069AD207FAD5244A1A600A680792079AE1
:10331000D007FAD5214A1A600A680892089AD2079B
:10332000FAD51F4A1A600A680992099AD007FAD595
:103330001C4A1A600A680A920A9AD207FAD51A4AEF
:103340001A6008680B900B98C007FAD51A600A68D3
:103350000C920C9AD007FAD5144A1A600A680D929A
:103360000D9AD207FAD5124A0E211A6000200D23B9
:103370000F220EB0FFF73CBFB01084508010845075
:103380008043012940633921807001298020542124
:1033900000D13490C0403490C0302029C0530D90EB
:1033A00000413890832308C880E310210041382170
:1033B000CF4308C801232DE9F04192B0CDE9033392
:1033C000624B1D461A680592059AD207FAD5604BE2
:1033D000604C2360604B19461A680692069AD7071C
:1033E000FAD55E4B1A68D60400F1A8802A680792C5
:1033F000079AD007FAD55A4A22600A680892089AB2
:10340000D207FAD51E68C6F30036002E40F0988029
:103410001220FFF7F3F807461320FFF7EFF8874273
:103420008CBF12201320FFF7E9F8471EFFF738FF83
:1034300003AB01AA39461220FFF726F904AB8046F8
:1034400002AA39461320FFF71FF900EB48000228B3
:1034500032D003283ED0012874D12B680993099BF0
:10346000DB07FAD53F4B23602B680A930A9BD807EA
:10347000FAD53D4B23602B680F930F9BD907FAD5E4
:103480003A4B23602B681093109BDA07FAD5384B20
:1034900023602B681193119BDB07FAD5354B236012
:1034A000013F25D51023192218210020FFF7A0FE87
:1034B000304612B0BDE8F0812B680B930B9BD90707
:1034C000FAD52D4B23602B680C930C9BDA07FAD5A9
:1034D0002A4BCFE72B680D930D9BDB07FAD5284BC2
:1034E00023602B680E930E9BD807FAD5254BC1E7B6
:1034F00003AB01AA39461220FFF7C6F804AB044615
:1035000002AA39461320FFF7BFF810EB440402D19A
:10351000FFF712FCC4E7FFF7E5FC022C08D0032CF0
:1035200009D0012C10D117211620FFF797FDB7E71E
:1035300015211420F9E70F210E20F6E7124EB7E708
:10354000124EB5E7124EB3E7124EB1E7B0108450F9
:1035500000084A5180108450B41084508810845060
:1035600000084E5100065A4940065E490004424197
:103570000014424940042E4900065249400656496B
:1035800000063A4940063E490608F1000708F100E6
:103590000408F1000508F100014B1860704700BFF6
:1035A000081A8450014B1860704700BF041A8450F9
:1035B000034A13681842FCD0024A1060184670474C
:1035C000001A8450081A845010B50A4C23681BB1A5
:1035D00001232360002010BD00F046F80028F7D03A
:1035E0000138062803D8044B53F8200010BD0348C7
:1035F00010BD00BF74C60020A4600000FE8FFFFF56
:10360000BFF34F8F0549064BCA6802F4E0621343CB
:10361000CB60BFF34F8F00BFFDE700BF00ED00E0C0
:103620000400FA0530B44FF0FE320025074B084C79
:1036300008494968C3F80024C3F80424C3F80824DF
:10364000C3F80C24C4F8005530BC0847001084505F
:103650000000845014C50020024BD0E90012C3E9D9
:103660000012704714C5002038B500F02FF820B1C3
:10367000032400F063F8204638BD00F031F898B913
:1036800000F0ACF898B90F4DD5F828391B0EF02B87
:1036900008D1D5F8242A0C4B9A420AD0072400F00E
:1036A00017F8E6E70624FAE70424204638BD00248C
:1036B000F5E7012000F092F804460028F7D1C5F89C
:1036C0000C0AD8E7001084500000E020002070476A
:1036D00000207047014BC3F8040A70470010845063
:1036E00010B5114800F048F800B110BD0F4800F0C7
:1036F00043F80028F9D10E4C204600F03DF8002890
:10370000F3D10C4B0C481C6000F036F80146002841
:10371000EBD100F02DF8044608B1204610BD00F0B2
:103720003FF82046FAE700BF2CC5002028C500203E
:1037300024C500201CC5002020C5002008B508486D
:1037400000F024F8074800F021F8074800F01EF8C0
:10375000064800F01BF8BDE8084000F00BB800BFB9
:103760002CC5002028C5002024C5002020C500202D
:1037700000207047704700BF08B5034B02681B6804
:1037800010689847002008BD44C5002008B5034BC9
:1037900002685B6810689847002008BD44C5002097
:1037A00070B5094C094D2069AB68984718B1084BB2
:1037B00008485B6898470021074AEB681160206958
:1037C000BDE87040184700BF30C5002044C5002048
:1037D00014C50020C060000078C60020F8B51A4D5E
:1037E0001A4E0446B26828699047E8B9184F3B68FA
:1037F0004CB1A3B1012B19D0013B3B602869F368A0
:1038000098470020F8BD43B90121124AC2F80015BB
:103810001149D1F81029002AFBD101333B60F3682C
:10382000286998470020F8BD0C48F8BD0A4AD2F82C
:103830001039002BFBD1074A6FF07E40C2F80035EB
:10384000FFF748FF3B68D7E730C5002044C500209C
:1038500078C600200000845000108450E98FFFFFDC
:1038600010B5044650B1636813F0685F05D0064A8E
:10387000934202D000236260236010BD034B0448D2
:103880005B689847EFE700BF2C5F5CA914C5002078
:10389000E0600000C8B143680D4A934213D013F0B2
:1038A000685F0ED0012350E8002F194640E8001C45
:1038B0009CF0000FF7D1012AF5D0BFF35F8F0020F5
:1038C000704704487047044870476FF4E040704701
:1038D0002C5F5CA9E98FFFFFEA8FFFFF034680B1F1
:1038E000426809498A420AD012F0685F05D0BFF3E6
:1038F0005F8F002210461A607047044870470448E2
:1039000070476FF4E04070472C5F5CA9E98FFFFFC0
:10391000EA8FFFFF10B5044620B10023034A23605D
:10392000626010BD0248FFF77DFEF6E73A00003AFC
:10393000086100002DE9F04101260746B24201DC92
:10394000BDE8F0813B461F4613F8014B002CF7D031
:10395000252CF8D11C780237252CF3D00023DFF872
:1039600004819C461D461F2D18D8A4F1200EBEF1DF
:10397000100F09D9A4F1300EBEF1090F1ED80A2488
:10398000202504FB03E304E028FA0EFE1EF0010FDD
:1039900006D017F8014B002CE5D128E07F2D1CD86C
:1039A000A4F1300EBEF1090FE9D9242C10D1BCF1DD
:1039B000000F46D0B34246D00023EAE724F0040EBD
:1039C000BEF12A0FF8D06C2C09D145F08005E0E754
:1039D00024F0040EBEF12A0FEED06C2C22D06C2CF9
:1039E0001BD8682C23D06A2C28D04C2C26D0BCF1B4
:1039F000000FA5D0B445A1D144F020070B68A7F172
:103A0000650CBCF1020F01D9612F1ED1073323F0E1
:103A10000703083301360B608FE7742CB9D07A2C7A
:103A2000B7D0E4E72C0648BF45F40075CDE7EC05B8
:103A300048BF45F4007545F48075AAE745F4207544
:103A4000A7E79C46B8E76324D6E7692C02D007D8DD
:103A5000632C03D02F0601D5AC05D7D40433D9E7A6
:103A6000732CF6E7892801002DE9F04F436893B0E5
:103A70008046019383789807CDE9061216D50B4648
:103A800000250B921F789FB1252F15D00133059388
:103A900041463846019B01359847002880F22A8428
:103AA00098F8023043F0040388F802304FF0FF35F5
:103AB000284613B0BDE8F08F5F789A1C252F059239
:103AC000E6D000242646A246A346BBF11F0F32D8FB
:103AD000A7F12003102B0AD8DFE803F02409092AF4
:103AE0000909091B09090922092709091900A7F170
:103AF0003003092B2DD92A2F39D154B90B9B1BF038
:103B0000400F53F8042B0B9329D0164601E04BF0DD
:103B1000010B059B13F8017B0593002FD5D15BE0CA
:103B20004BF0020B4BF0040BF3E74BF0080BF0E704
:103B30004BF0100BEDE7BBF17F0F3FD8A7F130033F
:103B4000092BD8D81BF0400F03D00A2202FB0636FF
:103B5000DFE70A2202FB0A3A4BF0200BD9E7B2F169
:103B6000000AF9DACAF1000A4BF0280BD1E72E2F30
:103B700005D11BF0400F9BD14BF0400BC9E7242F20
:103B80001CD1002C00F03E81079B1BF0400F0B93D3
:103B90000AD152460BA90698FFF7CCFE0B9B1A1DC3
:103BA000D3F800A00B92B4E732460BA90698FFF7B2
:103BB000C1FE0B9B1A1D1E680B92AAE76C2F00F02A
:103BC0000E8100F20581682F00F011816A2F00F04C
:103BD00016814C2F00F0138134B1079B22460BA9AC
:103BE00006980B93FFF7A6FE002E47F02009B8BFFA
:103BF0002BF0400BA9F16503BCBF00261FFA8BFB1D
:103C0000022B40F20481B9F1610F40F05882FF436A
:103C10001BF0400F0CA84BF4C05407F0200308BF62
:103C20004FF0FF36049331460B9B073323F0070315
:103C300003F1080293ED000B0B92049A01F0C0FD12
:103C40000130C3B2B342029301DB029B5E1E01232B
:103C50000C9FA3464FF07009039307F10903122B41
:103C60000DD907F16303C62B40F20A8107F2E7334F
:103C700040F2CE72934294BF0323042303939DF832
:103C8000342002F00C0312F0010240F014811BF00A
:103C9000020F40F00D811BF0040400F0F380002BB4
:103CA00040F00C8120231BF4405F20D1029A002EAB
:103CB00002F1480208BF01266A44133A029921B171
:103CC00012F8011D302900F02E811BF0100F029A0E
:103CD00018BF3246391DC0F22B81B74280F22881CD
:103CE000BA424BF4005B40F325817E1C961B1BF40B
:103CF0000052089200F0208127EAE774013403B1F2
:103D00000134002E00F02081721C1444A245CCBF67
:103D1000AAEB040400241BF0090F04D12C44A54293
:103D200040F0178100243BB118464146019B013504
:103D300098470028FFF6B4AE1BF4006F12D041463E
:103D40003020019B98470028FFF6AAAE049B41460D
:103D50000235C3F17800019B00F0F8009847002875
:103D6000FFF69EAE1BF0080F05D12C44AC4240F08C
:103D7000FC8025460024089B002B00F0158127EAD3
:103D8000E77A7642A7EB0A07029B0AF1FF3A05F1B0
:103D900001094146BB4289BF0CAB3020FB18587962
:103DA0005645019B00F3EA809847002807F1010778
:103DB000FFF676AEBAF1FF3F08D141462E20019BB7
:103DC00098470028FFF66CAE05F102094D46DBE787
:103DD000742F3FF49EAE7A2F3FF49BAEFCE61BF0AF
:103DE000800F18BF4BF4007B4BF0800B91E61BF467
:103DF000807F18BF4BF4007B4BF4807B89E64BF44B
:103E0000207B86E626465446B346B24681E6FF430B
:103E10001BF0400F07F0200308BF0626B9F1650F1D
:103E200004930B9B03F1070323F0070303F108023C
:103E300093ED000B0B9211D1711C00224BF4805BAF
:103E4000C9B2134611290CA828BF112100F0F2FABB
:103E50000C9FC3B2029302230393FEE6B9F1660FEF
:103E600005D14BF4005B334601221121EAE7F1B2A0
:103E700000224FF065090129134638BF0121E1E70F
:103E80000223FBE6002B3FF40EAFBAF1030F39DC3F
:103E90009DF83430A14E13F0080FA14B08BF1E4609
:103EA0003746B94617F8010BA0BBAE1BB14478E00A
:103EB00023BB2B23F7E61BBB2D23F4E62022BAF10C
:103EC000040F12DD1BF0080FAAF104040ED12C44DC
:103ED00041462020019B0135029298470028FFF6B9
:103EE000DFADA542029AF3D192B1002441461046BB
:103EF000019B013598470028CADAD1E52B22DEE77D
:103F00002D22DCE71BF0080FAAF10304C0D1DEE785
:103F10001446BDE7049B4146C01A019BC0B29847B6
:103F20000028BEDABCE502990139C9B20291C5E6A2
:103F3000561EDCE60026DAE61BF4006F039A0CBF7F
:103F4000032405241444DAE61BF0100F18BF0134D3
:103F5000DCE609934146019B20209847002805F1A3
:103F60000105099BBFF6DBAE9AE541463020019B77
:103F7000013598470028BFF6F9AE91E5984700282B
:103F8000FFF68EAD1BF0100F0BD0BAF1FF3F08D13A
:103F900005F1020941462E20019B98470028FFF6B3
:103FA0007FAD4D464C442CE241469DF83500019BC7
:103FB00098470028FFF674AD002E65DD41462E209F
:103FC000019B98470028FFF66BAD4FF0010A029B5A
:103FD0004146D3469A45B7BF0CAB3020534458797D
:103FE000019B98470028FFF65BAD0AF1010A564590
:103FF000EDDA02355D44049B4146A9EB0300019BC9
:10400000C0B298470028FFF64BAD002F4146019BF8
:10401000B6BF2D202B207F4298470028FFF640ADE9
:10402000039B042B3DD14FF47A794146019B033524
:10403000B7FBF9F606F13000C0B298470028FFF64A
:104040002FAD09FB16774FF064094146019B0135FE
:10405000B7FBF9F606F13000C0B298470028FFF62A
:104060001FAD09FB16774FF00A094146019B013548
:10407000B7FBF9F606F13000C0B298470028FFF60A
:104080000FAD09FB167713E01BF0100F01D10135BE
:10409000B1E741462E20019B023598470028AADA55
:1040A000FEE4039B0235032BCDD0039B012BDAD119
:1040B00007F1300005F101094146C0B26CE7A7F1F4
:1040C0006303122B00F2FF80DFE813F013005700A8
:1040D000FD00FD00FD00FD005700FD00FD00FD009E
:1040E000FD00FD001701F800FD00FD002C00FD00A3
:1040F000B9000B9B01240CAF1A1D1B680B928DF8A5
:1041000030301BF0080F2ED03E19B946B1452CD1E6
:10411000EF1BB944AAEB040443E700BF466A000062
:10412000426A00000B9B1A1D0B921F68AB4B002FBD
:1041300008BF1F461BF0400F384614BF31464FF0F2
:10414000FF3101F013FA0446DBE741462020019BD2
:1041500098470028FFF6A4AC013EB442F5D355447D
:10416000B246AD1BD0E75646F7E7414619F8010BBA
:10417000019B98470028C9DA92E41BF0800F0B9B43
:1041800035D01BF4007F2DD0073323F0070303F154
:104190000802D3E900010B922BF0100900291FFA45
:1041A00089F936DA404249F4806961EB41010DF149
:1041B000300B0A235A4601F0E5F919F0400FA0EB45
:1041C0000B0B65D029F001025E4592B240F3B2803C
:1041D000002F00F0A98019F010033446914626D034
:1041E00002345CE01A1D18680B92C117D4E71A1D3F
:1041F0001BF4807F19680B9201D10846F5E71BF488
:10420000007F19BF48B241F3C01108B241F3C03179
:10421000C2E750EA0103CAD11BF0400FC7D0002EFD
:10422000C5D12BF0110B34461FFA8BF9B34640F27F
:10423000064319EA03031CBF013400232FE02BF0CF
:10424000100B0A231FFA8BFB1BF080040B9A57D02C
:104250001BF4007115BF0732101D22F007020B90EE
:104260000FBF106802F108010B91D2E9000150EA7A
:10427000010252D12BF016091BF0400F1FFA89F9E9
:104280004FD0002E4DD12BF0170B1FFA8BF9B346F0
:1042900019F0100352D0002F4ED10BF1010419F088
:1042A000080F5ED119F0010F06D0A2456EDDAAEB12
:1042B000040404EB0B06544622464DE04BF0100B71
:1042C00010237827C0E7B9F1780F04D1C7F178033C
:1042D00043F01003B8E741462520019B984700288A
:1042E000FFF6DEAB41463846019B98470028FFF6B3
:1042F000D7AB0235059BFFF7C5BB08230027A3E713
:10430000111D10680B911BF48071B0D01BF400716B
:104310001ABFC0B2214680B2A9E72BF0060B1FFAE4
:104320008BF90DF1300B45E729F0110934461FFADE
:1043300089F97CE79146ABE75C4651E75C4676E756
:10434000CDE9022341462020019B98470028FFF633
:10435000A7AB029A039B01329245F1DC2C1BA518F6
:104360001446F3B141463020019B98470028FFF6E0
:1043700097AB6FB90135A9462E44A6EB09035B45FF
:1043800021DC5D460CAE5DBBD944C3E65E4693E7D7
:10439000023541463846019B98470028EBDAFFF783
:1043A0007FBB40F2064319EA030FE4D019F0020F75
:1043B00005F10105414614BF2B20202019F4806F20
:1043C00018BF2D20E7E741463020019B09F1010984
:1043D00098470028D1DAFFF763BB00BF4A6A0000A4
:1043E000013D4146019B705D98470028CBDAFFF7FD
:1043F00057BB41462020019B013598470028FFF616
:104400004FAB631B002BF4DC74E700BF1FB502AB9E
:10441000074A00934FF0CC3301F098F9DDE902012F
:10442000C00840EA4170C90805B05DF804FB00BF50
:10443000CDCCCCCC2DE9F04F9DB055EC104BCDE957
:104440000C322A46C5F313030B91290DD20FC5F385
:104450000A5507908DED050A0A9275B922461A434E
:104460001BD130230126056043710A9B43F00203F0
:10447000037130461DB0BDE8F08F40F2FF729542E7
:104480004DD1059A002613430A9B079A14BF43F0A7
:10449000080343F004031371EBE7059A4FEA83081E
:1044A0009A46B14D02F001020992059A48EA9278C3
:1044B000970001221646C5F1000B0892584600F0FD
:1044C00019FAB5F1FF3FACBF8146A0F10109ABEB92
:1044D000090B09EB05035846069300F011FA18A9D9
:1044E000A0F17D05584600F02BFA14AB089AA9EB11
:1044F0000505019312AB02925146009318AA2B4670
:10450000059801F066F8B9F1010F04460D4600F276
:10451000D880099B002B40F0CB8001276FE0059AE3
:1045200043F4801AA5F2354502F001024FEA8A08E9
:104530000992059A134348EA92784FEA82074BD1D1
:1045400040F2FE7319420CBF01260026002D3246B0
:10455000B1DB284600F0C8F90346032DC8BF013B74
:104560001846069300F0CCF9069B7C3018A95D1B19
:104570000544184600F056FA14AB18AA05980193A2
:1045800012AB5146029600932B4601F022F8069B8F
:1045900004460D46152B00F2888016AB734A384648
:1045A000414600934FF0CC3301F0D0F8169B179A98
:1045B0009B0843EA827303EB8303BB42DDE9129A53
:1045C0000CD13846414600F0A3F9069B83428CBFCC
:1045D00000270127002612E00126B7E7099B002BE0
:1045E00053D1013F48F1FF31B81B61F1000100F0E8
:1045F0008FF9069B099F83428CBF002601260D9BE5
:10460000002B40F09380DDF82CB04FF000084FF005
:104610000A0ACDF82080CDF81480DDE91201FFF7F9
:10462000F5FE149BCDE90E01184615991093FFF77E
:10463000EDFE0E9B81460F9A98420B4611919341D5
:1046400080F08E8020462946FFF7E0FE0AFB09F342
:10465000109AB8F1000F14BF002707F001070AFBFA
:1046600010480D46934214BF002606F001060E9B2B
:104670005FFA88F8044612930F9BCDE91339119B1A
:104680001593089B01330893C7E7B81C48F1000154
:1046900000F03EF9069B83428CBF00200120B9EB5D
:1046A00000006AF10002CDE9120200273E46A6E7AB
:1046B000129B0127139A013B42F1FF32CDE91232DE
:1046C00088E7B9F13E0FF0D84FF0FF33A9F1200091
:1046D000C9F1200103FA09F203FA00F023FA01F10B
:1046E00003FA09F3024327EA03070A4328EA020808
:1046F00057EA08070CBF012700276BE700FB02FC05
:104700000133A1FB001262448C4275EB020CF5D21E
:10471000069A13440C9A1344D20F9342B8BF13461F
:104720000B9A9A42A8BF1A4693466EE70A210022C6
:1047300001230846E8E70AFB03F00131A2FB0A2344
:104740000344944275EB0300F5D2594510DDBBF1EB
:10475000000F02D154EA05030AD00123059371E743
:104760000A2200230121ECE7CCFBFFFFCDCCCCCC0F
:104770007EB34FF00A0A149B159918460F93FFF762
:1047800045FE0F9B0AFB00F281460E919A4220D112
:10479000B8F1000F14BF002707F00107DDE912018F
:1047A000FFF734FE10900F9120462946FFF72EFEAA
:1047B0000F9B0AFB1048109A04460D465FFA88F8D2
:1047C0001292CDE913390E9B1593089B0133089380
:1047D000D1E7069B089A13449946002F5DD0B8F1A3
:1047E000050F5AD114F001034DD1059A32B9DDE914
:1047F00014239D4208BF944262D0059B18194FF0C4
:104800000A044FF000024FF0010645F10001254671
:10481000A04271EB020756D2FBB1B3451DDA0D9BE6
:1048200073B106EB09030C9A1A44012A13460B9A3A
:10483000B8BF01239A42A8BF1A46964293460CDDA0
:10484000053009F1010906F1FF364FF00A024FF079
:10485000000341F10001FBF777FD5E450FFA89F98E
:10486000079BA8BF5E4636B2B14406F1050809F1C0
:10487000FF3798444FF00009B1452BDB079B0A9A9C
:104880001F601A71F5E5059B2BB9DDE914239D42E4
:1048900008BF944209D00123B0E7059B53B9DDE975
:1048A00014239D4208BF944204D1099B002BF2D1EE
:1048B000002EF0D0B8F1040F94BF002301239DE730
:1048C0004FF00408F1E705FB02F70136A4FB0542AF
:1048D0003A449DE70A220023FBF736FD303209F106
:1048E000010908F8012DC7E7014B5843800C7047B8
:1048F00041340100014B5843000D7047FB2E0B0063
:10490000024B5843C00C0130704700BF4F93120058
:1049100070B50346094A00204FF0CC364FF03335CE
:1049200006FB03F402FB0144A3FB023121449D4238
:1049300075EB010401D30130F2E770BDCDCCCCCCD6
:104940001A232DE9F04FB0FBF3FA334E03FB1A03A1
:1049500089B004460D4606EB0A1653B9D6E9002382
:10496000C1E90023D6E90201C5E9020109B0BDE8A9
:10497000F08F2A4A02EBC303D3E9008904AB404617
:1049800049460093D6E9022300F0E0FE06AB8346D9
:104990000F46404649460093D6E9002300F0D6FE74
:1049A00000238146DDE9066216EB0B0652EB070891
:1049B00028BF012333B1049B059A013342F1000261
:1049C000CDE9043220460391FFF79AFF07461A20EB
:1049D00000FB0AF0FFF794FF3F1A32464346484671
:1049E0000399009700F0CDFE0D4A4FEA141C6400B5
:1049F00004F01E0352F82C40DC4004F00304241899
:104A0000304641F10001DDE90423C5E9004141469A
:104A1000009700F0B6FEA7E7E85C0000185C000015
:104A20002C6100002DE9F04F1A2700F11905DFF87D
:104A3000E8A089B004460E46B5FBF7F56F434FEA90
:104A4000051B0AEB05153A1A0AD1D5E90023C1E97D
:104A50000023D5E90201C6E9020109B0BDE8F08FE3
:104A60002B4B03EBC203D3E9008904AB4046494614
:104A70000093D5E9022300F069FE5AF80B206B6819
:104A8000013ACDE9020106A963F100034046009115
:104A9000494600F05BFE8A46029900238146DDE923
:104AA00006526D18039952EB010828BF012333B158
:104AB000049B059A013342F10002CDE904323846E5
:104AC000FFF71EFF07462046FFF71AFF3F1A2A4648
:104AD000434648465146009700F053FE0D4A4FEAC0
:104AE000141C640004F01E0352F82C40DC4004F057
:104AF000030401342418284641F10001DDE90423B0
:104B0000C6E900414146009700F03BFEA3E700BF25
:104B1000185C000080610000B85D00007047836889
:104B200000EBC101B3F5004F2CBF51F8220031F862
:104B30001200704700EBC1018068B0F5004F2CBF38
:104B400041F8223021F812307047012208B5FFF7F2
:104B5000E6FFD04008BD836800EBC101B3F5004F0C
:104B600008D34B681AB143F001034B60704723F040
:104B70000103FAE74B881AB143F001034B807047F9
:104B800023F00103FAE753000122FFF7D3BFB0F58A
:104B9000004F34BF04230823481C0833A0EBD30084
:104BA000B0FA80F0C0F11F0070472DE9F0410D46CA
:104BB00086680446FFF7C9FFB6F5004F014601D3EA
:104BC000012832D03046FFF7E2FF04EB80010E6986
:104BD00096B90122E36882401343E36002220D612B
:104BE0002B4629462046FFF7A5FF032229462046EB
:104BF000BDE8F041FFF79EBF022231462046FFF795
:104C00008EFF0746034629462046FFF793FF0322FF
:104C1000334629462046FFF78DFF39462B4620466E
:104C2000FFF788FF02223146E1E7BDE8F081B2F5E7
:104C3000802F2CBF082304232DE9F0410026D21A2F
:104C40008C18CD1D25F0070524F00704641BE4082B
:104C5000056021462046AC60EE60FFF798FF421DDC
:104C60009200013002F107074FEAD7073146A2F15F
:104C7000100205F11000B8BF324600F05FFC3A4662
:104C800031462846FFF77FFF3346324631462846F5
:104C9000FFF750FFA4EB0708284631460122FFF733
:104CA0005AFF42463946FFF76EFF3B4632463946C9
:104CB0002846FFF73FFF21462846FFF764FF43469B
:104CC000324621462846FFF735FF21462846012275
:104CD000FFF741FF3946BDE8F041FFF766BF00200E
:104CE00070470FB407B504A951F8040B0191FBF705
:104CF00045FD03B05DF804EB04B0704738B50C46D1
:104D0000054658B151B10B6843B14B6833B11C2211
:104D1000002100F013FC00202C6138BD6FF015005D
:104D2000FBE770470FB407B504A951F8040B0191D4
:104D3000FBF724FD03B05DF804EB04B07047FEE719
:104D40007047012801D1EFF3058300F072BB0146E3
:104D50000068FFF7F6BF08B5FBF73CFDBDE808406B
:104D600000F000B8704700210120FFF7EABF61B6EC
:104D700062B680F31188BFF36F8F7047EFF3118035
:104D8000202383F31288BFF36F8F704708B5FBF7BA
:104D90007BFF002008BD0C220369C9B201FB02336E
:104DA000186C00F00700704770B5C9B20369EFF3E3
:104DB0001185202484F31288BFF36F8F0C2606FB25
:104DC0000134246C14F0C00408D0A24206D085F34C
:104DD0001188BFF36F8F4FF0FF3070BD0122714318
:104DE0000B441A6485F31188BFF36F8F43680B443B
:104DF0005B6898470020F0E78022FFF7D5BFF8B541
:104E0000069F0469C9B2EFF31186202585F3128845
:104E1000BFF36F8F0C2569430C44256C05F0070C1C
:104E2000BCF1010F0BD1276486F31188BFF36F8F9C
:104E3000C4E90E2343685B5898470020F8BD05F08D
:104E4000C005AF4286F31188BFF36F8F0CBF6FF0C0
:104E500077004FF0FF30F1E713B580240094FFF79F
:104E6000CEFF02B010BD6FF08500704710B41C2457
:104E70000069CBB203FB040000215DF8044B10472E
:104E80000020FDF74DB8002000F090BA30B543681F
:104E90001360057A446804EBC504A34202D36FF0A3
:104EA000010030BD5C798C4201D00833F0E700206E
:104EB000F7E743681B68D3F88004C3F880047047A1
:104EC00042681368D3F8100150B10020D2691278FB
:104ED0000A70C3F81001D3F8102101221A6070473C
:104EE0004FF0FF30704702680346D2F8580140B9CE
:104EF0005B68DB0706D4D2F82001003818BF012018
:104F000070470120704743681B68D3F80423D2051B
:104F100017D5D3F82021A2B1EFF31182202181F31C
:104F20001288BFF36F8FD3F8201131B10021C3F87D
:104F30002011D3F820110121D96082F31188BFF329
:104F40006F8FD3F85831704710B504460022012105
:104F50000920FBF70FFE0920FBF7F0FD2046BDE816
:104F60001040FCF7F7B810B50446002201210820D4
:104F7000FBF700FE0820FBF7E1FD2046BDE81040EE
:104F8000FCF7E8B830B589B0154601230A4601465A
:104F9000684600F0DAF8044640B9202269462846FF
:104FA000FBF7A4F9002808BF6FF06404204609B09D
:104FB00030BD2DE9F04190B09DF85C600446884614
:104FC00015461F4601463346402208A800F0BDF8AA
:104FD00038B91022404608A9FBF788F920B96FF0CC
:104FE000640010B0BDE8F081334639466846169A31
:104FF00000F0ABF80028F4D12022334669460DEBCF
:10500000020000F0A2F80028EBD120212B46224616
:105010000DEB010000F01CF8E3E713B50124019447
:10502000049C0094FFF7C5FF02B010BD08B500F066
:105030000DF808B900F068F808BD13B50024019414
:10504000049C0094FFF7B5FF02B010BDFCF7CCB98B
:10505000F0B5144606460F461D46ADB0FCF7B4F950
:10506000334621462A46009703A800F014FA044666
:10507000FCF7B2F9A4F57003A3F676030E2B0DD856
:10508000DFE803F0080C0C0C0C0C0C0C0C0C0808E2
:105090000C080E006FF015002DB0F0BD2046FBE7A8
:1050A0006FF06500F8E72DE9F84F15469A429046F3
:1050B00081468A461E4628BF9846AB46FCF784F9CF
:1050C0000027AF4205D30024FCF786F92046BDE84F
:1050D000F88F0A9B0AEB07013BB108F1030218465F
:1050E00022F0030200F010FA0A9942464846FDF702
:1050F000BFF904460028E7D1ABEB080B5E45B0468C
:10510000374428BFD846DCE7FCF76EB90123FCF72B
:1051100089B938B504460D46FCF756F929462046AC
:10512000FDF7FEF90446FCF757F9A4F57003A3F563
:105130000073052B04D8252222FA03F3DB0701D4E0
:10514000204638BD6FF01500FBE7F0B59FB0044670
:1051500001A80D4616461F46FCF796F950B93B4686
:105160003246294601A8FCF75DF918B9214601A885
:10517000FFF7CFFF1FB0F0BD70B5054608460C46DF
:10518000FCF7A2F92146024601232846BDE87040FB
:10519000FCF700BA0A4600230146FCF7FBB9EFF31F
:1051A0001083012B03D10068BFF34F8F704772B695
:1051B0000068BFF34F8F62B6704710B50C46FCF71E
:1051C000D3FB58B154B1023000F010F94FF6FF7222
:1051D000904203464FF0000003D120806FF015008D
:1051E00010BD2380FCE72DE9F8430D461646FCF779
:1051F000BBFB044600B3FDB1023000F0F7F8002716
:105200008146B8460434BBB2994507D8002406B19C
:1052100034600020A5F80080BDE8F883204600F047
:10522000E5F8C3439BB20137A21C002BEFD0984591
:1052300038BF98461446E6E76FF01500ECE7002209
:10524000FFF7D1BF37B50D4601AA0DF10201FFF7F7
:10525000CAFF044648B9BDF80230AB4208D20198F3
:1052600048B1E94389B200F0B1F8204603B030BD3F
:105270006FF01504F9E76FF00B04F6E703465A6B7D
:1052800000233C309A4200D17047C1680133084482
:10529000F8E7FEF799B908B5FBF796FAFFF750FD66
:1052A000BDE80840FEF790B94FF47F03D3F8300112
:1052B000D3F83431BFF34F8FC0F30B00A0F10903D3
:1052C0005842584170474FF47F02D2F83031D2F83B
:1052D0003401BFF34F8FC3F30B03092B03D1431EDC
:1052E00058425841704700207047004700F086B888
:1052F00040F00040C1F88000C2F880007047F7B568
:105300000646F8B101281BD104224FF480730146F0
:105310004FF050200025C0F80813012142F210740C
:105320004FF050270344024411601D608E421B68F9
:105330008DF8071008BF0DF1070546B1012E23D0E7
:1053400003B0F0BD0C224FF482730221E0E7D7F8DE
:10535000183403F480333DB9002BF1D00120FFF75E
:10536000C5FF013CF3D1EBE7D7F8182402F00302A4
:105370002A70002BE4D09DF807000128E0D1FFF748
:10538000B5FF013CD9D1DBE7D7F80C3403F4803307
:105390003DB9002BD4D00120FFF7A8FF013CF3D189
:1053A000CEE7D7F80C2402F00102E1E7FFF7A7BF30
:1053B0004FF0FF3307B500F00300019301AB184431
:1053C00000F095F8019803B05DF804FB13B50222D4
:1053D000ADF806100DF106010446FFF7E9FF01469E
:1053E00024F00300FCF74AFE02B010BD20F00303D6
:1053F0001B6882070CBF98B2180C704708B1FBF706
:1054000071BC7047704740B1C368587810F0010014
:105410001EBF1878B0FA80F040097047EFF311838F
:10542000202383F31288BFF36F8FFEE708B5FFF7E1
:10543000F5FF10B5EFF31184202383F31288BFF337
:105440006F8FFFF7F3FF84F31188BFF36F8F10BDE9
:1054500010B5D0E9003433B90020E268537843F046
:105460000103537010BD204698470028F4D000284F
:10547000B8BF4042FF28A8BFFF20E3681870ECE7E0
:1054800000F05CB800F033B87047EFF305800038E7
:1054900018BF012070472DE9F041069F04461546CC
:1054A0001E46FCF79BFE38B93B463246294620464D
:1054B000BDE8F041FCF7B8BEBDE8F0810A46002126
:1054C000FDF73EB900F013B800F038B80A460021E5
:1054D00000F034B801EB820204388A4201D1002086
:1054E000704752F8043D1BBA40F8043FF5E70A4400
:1054F000431E914200D1704710B511F8014B914203
:1055000003F8014FF9D110BD884210B501EB020438
:1055100002D98442234607D8431EA14208D011F87D
:10552000012B03F8012FF8E7024401468A4200D11B
:1055300010BD13F8014D02F8014DF7E70244034690
:10554000934200D1704703F8011BF9E70139024487
:1055500010B5904201D1002005E0037811F8014F09
:10556000A34201D0181B10BD0130F2E702460144EE
:1055700010B58A42134603D01C780132002CF8D1B2
:10558000181A10BD2DE9F047C3F1370907468846C0
:1055900003F01F055FFA89F916464FF0000A3846F6
:1055A00041462A465346FAF7CFFE4346D4B23A461E
:1055B00088460746092C84BF4C44E4B2AA4204F151
:1055C000300473EB0A0306F8014BE8D23046BDE81D
:1055D000F0872DE9F04F061889B09946154641EB42
:1055E000010404AB3046DDF84CB021460093A9F12C
:1055F000410AD2E9002300F0A9F806AB0746884625
:10560000304621460093D5E9022300F09FF800229E
:10561000DDE90463841951EB0306069B28BF0122D0
:10562000D5E90001D218079B43F10003381848EB75
:105630000101B84271EB0801E968039138BF01200C
:10564000A96828BF0020CDF800A014EB010C039935
:1056500046EB010110EB0C0041F10001A04271EB9F
:10566000060C34BF4FF0010C4FF0000CCDE90623BF
:105670001CEB020243F1000300F083F8129BC3E924
:105680000001149B012BDDE9062329D1D5E9020194
:10569000D5E900C5201ACDF800A066EB01016745E9
:1056A00078EB050534BF01250025401B61F10001A1
:1056B000844276EB010534BF01250025521B63F1BE
:1056C000000300F05EF8DDE90623CBE90001204687
:1056D0003146CDF800A000F054F809B0BDE8F08FD5
:1056E00017EB070E48EB080C201946EB0601BE45E8
:1056F0007CEB080834BF01270027C71941F10008D7
:10570000D5E9000186457CEB010C34BF0120002067
:10571000D5E90215381A68F1000C401A6CEB050146
:1057200092185B41A74278EB060534BF012500259E
:10573000521943F10003874278EB010834BF012579
:105740000025521BA9F140050095B8E7F0B50F46BA
:105750000446A0FB0201059EA7FB02524919A3FBC8
:105760000445A7FB037342F10002611845F10004F0
:10577000D21943F10003121943F10003C6E90023D3
:10578000F0BDF0B5059CC4F14007C4F12006A4F1BA
:105790002005E04002FA06F6BB4022FA05F5BA40C1
:1057A0003343C4F120062B4301FA06F6A4F1200589
:1057B000304321FA05F5E140284319431043F0BD79
:1057C0002DE9F04357EC106B3B463446FE0F40F298
:1057D000FF77C3F30A55C3F31303067154EA030CAE
:1057E00007D0BD420CD146F0080606710020BDE886
:1057F000F083002D64D0BD425FD146F00406F4E78B
:10580000002D5AD10125A5F2FF35002905605ADB8C
:105810000C295ADCC1F10D050126AD0005F1FF3E52
:10582000A5F1210CC5F1210706FA0CFC26FA07F7B1
:1058300006FA0EF64CEA070CB7194CEB0C09D7F137
:10584000000869EB490E013F49F1FF39274009EA99
:105850000309BE427CEB090910DBC5F12009B5F153
:10586000200724FA05F503FA09F958BF43FA07F7A8
:1058700045EA090558BF3D43ED0703D5A61934464F
:1058800043EB0C0304EA080403EA0E0300F11205DB
:105890000D260846C2F127024FF0300E04F00F012A
:1058A000240906F1FF3C6F1E44EA03741B11B1B9D1
:1058B000B0420CDA66463D46F0E743F48013A2E7B7
:1058C0002C462B46A1E70021E0E70D21DEE785F815
:1058D00000E01CF1010166463D46DFD187E709295A
:1058E000C8BF8918B04201F13001B8BF30462970F5
:1058F000EFE7000088AAFF7F01000000D50C000040
:1059000000000000A10D0000445900009352000067
:1059100000000000674F00006C590000494F000074
:1059200058590000DD0E000000000000B10C00001E
:10593000000000009752000000000000791B0000EA
:1059400000000000A1630000D85E0000885B00003A
:1059500074C500208CC50020C0630000F05E00000C
:10596000A45B000076C50020E0C50020CA630000EB
:105970002C5F0000A45B000078C50020ECC500206F
:1059800000000000674D000000000000674D0000AF
:1059900000000000674D000000000000674D00009F
:1059A00000000000674D0000D11F0000EB52000016
:1059B00000000000674D000000000000674D00007F
:1059C0006C590000074F000058590000074F0000B5
:1059D00000000000674D000000000000674D00005F
:1059E00000000000674D000000000000674D00004F
:1059F00000000000674D000000000000674D00003F
:105A000000000000674D000000000000674D00002E
:105A100000000000674D000000000000674D00001E
:105A200000000000674D000000000000674D00000E
:105A300000000000674D000000000000674D0000FE
:105A400000000000674D000000000000674D0000EE
:105A500000000000674D000000000000674D0000DE
:105A600000000000674D000000000000674D0000CE
:105A700000000000674D000000000000674D0000BE
:105A800000000000674D000000000000674D0000AE
:105A900000000000674D000000000000674D00009E
:105AA00000000000674D000000000000674D00008E
:105AB00000000000674D000000000000674D00007E
:105AC00000000000674D000000000000674D00006E
:105AD00000000000674D000000000000674D00005E
