:020000040000FA
:108000003DB8F396000000000002000004BA000032
:108010000000000000000000000000000000000060
:10802000FFFFFFFFFFFFFFFFFFFFFFFFFFFFFFFF60
:10803000FFFFFFFFFFFFFFFFFFFFFFFFFFFFFFFF50
:10804000FFFFFFFFFFFFFFFFFFFFFFFFFFFFFFFF40
:10805000FFFFFFFFFFFFFFFFFFFFFFFFFFFFFFFF30
:10806000FFFFFFFFFFFFFFFFFFFFFFFFFFFFFFFF20
:10807000FFFFFFFFFFFFFFFFFFFFFFFFFFFFFFFF10
:10808000FFFFFFFFFFFFFFFFFFFFFFFFFFFFFFFF00
:10809000FFFFFFFFFFFFFFFFFFFFFFFFFFFFFFFFF0
:1080A000FFFFFFFFFFFFFFFFFFFFFFFFFFFFFFFFE0
:1080B000FFFFFFFFFFFFFFFFFFFFFFFFFFFFFFFFD0
:1080C000FFFFFFFFFFFFFFFFFFFFFFFFFFFFFFFFC0
:1080D000FFFFFFFFFFFFFFFFFFFFFFFFFFFFFFFFB0
:1080E000FFFFFFFFFFFFFFFFFFFFFFFFFFFFFFFFA0
:1080F000FFFFFFFFFFFFFFFFFFFFFFFFFFFFFFFF90
:10810000FFFFFFFFFFFFFFFFFFFFFFFFFFFFFFFF7F
:10811000FFFFFFFFFFFFFFFFFFFFFFFFFFFFFFFF6F
:10812000FFFFFFFFFFFFFFFFFFFFFFFFFFFFFFFF5F
:10813000FFFFFFFFFFFFFFFFFFFFFFFFFFFFFFFF4F
:10814000FFFFFFFFFFFFFFFFFFFFFFFFFFFFFFFF3F
:10815000FFFFFFFFFFFFFFFFFFFFFFFFFFFFFFFF2F
:10816000FFFFFFFFFFFFFFFFFFFFFFFFFFFFFFFF1F
:10817000FFFFFFFFFFFFFFFFFFFFFFFFFFFFFFFF0F
:10818000FFFFFFFFFFFFFFFFFFFFFFFFFFFFFFFFFF
:10819000FFFFFFFFFFFFFFFFFFFFFFFFFFFFFFFFEF
:1081A000FFFFFFFFFFFFFFFFFFFFFFFFFFFFFFFFDF
:1081B000FFFFFFFFFFFFFFFFFFFFFFFFFFFFFFFFCF
:1081C000FFFFFFFFFFFFFFFFFFFFFFFFFFFFFFFFBF
:1081D000FFFFFFFFFFFFFFFFFFFFFFFFFFFFFFFFAF
:1081E000FFFFFFFFFFFFFFFFFFFFFFFFFFFFFFFF9F
:1081F000FFFFFFFFFFFFFFFFFFFFFFFFFFFFFFFF8F
:10820000D8910020D9BC000069060100C5BC00005F
:10821000C5BC0000C5BC0000C5BC0000C5BC00005A
:1082200000000000000000000000000001BE00008F
:10823000C5BC000000000000A9BD0000C5BC0000D6
:1082400079BF000079BF000079BF000079BF00004E
:1082500079BF000079BF000079BF000079BF00003E
:1082600079BF000079BF000079BF000079BF00002E
:1082700079BF000079BF000079BF000079BF00001E
:1082800079BF000079BF000079BF000079BF00000E
:1082900079BF000079BF000079BF000079BF0000FE
:1082A00079BF000079BF000079BF000079BF0000EE
:1082B00079BF000079BF000079BF000079BF0000DE
:1082C00079BF000079BF000079BF000079BF0000CE
:1082D00079BF000079BF000079BF000079BF0000BE
:1082E00079BF000079BF000079BF000079BF0000AE
:1082F00079BF000079BF000079BF000079BF00009E
:1083000079BF000079BF000079BF000079BF00008D
:1083100079BF000079BF000079BF000079BF00007D
:1083200079BF000079BF000079BF000079BF00006D
:1083300079BF000079BF000079BF000079BF00005D
:1083400079BF0000000000000000000000000000F5
:10835000000000000000000000000000000000001D
:10836000000000000000000000000000000000000D
:1083700000000000000000000000000000000000FD
:1083800000000000000000000000000000000000ED
:1083900000000000000000000000000000000000DD
:1083A00000000000000000000000000000000000CD
:1083B00000000000000000000000000000000000BD
:1083C00000000000000000000000000000000000AD
:1083D000000000000000000000000000000000009D
:1083E000000000000000000000000000000000008D
:1083F000000000000000000000000000000000007D
:10840000DEE61E284CBBCE8F025B00008C00000015
:1084100054B9000002000000008200000082000049
:10842000FFFF0291000000000000000000000000BB
:10843000000000000000000002000000DEE61E2830
:10844000EAAC45B8025B0000280000000310000001
:108450000100000001000000FF000000010000001A
:10846000D8910020DEE61E28EAAC45B8025B000089
:1084700028000000021000000000000001000000C1
:10848000FF00000001000000DC91002053B94AB950
:10849000002908BF00281CBF4FF0FF314FF0FF300C
:1084A00000F00CB8ADF1080C6DE904CE00F008F84E
:1084B000DDF804E0DDE9022304B07047704700BF37
:1084C0002DE9F04786468C460846089E15467446B8
:1084D0001946002B40F0C1808542B2FA82F245D99C
:1084E0004AB1C2F1200300FA02FC954094402EFAF2
:1084F00003F343EA0C0C4FEA154EA8B2230CBCFB65
:10850000FEF80EFB18CC08FB00F943EA0C43994532
:1085100028D9EB1808F1FF3704D2994502D9A8F100
:1085200002072B44A3EB0903A4B2B3FBFEFC0EFB32
:108530001C330CFB00F044EA0344A04214D92C196C
:108540000CF1FF3304D2A04202D9ACF102032C4457
:10855000241A43EA07401EB1D440002334607360FC
:10856000BDE8F0874746DDE76346F1E792BB431B72
:1085700001214FEA154EAFB2200CB3FBFEFC0EFBFF
:108580001C330CFB07F840EA0343984561D9EB180C
:108590000CF1FF3004D2984502D9ACF102002B4413
:1085A000A3EB0803A4B2B3FBFEFC0EFB1C330CFBD5
:1085B00007F744EA0344A7424DD92C190CF1FF33C5
:1085C00004D2A74202D9ACF102032C44E41B43EAD3
:1085D0000040C0E7C2F120039540944020FA03F127
:1085E0002EFA03F34FEA154E9040AFB20343B1FBAE
:1085F000FEFC0EFB1C10190C0CFB07F841EA0041B5
:10860000884522D969180CF1FF3004D2884502D977
:10861000ACF102002944A1EB08019BB2B1FBFEFCC6
:108620000EFB1C110CFB07F743EA01439F420ED9D6
:10863000EB180CF1FF3104D29F4202D9ACF10201D8
:108640002B44DB1B41EA004193E76046E3E76146C8
:10865000F7E76046A4E76346B8E7834206D916B950
:10866000002108467CE7C6E900E0F9E7B3FA83F7A2
:108670008FB9834201D3724508D8BEEB020460EB88
:10868000030301209C461EB9002169E73846FAE73A
:10869000C6E9004CF8E7C7F1200CBB400EFA07F51D
:1086A00022FA0CF42EFA0CF1BA401C4320FA0CF317
:1086B000B8404FEA144901431FFA84FEB3FBF9F8AE
:1086C00009FB18300B0C08FB0EFA43EA00439A45ED
:1086D00040D9E31808F1FF3004D29A4502D9A8F135
:1086E00002002344A3EB0A0389B2B3FBF9F809FBA8
:1086F000183308FB0EFE41EA03418E452CD9611860
:1087000008F1FF3304D28E4502D9A8F102032144B7
:1087100043EA0040A1EB0E01A0FB02984145CE4682
:10872000434602D306D14D4504D20138B9EB020EBF
:1087300068EB0403002EA7D0B5EB0E0261EB03013A
:1087400001FA0CFC22FA07F3F9404CEA0303C6E9EC
:10875000003199E74046C5E74346D9E7F0B5434BBA
:10876000434A87B0C3F800264921C3F8042641488C
:10877000C3F80826C3F80C26C3F81026C3F814263D
:10878000C3F81826C3F81C2607F03AFE07F007FACC
:1087900000F084F878B14FF05023D3F800340BB1D7
:1087A000DB0708D54921344807F02AFE02F0C4FA55
:1087B000324803F0D5F800F0ABFA054603A801F003
:1087C00001F80446284600F0B3FA2D4B1B68A3427B
:1087D00005D045212B4807F013FE07F03AFB49214D
:1087E000059A294807F00CFE039928484B7D0A7D1D
:1087F000C98A0091492107F003FE4921244807F066
:10880000FFFD4FF420314FF4004004F0C1FD044659
:1088100020B145211F4807F0F3FDFEE702A99DF8AE
:10882000100000F05FF8029B059D1D44039B1E890C
:1088300004F096FDAF1901F0D7FB01F0A7FB01F0A2
:10884000C1FB84F30B8884F30A88AB5983F308884F
:1088500084F31488BFF36F8FBFF36F8F7B689847E3
:1088600045210D4807F0CCFDFEE700BF0080015018
:108870003546526E8E2E0100A72E0100D829010028
:1088800008000020CB2E0100EE2E01001D2F01005C
:108890003B2F0100602F0100932F010073B50F4C97
:1088A000204609F01CFDB8B12569A6682B681A217D
:1088B00043F080632B6020463368094A984720467E
:1088C000736801A9984720B92B6801985840C0F3F4
:1088D0008060003818BF012002B070BD642601001E
:1088E00011000100024608B538B1054800234521B2
:1088F00007F086FD6FF0150008BD0860FCE700BFBB
:10890000B62F010021B1012906D06FF01500704784
:10891000044B53F830007047024B03EBC003586818
:10892000704700BFE02901002DE9F04F9B46FDB0E4
:108930007E4B0746DDE987893CA80E4614461D6834
:1089400004F044FDB8F1000F07D0B9F1000F04DDC9
:108950004A4641463CA804F047FD4FF000083389E1
:108960007289D6F80CA013449A44C2453ED80CA98B
:108970003CA804F03FFD899B23B1202218460CA996
:1089800007F0D2FE00232246009331464FF6FF73D4
:1089900006A807F005F9804628BB214638460B9EFD
:1089A00000F0A0F986421ED84FF0FF36DFF880A114
:1089B000DFF880910DF1120304AA05A906A807F0BB
:1089C0003DF900280FDB40F0A680059906A807F0C6
:1089D00081F910BB4FF6FF71BDF81200564A32F80C
:1089E000023B8B4217D1514B1D6898E0869BAAEB46
:1089F0000809994528BF99465A464B4641462046A4
:108A000007F00CFD0028EED14A4659463CA804F078
:108A1000EBFCC844A9E79842E1D1BDF81230102B15
:108A200017D0222B53D0012BC4D1BDF81030202BEE
:108A3000D9D8204605991CAA07F0F0FC0646002864
:108A4000D1D19DF810B0BBF1200F21D94FF0FF36E6
:108A5000B0E7BDF81070202FC5D13B4620460599E0
:108A60001CAA07F0DBFC0028BDD100F051F93A4602
:108A700080461CA90CA800F0E5F80746404600F027
:108A800057F9DAF80030BB42ADD14FF0010891E759
:108A9000D9F80030294F0393039B9E42D6DA3CA8B5
:108AA00004F094FC7A683CA8126857F8081B04F09C
:108AB0009BFC14A93CA804F09DFC5A461CA914A8D0
:108AC00007F00BFE00283FF475AF0136E4E7731C96
:108AD0003FF470AFD9F80030B342B7DDBDF81030C5
:108AE000802B80D8204605991CAA07F097FC002807
:108AF0007FF479AF00F00CF9F6B207462021BDF8FB
:108B000010301CAA00960CA800F01AF8054638464A
:108B100000F00EF99AE7B8F1000F3FF464AF00F0EF
:108B2000FFF828467DB0BDE8F08F00BF04000020AC
:108B300008000020F0290100602E0100F429010046
:108B40002DE9F04796B016461D469DF87820384B23
:108B5000074653F8321003EBC2035B6801911868B3
:108B6000DFF8D0800144302302AA01A8D8F8009091
:108B700007F0CFFA002851D1DDE901431C4421461A
:108B800006AB03AA01A807F0ECFA002846D1049A24
:108B9000072A43D12849059807F09FFD00283DD1B9
:108BA000079A082A3AD12549089807F096FDA8BBEC
:108BB000214602AA01A807F0C0FA78BBDDE901A3AB
:108BC0000AEB0302944229D1412B27D135443023AB
:108BD000294603AA02A8029607F09BFAE0B9DDE94C
:108BE000023213449D4217D32A4602A906A807F071
:108BF0007FF888B92A4602A90EA807F079F858B973
:108C00009AF80030042B07D12021384606AB0AF130
:108C1000010204F0F5FB38B1D8F8009000F080F8BC
:108C2000484616B0BDE8F087054BD3F80090F5E74D
:108C3000F429010004000020E52F0100DC2F0100D1
:108C40000800002070B5094B04461D6800239342BC
:108C500005D1074B1D6800F063F8284670BDE65C3F
:108C6000C85C8642F7D10133F1E700BF0400002061
:108C700008000020094A40000B7852F820108B426F
:108C800009D0013052F82000834214BF4FF0FF306A
:108C90004FF4C06070474FF4C0607047FC2901007A
:108CA0001FB5582303FB0100046A1023A1686A461C
:108CB0002046103907F0B2FB034640B12278452127
:108CC000064807F09DFB0024204604B010BD10228A
:108CD0006846034907F001FDF6E700BFED2F0100EC
:108CE0007E2E010013B508460C4607F032F86A469E
:108CF0000146204606F03AFF30B10448452107F00E
:108D00007FFB002002B010BD0098FBE71930010086
:108D1000024B1868421C1A60704700BFF003002025
:108D2000024A1368013B1360704700BFF003002044
:108D3000034B1B68834201D007F08BB8704700BF1C
:108D4000F0030020034637B54FF40072084693F84D
:108D5000B84013490192620051F82250A8420ED146
:108D6000582101FB043201FB0434526A283401A962
:108D700007F0C6FB08B9019B236003B030BD013288
:108D800051F82220904208D1582101FB043201FB06
:108D90000433126D03F15404E9E70120EDE700BF4D
:108DA0000C2A010070B590F8B850104E6D0056F8BE
:108DB00025100446FFF7C6FF98B9013556F825106F
:108DC0002046FFF7BFFF054668B9582294F8B8302F
:108DD00002FB0343186A07F063FBC4F8B40028469B
:108DE00070BD0125FBE70925F9E700BF0C2A01004A
:108DF0002DE9F04F4FF02C095825044609FB01F9E5
:108E000090F8B8A085B005FB0A9303441E6A0F468C
:108E10003046904607F04BFB94F8B83015FB0395AD
:108E200025446B1E033513F8012F82422ED19D423B
:108E3000F9D1F7B13146204607F075F898F80730B8
:108E4000042B10D1582294F8B830204602FB03437B
:108E5000196A07F068F860B9492194F8B8203148D8
:108E600007F0CEFA05E094F8B80004F09BFB042864
:108E7000E8D02D4B1C68FFF753FF204605B0BDE836
:108E8000F08F2A4B1C683DE0294A47E058212C22EC
:108E900001FB0AF302FB0733E5182869C206C8D4B0
:108EA000E258244B9A42ECD1EA682B899B18E8D20D
:108EB0006A89D218E5D2B3689A42E2D240F60C6BC6
:108EC00010EA0B0BDDD1FFF723FF0546FFF720FF6C
:108ED00058214FF480730AFB0191804621443246A9
:108EE00000932046144BCDE902BBCDF804B0FFF748
:108EF0001BFD04464046FFF71BFFFFF711FF284606
:108F0000FFF716FF0D4B1B68A342B4D0002FBBD058
:108F1000B2680021304607F0ABFA094A45210948FA
:108F20009EE700BF66300100000000200400002022
:108F3000543001003DB8F3969255002008000020FF
:108F40005C300100A530010073B50D4600210446D8
:108F500090F8B8202846CDE9001106F0D5FF58B3A7
:108F600058235A43234EA358B34203D1204601AAA3
:108F700006F017FF582294F8B83002FB0343DB6A6F
:108F8000B34204D16A460121204606F00AFFDDE91A
:108F90000032934288BF0193019BAB6094F8B860A4
:108FA000154B9B5DBBB1012E1AD12046294600F01E
:108FB0009FFF304601F09CFA11462046FFF770FEF5
:108FC000064605F1080106F0CFFEAB683046019376
:108FD00007F023FAE2E729462046019A00F072FEE4
:108FE000064B1A68002A03DD5721054807F008FAE6
:108FF00002B070BD3DB8F39694560020C0480020E2
:10900000CD3001007FB51B4B90F8B82006460D46C9
:1090100013F8320001A901F0ADFC40BB019806F045
:1090200098FED6F8B4100446284606F0ECFF044437
:10903000019807F035FA0646019807F038FA082239
:1090400001460DEB020007F07AFB2B7921468DF8E3
:1090500008300198334602AA07F0F5F9041E01987A
:1090600018BF012407F0D9F9204604B070BD0124CF
:10907000FAE700BF0C2A01002DE9F84F8846914617
:109080009A460026DFF868B01A4C1B4D0B9B9E4297
:1090900001D300200FE00B9B40469F1BB7F5806F6C
:1090A00028BF4FF48067124A3B4606EB0A0107F0DF
:1090B000B5F910B10120BDE8F88F0A993B465A4630
:1090C0004846711807F0BFF90028F3D1C4F80056DC
:1090D0003E44C4F80456C4F80856C4F80C56C4F804
:1090E0001056C4F81456C4F81856C4F81C56CDE7E8
:1090F000F4030020008001503546526E2DE9F04FF8
:109100004FF0000B04460D4695B0DFF89892DFF85B
:1091100098A2CDF808B0BBF1010F84F8B8B029D9F6
:109120000026A24F17F8011B012918D13046FFF77E
:10913000E9FB0EA9C0B201F01DFC0346002840F077
:10914000E9810E981946826807F092F903460028D3
:1091500040F0E08132464521954807F051F9002E54
:1091600000F0D681029B002B00F0408200212C27CA
:109170005826DBE104EB0B0292F8B960002E46D1D1
:109180004FF0580808FB0B4109EB0B324A6202F51D
:1091900000520A6531465846FFF7B4FB202394F885
:1091A000B810074618FB01312C2303FB0611C0B28F
:1091B000214401F0DFFB48B15B463A464521CDE949
:1091C00000607C4807F01CF906F043FE01277EB1E1
:1091D0002046FFF7E7FD064660B90022204611460B
:1091E00006F068FEC8B1572194F8B820724831E003
:1091F0003E46CFE74FF400725721704807F000F960
:1092000094F8B830012E234483F8B070E5D194F877
:10921000B83001335FFA83FB7DE7204606F008FF94
:10922000002807DD012294F8B8300AF833200AEB51
:10923000C3035860204606F0F9FE68B10AA806F09C
:109240005AFE0146204600F03FFB60B1572194F8DA
:10925000B8205B4807F0D4F8012294F8B8302344D2
:1092600083F8B020D3E70AA806F04EFE80F0010193
:109270000AAA2046C9B206F01DFE02460028B2D155
:109280000AA806F041FE039000284CD194F8B830AB
:109290005BBB20460AA9FFF757FE94F8B8009DF87B
:1092A0002F30221882F8B030033B012B08D800F091
:1092B00065FB28B1FF2294F8B830234483F8B0202E
:1092C0009DF82F3094F8B800023B022B1ED800F016
:1092D0003FFBD8B1FF2294F8B830234483F8B02084
:1092E0004521384807F08CF8FEE794F8B020042AAE
:1092F00004BF012284F8B020012BCAD094F8B13009
:10930000042BC6D1012384F8B130C2E794F8B830F9
:10931000234493F8B030FF2BE2D0002220461146C0
:1093200006F0C8FD98E79DF82FB0BBF1010F40F0A3
:10933000D580582194F8B830234F0792FA5401FB96
:109340000343224AD96AD3F84C80914278D1998E4E
:109350000423404607AA194407F060F8C0B34FF051
:10936000050894F8B830234483F8B08094F8B830F6
:1093700073B1E21892F8B020012A3FF448AF042AF2
:109380000DD094F8B020042A02D1012284F8B02034
:10939000234493F8B030023B022B3FF638AF039BD7
:1093A000029334E7F4070020F4470020925600208F
:1093B00019320100FC3001008B31010049310100FC
:1093C000B7310100E1310100945600203DB8F39619
:1093D00094F8B800AE4E012851D1327802B93070FD
:1093E000325C0AB9012232540021FFF78BFA0EA930
:1093F000C0B201F0BFFA83460028B0D10799A1F5A9
:10940000E032B2F5A03F40D894F8B8204FF0010800
:10941000002AA6D007F802800E9A5268B2F5004FD3
:1094200002D0B2F5E03F03D1012194F8B820B9543D
:1094300094F8B8200221012A4CD131700221B15494
:1094400094F8B80004F0AEF8831E022B804688D84A
:10945000FFF75EFC012107460AAA2046FFF7C8FC79
:1094600083463846FFF764FC8A4B1B689B453FF4F4
:1094700078AF894B1B689B457FF471AF27E072780A
:10948000024308BF86F801B0AAE7A1F50042B2F591
:10949000A03F14D84521814806F0B2FF5946D8F8BC
:1094A0000820404606F0E4FF452194F8B8207C48A7
:1094B00086F800B086F801B006F0A2FF4FE70E98DC
:1094C0004268914203D3806802449142A4D94FF08C
:1094D000010846E7002AB1D17170AFE7FFF718FC29
:1094E000012107460AAA2046FFF782FC804638463B
:1094F000FFF71EFC674B1B68984518BF052294F8C0
:10950000B83008BF9DF82F20234483F8B0202DE702
:10951000012607E632464521624806F071FF1EE645
:10952000631893F8B92032B10131C9B2012984F826
:10953000B810F5D95AE093F8B0300EA803F0FB0349
:10954000013B18BF01237B4306FB013216FB0131AF
:1095500001232244D2F82080214400934246402334
:1095600006F01EFB002878D100230DF1160206A993
:109570000EA806F063FB002838DB6BD1BDF816306F
:109580000C2B6CD14046069907AA06F047FF68BB32
:109590009DF81C30012B29D8E21892F8B0207343B3
:1095A000023A022A8CBF0022012207FB0233234425
:1095B000197D9DF820209142D6D80AD3597D9DF877
:1095C00021209142D0D804D3DA8ABDF822309A42C1
:1095D000CAD294F8B830234493F8B020012A37D087
:1095E000023A012A02D8012283F8B0200022FF2685
:1095F000012A84F8B82037D90023264EDFF8A88046
:10960000254F0E93012B84F8B83040F284800E9BD6
:10961000022B01D006F01DFC94F8B930002B40F06D
:10962000C480582606FB034284F8B830106A06F05E
:109630009BFA287194F8B83006FB03431B6A5B68F9
:10964000AB6094F8B83003FB06462E60114B7EE009
:109650000422C9E794F8B81066E70328C6D140F29F
:109660000113A4F8B030C1E7A11891F8B930002B6C
:109670004CD10AA806F03FFC91F8B030042B8DF8CD
:109680002F3013D8012B17D833D081F8B06030E0D9
:10969000925600200800002000000020ED3101005B
:1096A000193201004432010004000020052BECD1E6
:1096B000104600F063F912E020460AA9FFF744FCC7
:1096C00094F8B800231893F8B030DA1E012A0ED8A7
:1096D00000F054F920B994F8B80000F039F940B11D
:1096E000FF2294F8B830234483F8B02001E0022B25
:1096F000F1D094F8B830234493F8B030FF2B05D163
:1097000045212E4806F07CFE06F0A3FB94F8B82015
:109710000132D2B26CE7234493F8B9208DF81C20B3
:109720009DF81C1001F0FF0239B10E9B01330E931E
:1097300094F8B8300133DBB264E793F8B030012B12
:1097400007D01146204606F0B5FB10B11C4B1D6832
:109750001BE094F8B830012BE7D0FFF7D9FA0022CC
:10976000824611462046FFF743FB81465046FFF7ED
:10977000DFFA3368994506D1D8F80030994502D010
:109780003B689945D1D1D8F80050102200210AA891
:1097900006F0D5FF204606F06FFBFFF7C1FA28461A
:1097A00015B0BDE8F08F01233BE794F8BA30002BE9
:1097B000F9D0022384F8B83048E700BFE131010056
:1097C0000400002070B50B4E0446BC220021304638
:1097D00006F0B5FFFFF79CFA214605463046FFF735
:1097E0008DFC04462846FFF7A3FAFFF799FA2046B6
:1097F00070BD00BF044800202DE9F8432E4F3B7890
:1098000033BB3C7A24BB2D4DDFF8B480012C85F8A6
:10981000B84015D8582606FB045208EB0433002143
:109820005362204603F500531365FFF76BF895F874
:10983000B810C0B206FB0151203101F09BF850B1C5
:109840001E4806F019FBBC2200211C4806F077FFD9
:109850001948BDE8F88301212046FFF753F895F831
:10986000B810C0B206FB01514C3101F083F800285A
:10987000E6D195F8B860DFF84C907600284659F8A4
:109880002610FFF75FFA88B9013659F826100B4801
:10989000FFF758FA50B9094806F0CAFB0028C1BFC3
:1098A000012307F8343007EBC404606095F8B84032
:1098B0000134E4B2AAE700BFF447002004480020C6
:1098C000F40700200C2A010073B50D46064600F08F
:1098D0003FF90446E86078B3022832D196F8B82000
:1098E0001A4B01A913F8320001F044F858BB2A467C
:1098F0003146019800F0C4F80446D0B9019807F049
:10990000D2FE012301460DF10302019806F086FD07
:109910000446A0B9012201980DF1030107F0D7FE1A
:1099200010B101238DF803309DF8033003F00F03CD
:10993000EB71019806F071FD204602B070BD012464
:10994000F7E70724F8E70124F6E700BF1C2A010027
:1099500013B5094B01A913F8300001F00BF848B911
:10996000019807F04BFF0446019806F056FD20468B
:1099700002B010BD0124FAE71C2A01001FB50F4BED
:1099800001A913F8300000F0F5FFA8B9019802A969
:1099900003F0B2FD044668B99DF80B30032B03D1E8
:1099A000019807F0F9FE0446019806F036FD2046BE
:1099B00004B010BD0124F7E70124F8E71C2A0100D8
:1099C0002DE9F34105460C4617461E460BB900210A
:1099D00027E0184606F098FA0028F8D1284695F8AE
:1099E000B810FFF75DF918B9012002B0BDE8F081A9
:1099F00001A906F0B9F90028F6D10199284606F028
:109A0000F3FA582295F8B83002FB03535B6A5968A1
:109A10007379012B1DD1002CD9D13368834298BFB3
:109A20000021582295F8B83053432C2202FB04330E
:109A30001D443A462023286A06F0F0FC0028D3D1C2
:109A4000002ED2D038680D4BC01A18BF4FF0FF302F
:109A5000CBE7022BBBD13368012B05D98342B6D8A3
:109A6000B4FA84F46409B2E7B1D1002CD9D0012C46
:109A7000ADD13479023C18BF0124A8E73DB8F39674
:109A80002DE9F04F0C460746014685B094F8B80022
:109A90001646FFF7EFF8051E53DB3846D4F8B440FE
:109AA00006F057F95FFA84F94FF0000A4FF0010B06
:109AB0004FF0FF346B1E09FB0308A5B9BAF1010F83
:109AC00003DD4521214806F09BFC631C07D0B4F55B
:109AD000007F2ADA40F2011301343460B380284653
:109AE00005B0BDE8F08F6B1E009341460123384658
:109AF0000DF10F0206F092FC031E019323DB0122FD
:109B000038460DF10F0107F0E2FD019B40B15B45C6
:109B100001D00AF1010A9B46009DA8EB0908CCE799
:109B2000B4F1FF3F08BF2C46F5E70223A4F500740B
:109B30007371631004F00104013301343360347134
:109B4000CDE70725CBE70125C9E700BF7B32010040
:109B5000582330B590F8B85089B003FB050304468C
:109B600004A9186A03F0C8FC9DF81020012A43D00C
:109B7000264B2749032A08BF0B469DF8132049218D
:109B800002929DF81220234801929DF81120009224
:109B9000214A06F035FC582303FB054406A9E06C76
:109BA00003F0AAFC9DF81820012A27D0174B18496A
:109BB000032A08BF0B469DF81B20492102929DF8FD
:109BC0001A20144801929DF819200092134A06F0B9
:109BD00017FC9DF81030012B12D19DF81230032B89
:109BE0000ED19DF81830012B0AD00D48492106F0FE
:109BF00007FC022009B030BD0A4BBEE7094BDAE78B
:109C00000948492106F0FCFB0020F3E79E320100E1
:109C1000A7320100BB320100AD320100FC3201006D
:109C20000C330100A23201002B33010070B54B68E8
:109C300014461E4A03F0FF23934206460D4686B0A3
:109C40002FD10B68012B2CD1204604A903F054FC22
:109C50009DF81020012A26D0154B1649032A08BF6B
:109C60000B469DF81320492102929DF812201248BC
:109C700001929DF811200092104A06F0C1FB9DF858
:109C80001030032B0DD12146304606F04CF920460A
:109C900007F082FD2046A96806F074F8204603F01C
:109CA0000BFC06B070BD064BDBE700BF00010004F3
:109CB0009E320100A7320100BB320100FC320100DC
:109CC000A23201002DE9F04F04461646582789B00C
:109CD0000D468248492106F093FB3146204606F0A6
:109CE00083F994F8B830834607FB03435B6A284640
:109CF0005E6806F009F910B3D4F8B40006F024F851
:109D000094F8B83007FB03439F6A0023013F3344B4
:109D1000984201D9013FFAE7BB4510D3572170485B
:109D200006F06EFB07FB06F357210BFB06626D483E
:109D300006F066FB0123EB7109B0BDE8F08F94F8E3
:109D4000B830DFF8A4815F0018F8330006A90137A6
:109D500000F010FE07A918F8270000F00BFE2946B6
:109D60002046079AFFF762FF6B79012B50D15F46BF
:109D7000DFF878A146E02A68C2F101035B449F4204
:109D80003FD8582194F8B830012A01FB03435B6A9D
:109D9000196853F8370003EBC70353F8083CA0EBEE
:109DA0000109A3EB0103049311D1079B0393EB6813
:109DB000022B08D04146204606F0B5F82A46414617
:109DC000204606F0EDF82046039906F0ACF832463E
:109DD0004946404606F0A5F8049B424641462046C7
:109DE000CDE90096FFF748F929462046FFF70AF922
:109DF0002B6801332B6020B1DAF800300133CAF848
:109E00000030013FDDF81880002FB4D101232B6012
:109E1000022301276B71BB45DDF8189006D2484636
:109E200006F0FBFA079806F0F8FA85E72B689F42E0
:109E300052D3582394F8B820DDF81CA003FB02424B
:109E4000516AFB0051F83700126D04900868083B16
:109E5000C9580390D0581368A0EB03082B79012B45
:109E600038D1039B3246C91A4846059106F059F885
:109E7000059943464A460091204651460196FFF710
:109E8000FBF829462046FFF7BDF802232B7118B1D5
:109E9000164A13680133136032464146504606F0B5
:109EA00040F8DDE9032349469B1A20465246CDE996
:109EB0000086FFF7E1F829462046FFF7A3F82B6854
:109EC00001332B6001232B7130B1084A1368013331
:109ED000136001E0022BDFD001379CE74233010021
:109EE0006B3301009A3301002C2A0100C048002086
:109EF0007FB5044649211E4806F082FA5822002503
:109F000094F8B83002A902FB03431B6D07205E687A
:109F100000F030FD94F8B820164B03A903EBC20300
:109F2000187900F027FD02980021826805F0F9FFFA
:109F3000029A039993682046019300952B46FFF7F8
:109F40009BF80399204605F0EEFFDDE902309A68A0
:109F5000836832449A4228BF1A46294605F0E1FF39
:109F6000029806F05AFA039806F057FA04B070BD4A
:109F7000CB3301003C2A01000A4619B1024B0021F3
:109F80001B681847704700BF0C000020BFF36F8F9D
:109F900072B600234FF0FF30094A03F1200101336C
:109FA000102B42F82100F8D100234FF0FF30044A73
:109FB00003F160010133102B42F82100F8D1704702
:109FC00000E100E0002318460649D1F89020C2F3D2
:109FD0000722934200DB7047C1F89830C1F8A00017
:109FE0000133F6E700ED00E02DE9F8434FF0FF35CF
:109FF00001274FF00008204BDFF880905F60C3F826
:10A000004853C3F8085303F580535F60C3F84853BF
:10A01000C3F8085359F8044B002644F30730C4F83A
:10A02000085301F00DFF80226760C4F84C61D4F83A
:10A030004C31C4F81061D4F81031C4F84461314691
:10A04000D4F84431A018C4F8006506F078FB8022EB
:10A05000314604F5C07006F072FBB8F1000F08D06D
:10A06000074BC3F808554FF05023C3F80853BDE819
:10A07000F8834FF00108CDE700400150502A01005D
:10A0800000700150014B1B68184700BF10000020F2
:10A0900007B50B46002102460091034800F006F880
:10A0A00003B05DF804FB00BF85A000002DE9F04F70
:10A0B00082464FF000098DB01D46531E0191039357
:10A0C000039B58785C1C252819D100204FF0FF38DD
:10A0D0001E464446034602360290317803963929DB
:10A0E00055D81F2914D8002900F0EF8101992520A7
:10A0F000D04701993078D04709F10209E0E70028FC
:10A1000000F0E3810199D04709F101090394D7E7F1
:10A11000A1F12002192AE9D801A757F822F000BFBF
:10A1200089A10000EDA00000EDA0000089A10000C1
:10A13000EDA0000009A20000EDA00000EDA00000CD
:10A14000EDA00000EDA0000055A2000089A10000D4
:10A15000EDA0000069A2000015A20000EDA0000023
:10A1600023A2000043A2000043A2000043A200007B
:10A1700043A2000043A2000043A2000043A200004B
:10A1800043A2000043A2000008460136A5E7582973
:10A1900000F0EB80A1F16302D7B2172FA6D8172ADF
:10A1A000A4D801A757F822F011A400008FA2000044
:10A1B000EDA00000EDA00000EDA000006FA20000E7
:10A1C0008FA20000EDA00000EDA000006FA2000033
:10A1D000EDA00000EDA00000EDA0000045A30000F0
:10A1E000EDA00000EDA00000E5A30000EDA0000040
:10A1F0008FA20000EDA00000EDA0000045A300002C
:10A20000EDA000006FA2000025200199D04709F1C0
:10A21000010955E7029A4FF0000802F0FE0202928F
:10A22000B3E7002C0DDAB8F1000F0DDA029A002A1C
:10A2300000F043810A2224EAE47402FB0414303C57
:10A24000A3E7B8F1000FF5DB0A2202FB0812A2F126
:10A2500030089AE7B8F1000F55F8042B80F22F81EF
:10A26000002A80F22E815442022202928DE7682950
:10A2700003D1682B06D1482387E76C2902D16C2BC8
:10A2800000F02181002B7FF431AF0B467DE77A2B64
:10A2900006D1752955F8046B14D14FF0000B0CE072
:10A2A0006C2BF6D04C2BF4D1073525F0070375291C
:10A2B00003F10805D3E9006B06D120283BD1854F77
:10A2C000013C09E04FEAE67BBBF1000FF5DA76428C
:10A2D000814F6BEB4B0B013C0DF12D0305930023DC
:10A2E0000493304659460A220023FEF7CFF8059B17
:10A2F000B446303203F8012D5A460593049BBCF155
:10A300000A0F8B4672F1000203F1FF3106460491F9
:10A31000E7D2C3F1010B30330DEB0306B8F1000FA8
:10A32000A6F104066DDA029BD9077DD4A8EB0B03D6
:10A33000A4EB0B0413E02B280ABF684F684F04F10D
:10A34000FF34C9E770290FD155F8042B0023FAB95F
:10A350006FF004034FF0050B614F624E053C029A0B
:10A36000920770D4A04666E078216C2B03D10023BD
:10A3700055F8042B08E04C2BF9D1073525F00703DD
:10A380001D465B6855F8082B232825D1880621D562
:10A39000554F023C002601F06001A1F1390B0DF18F
:10A3A0002D0E02F00F01092988BF594430310EF8F3
:10A3B000011D102A4FEA121141EA03714FEA131CE2
:10A3C00073F1000306F1FF3008D2C6F1010B06F16C
:10A3D0003003A1E7454FDCE7414FDBE706460A467D
:10A3E0006346DEE755F8046B304606F06FF9B8F1C6
:10A3F000000F834602DB4045A8BFC3464FF000086C
:10A40000374FA8EB0B03002B92DDA4EB0804A6E763
:10A4100055F8043B4FF0010B8DF81830304F4FF0DA
:10A42000FF33013C06AE9AE7A046EAE702932020FC
:10A430000199D047029BB8F10108F7D524EAE472EC
:10A44000013C9144A41AB84606E004930292019993
:10A45000D047029A049B9046424612F8010B00280E
:10A46000F3D11A46013A15D5002BACBFC7EB030751
:10A470007F425B46013B15D5BBF1000FA8BF5F448F
:10A4800026464F44013E14D5002CA8BF3F1907EBC8
:10A49000080915E60493029230200199D047049BE5
:10A4A000029ADFE70293019916F8010BD047029B4D
:10A4B000E0E701992020D047E4E70122D5E6904665
:10A4C00063E6144661E64C235FE648460DB0BDE8FE
:10A4D000F08F00BF513401004F34010053340100AC
:10A4E000183001005B34010055340100583401007C
:10A4F000044608B5EFF31183202383F31288BFF3DA
:10A500006F8F02F02DFF204601F074FD024805F028
:10A5100088FE06F0BFF8FCE7613401002DE9F04346
:10A52000079D15B91560002012E00324B5FBF4F473
:10A5300004EB4407BD4218BF0134B4F1804F09D287
:10A54000A40001348C4200D838B96FF00B001460BD
:10A55000BDE8F0834FF0FF34F7E704460021DFF851
:10A56000B4E0B94203F1030C04F104062BD3A94271
:10A57000274623D201F1010CAC451F7828BF0023E8
:10A5800024494FEAA70E38BF5B7811F80EE0AC45BE
:10A5900084F800E001EB131E2EBF3D239B0003F067
:10A5A0003C034FEA071738BFCB5C07F030071EF8B3
:10A5B0000770A3703D2367703746E3700023381A95
:10A5C00010603B70AFE71CF8034C1CF8023C4FEAEC
:10A5D000A4091EF8099024011CF8018C04F0300431
:10A5E00006F8049C0EEB131919F804409B0006F8BA
:10A5F000034C03F03C030EEB9814E35C08F03F08B7
:10A6000006F8023C1EF80830344606F8013C0331D7
:10A610006346A6E70A3501002DE9F04300273C46D2
:10A620003D46DDF81CE0DFF8288175451FD3E4BB0B
:10A6300000201460BDE8F0830136764533D013F86E
:10A6400006C0BCF1200FF7D0AEEB0609B9F1010F3F
:10A65000A6EB05050DD0BCF10D0F0AD103EB0609E1
:10A6600099F80190B9F10A0F6ED1751CDDE72E46FD
:10A67000E3E7BCF10A0FF8D02DB9BCF13D0F05D1CD
:10A680000137022F0DD96FF01500D3E71CF0800FB2
:10A69000F9D118F80C507F2DF5D03F2D01D8002F9F
:10A6A000F1D10134E1E73546C1E74FF0060C04F083
:10A6B0000706E4080CFB06F60CFB04F40736E41B63
:10A6C00004EBD60470B18C420CD800270146032657
:10A6D0003C46DFF87CE0DFF87C801D449D4205D1DC
:10A6E0000C1AA5E76FF00B001460A3E713F8019BA9
:10A6F000A9F10A0C5FFA8CFCBCF1160F04D848FAD9
:10A700000CFC1CF0010FE9D01EF809C00134BCF1AB
:10A71000400F08BF013E0CF03F0C042C4CEA871799
:10A72000DCD17EB13C0C012E0C7002D10131002431
:10A73000D4E7022E4FEA17244C7016BF8F700231F7
:10A740000331F4E73446C9E7002DA2D09BE700BFF0
:10A750008A340100F6FFBFFF2DE9F047058B044660
:10A760002807904611D4022905F0070540F0CC8057
:10A77000204605F06DFD78B10138218B042811D8F1
:10A78000DFE800F0C2106D85950001290CBF45F08F
:10A79000100545F02005258388F31188BFF36F8FDE
:10A7A000BDE8F08701F0070AAA4500F0A580002760
:10A7B000B9463E46A368002B00F0BC8041F008017A
:10A7C000218388F31188BFF36F8FA168002900F0FF
:10A7D000BA800D68002900F0B68033465246204604
:10A7E000D1F80480C047002D76D02B6829461D463D
:10A7F000F0E701F007035A1F012A1BD8002221F0BD
:10A800000701062B276889B2C4E9002209D13B461B
:10A8100003E0628B013262831B68002BF9D141F0A7
:10A8200002012046218305F013FD00287AD041F073
:10A83000200176E0042B0AD121F0070189B22046DD
:10A84000218305F005FD10B141F020012183218B0A
:10A8500001F0070AAA454FD00027B946AAE72369A5
:10A8600021F0070141F00601062DD3F80090218365
:10A870002DD1B9F1000F3FD041F00801218388F3B9
:10A880001188BFF36F8F20463949C84729E021F06E
:10A890000701236941F0040189B2042DD3F8049023
:10A8A0002183E6D000274FF0040A3E4682E721F0DC
:10A8B0000701236941F0050189B2052DD3F80890FD
:10A8C0002183D6D000274FF0050A3E4672E70027C5
:10A8D0004FF0060A3E466DE72B4687E7B9F1000FB9
:10A8E000D1D1EFF31188202383F31288BFF36F8F48
:10A8F000238B23F008032383258BEA062ED525F02E
:10A900001003238305F007056669218B002EBFF62F
:10A9100070AF00232768C4E9003321F0070141F03C
:10A9200001012183218B4FF0000901F0070AAA459C
:10A930007FF440AF002F9CD041F00801218388F3C1
:10A940001188BFF36F8F002FC8D03D68394633465A
:10A950005246204605F0A8FC2F46F4E7AB067FF5EB
:10A960001BAF25F02003238305F0070500E700BF98
:10A97000D502010070B5104B0D461C68B4B10F4BE9
:10A98000196800238B4202DB6FF0010070BD224684
:10A9900012F8106B864202D014460133F2E7E068E9
:10A9A00007F09DFC28B100202C60EFE76FF00C0051
:10A9B000ECE76FF01200E9E714000020582A0100CC
:10A9C00010B5436888B0029383680C46CDE9033222
:10A9D00000230A68C068CDE90623054901AA05934A
:10A9E00005F085FF079808B9059B236008B010BDE6
:10A9F000BD04010008B5054805F013FC044805F046
:10AA000010FCBDE80840034805F00BBC4A350100C6
:10AA100082350100B5350100014804F0EDBE00BFEC
:10AA2000CC2B010038B5044618B90F4B0F485B68B2
:10AA300098476168B1F5683F10D0B1F5680F0DD047
:10AA40000B4DA9420AD011F46861206807D0014675
:10AA5000084807F09FFC00232360656038BD14227E
:10AA600005F06DFEF9E700BF6C010020E335010041
:10AA70002C5F5CA9C44D002008B500B34368B3F552
:10AA8000683F0CD101220368D3E8EF1F002903D1EE
:10AA9000C3E8E02F0028F7D10DD1002008BD094AF6
:10AAA00093420AD000684FF0FF324FF0FF3304F0BA
:10AAB00023F80028F1D00448F0E70448EEE76FF4EB
:10AAC000E040EBE72C5F5CA9E98FFFFFEA8FFFFF17
:10AAD00008B5B8B14368B3F5683F0CD100220368EC
:10AAE000D3E8EF1F012903D1C3E8E02F0028F7D1F5
:10AAF0000BD1002008BD074A934208D0006804F03B
:10AB000073F8F6E76FF4E040F4E70348F2E7034830
:10AB1000F0E700BF2C5F5CA9E98FFFFFEA8FFFFF22
:10AB200010B5044618B91D4B1D485B68984763680B
:10AB3000B3F5683F2FD0B3F5680F2CD0194A934274
:10AB400019D1236803BB4FF0FF324FF0FF3321468A
:10AB5000154803F0A3FF08B923681BB90F4B13482E
:10AB60005B68984714220021206805F0E8FD4FF447
:10AB70006863636008E0B3F5683F0DD83A2B03D0F3
:10AB800040F6BA629342DED1206807F04DFC63685C
:10AB900043F03A03636010BD054AF3E76C010020FF
:10ABA000E33501002C5F5CA9C44D0020093601008B
:10ABB0003A00003A08B5064940231422054807F038
:10ABC000DBFBBDE808400449044804F087BE00BF31
:10ABD000C4480020C44D0020D42B0100E82B010004
:10ABE000F7B5254E30688368DB6B03B19847306852
:10ABF0008368DB6A002B31D1204C214D306883689B
:10AC00001B69002B2DD001220DF107019847012867
:10AC100027D1236843B92B682BB369681A688B4224
:10AC20002A6000D16A602360164A9DF807001188E7
:10AC30007F2904D823684F1C0B44178018720A28F8
:10AC4000DCD1002023681188186059600E494D68D6
:10AC500075B9C1E9003310802060CEE7984700281D
:10AC6000CAD103B0F0BD4521084805F0C9FBF8E79B
:10AC70002B604B60EFE700BF38520020E04D002012
:10AC8000F04D002090550020E84D002036360100A0
:10AC900010B5044B044618688368E1B25B689847B6
:10ACA000204610BD38520020F8B505461646084625
:10ACB000EFF31187202383F31288BFF36F8F1B49B3
:10ACC0000B684BB11A4C62689A4205D000221A6098
:10ACD000626862B9C4E90033164A136853B987F34E
:10ACE0001188BFF36F8F18460B603360F8BD136097
:10ACF0006360F1E7D2F804C01C686345146008BFC4
:10AD0000546087F31188BFF36F8F5C680B60A042BB
:10AD1000D8BF00F1FF3403F108012246284605F0B0
:10AD200003FD0023601C2B550123DEE7E44D0020CA
:10AD3000F04D0020E84D0020002313B51C462049AB
:10AD4000204AC1E90033C2E900331F4A4868146051
:10AD500020BBC1E900220133082B02F18802F5D1A2
:10AD60001A4C1B48206007F0BAFA28B320688368A1
:10AD700023B11B6C13B100221649984720688368E1
:10AD8000DB6A0BB1984760B1206883681B69002BB0
:10AD9000FAD001220DF107019847F4E702604A60FA
:10ADA000D9E700220C4B20681A8083681B6A03B124
:10ADB0009847002002B010BD4FF0FF30FAE700BF07
:10ADC000F04D0020E84D0020F84D002038520020C2
:10ADD0008C260100E1AB00009055002041F20443B5
:10ADE0002DE9F043ADF21C4DADF8083040F60613E6
:10ADF0000025ADF80C30DFF81091444BD9F8001065
:10AE00001B68434E4D70A3EB06080B7828465A1C6E
:10AE100062F302030B7098FA98F34B808B88082238
:10AE20005BBA8B8005F0E7F931464246ADF8100079
:10AE300005F0E1F902271FFA88F440BA04F10A0389
:10AE40005BBA0222ADF810000DF1120106A8ADF8B0
:10AE5000123005F069FC0822D9F800100DF11A0033
:10AE6000ADF8127005F060FCBDF8120006AB0830BA
:10AE700080B231464246ADF81200184405F054FC49
:10AE8000BDF812303A461C44A0B22C4606ABADF8D1
:10AE9000120004A9184405F047FCBDF8123040F236
:10AEA00049213B449BB2ADF81230009305AA06AB92
:10AEB00073A8FFF733FB059B164E174FADF8123002
:10AEC000BDF81230A34203DC0DF21C4DBDE8F08347
:10AED000336802215B68A4B903A89847BDF81250F3
:10AEE00033682D1B7C2DA8BF7C2573AA1019294619
:10AEF0005B6898473368012138465B682C44984763
:10AF0000DEE702A8E9E700BF9C520020545200206F
:10AF100096560020A05200201730010038B5054693
:10AF20000A4C0A21204607F0A4F9022220460849CB
:10AF300007F092F92946204607F06BF920460A21CE
:10AF400007F09FF9BDE83840FFF748BF5452002092
:10AF50007436010073B583680C469A420646114662
:10AF600013D2944213DC6A4604F000FE68B9DDE9AE
:10AF700000351D442A1B2146304605F079FA024669
:10AF800040B14521044805F03BFA6FF01504204616
:10AF900002B070BD2C46FAE7773601002DE9F04784
:10AFA0004FF0FF34D4B00B4605940694079401216A
:10AFB00000240AAD0246C5E9004430A80091CDE95D
:10AFC000014404210894099406F017FE402221460A
:10AFD00020A805F0B4FB8B4B03211C93052304220E
:10AFE0001D93894B0DF11809CDE91E39874B88480F
:10AFF0002193884B05AFCDE92335874B07AE2693C8
:10B00000864BCDE92B01CDE92836CDE92D372791A7
:10B0100009AB1CA930A8229205F0CAFA20B3032478
:10B020000A217F4807F025F97E4902227C4807F073
:10B0300013F921467A4807F0ECF84CB97449032219
:10B04000774807F009F9784B7548196807F0EBF86D
:10B050000A21734807F015F9FFF7C0FE089805F0BC
:10B06000DCF954B0BDE8F0873B68D5E900845A1C90
:10B07000D5D0B8F1000FD2D06C4A33B9D9F800104E
:10B08000B1F1FF3F18BF0B461360106804F05FFD7D
:10B0900008A9C0B2FFF76EFC0028C0D13B68624D22
:10B0A000002B4BD1089F2B603846D7F8089004F04E
:10B0B00050FE5F4A0146384604F058FD28B145214C
:10B0C0005C4805F09DF90124AAE733684B45A6D8F2
:10B0D000594A1060594A13602A68574E2244316811
:10B0E0000898013AFFF736FF0028306097DB089890
:10B0F00005F0D6F9B4FBF0F303FB1046DFF83C9102
:10B100002B68A71B1C44D9F8003008989C4238BF14
:10B11000002605F0C5F9012806D9089805F0C0F900
:10B12000013818EA000F4AD13B4642462968089880
:10B1300005F089F900287FF472AF2FE02A68934266
:10B1400001D000246CE73D4A234412689342C3D9DE
:10B1500065E7BA45089828BFBA4605F0A8F9402225
:10B1600001460CA805F0EBFA524641460CA805F042
:10B17000DBFA5346296808980CAA05F064F90446DE
:10B1800000287FF44DAF2B68D04453442B60A7EBCD
:10B190000A07089805F084F9B842DAD996B92B68FD
:10B1A000D9F8002033443B4493422B60C9D1204B53
:10B1B00008981A681146FFF7CDFEC40F30E74FF02C
:10B1C000400AE6E7089805F072F9082201460CA843
:10B1D00005F0B5FA324608EB07010CA805F0A4FA11
:10B1E000DDF82080296840467C1805F059F9214691
:10B1F00003460CAA404605F026F900287FF40FAF5D
:10B20000CDE700BF06330100E91E010099360100B9
:10B21000A2360100F31E01009E360100EF1E010060
:10B2200054520020743601004C520020505200202D
:10B230004452002019300100405200203C520020AE
:10B24000F0B50C68164F85B002380D46C4F5806124
:10B250000090144B381903AA0131FFF7DDF90446B9
:10B26000D0B92B68039A1344022B2B6011D93E8866
:10B27000023B76BAB6B29E420BD13246B91C04F0FC
:10B28000BAFF30B9022E04D92B689A1E2A60FC54EA
:10B290000124204605B0F0BD4FF0FF34F9E700BFB0
:10B2A0003F580020425C00202DE9F04F0121A9B059
:10B2B0009F4806F0DEFF06229E499D4806F0CCFF1F
:10B2C00005219B4806F0D1FF4FF00009484602F0E7
:10B2D00069F900268046DFF860B2984B314648464F
:10B2E0001D68FDF70FFB07A9C0B2FFF743FB04463B
:10B2F00020BB202301460DEB0302079805F08EF8D2
:10B30000089B8F4A934211D1FDF702FD4023074667
:10B31000079A009308A918AB2046CDE9024401948E
:10B32000FDF702FB05463846FDF702FDDBF800306D
:10B330000799AB4217D0084605F06FF88EB1B9F106
:10B34000000F0CD005217A4806F097FF01217848BC
:10B3500006F097FFFFF742FD29B0BDE8F08FB14638
:10B36000B4E70126B9E710AA08A805F0F4F8824668
:10B37000079805F052F814216D4806F07AFF05226F
:10B3800070496B4806F068FF4946694806F04BFF74
:10B39000B8F1010F0C9C09D104F01005002E53D018
:10B3A000002D72D12F462C462B4653E0B8F1020FE8
:10B3B00004F0100411D1002E3AD1002C00F0A68028
:10B3C00000252F462C4609225F49594806F044FFC4
:10B3D0000121574806F069FF49E0B8F1030F10D189
:10B3E000002EEAD0002C00F09780584907225048E0
:10B3F00006F032FF01214E4806F057FF092254495A
:10B400001AE0B8F1040F0FD1002ED6D135463746D9
:10B41000002C7ED006224F49454806F01DFF012131
:10B42000434806F042FF24E0002C2ED12546B9E720
:10B43000002C75D0072245493D4806F00DFF01213B
:10B440003B4806F032FF20E0002D6CD135463746F0
:10B4500044460123082240493548059306F0FCFE86
:10B460000121334806F021FF059B002BABD1002CB6
:10B47000D0D147B1354907222D4806F0EDFE012114
:10B480002B4806F012FF002DB8D134490422284879
:10B4900006F0E2FE3146264806F0C5FEBAF1000F7E
:10B4A00009D104222E49224806F0D6FE2022204847
:10B4B00010A906F0C8FE07222A491D4806F0CCFE56
:10B4C000BDF83630402101939DF83530264A00936F
:10B4D00018A89DF8343000F061FD0E9B4BB1421E60
:10B4E0003E2A06D818ACC0F14001204A204400F0A2
:10B4F00055FD18A805F0EAF818A902460C4806F010
:10B50000ABFE14210A4806F0BCFE17E72546274685
:10B510009FE7012433469DE7012523462F4699E7FF
:10B52000254601273FE73546374644464BE700BFEF
:10B5300054520020A636010008000020040000201C
:10B540003DB8F39606330100BE360100AD3601006A
:10B55000CF360100C8360100B5360100D9360100EA
:10B56000DE360100E3360100EB360100F73601005C
:10B570002DE9F0430B4600240121D9B008AFC7E9FB
:10B5800000448DF817400246CDE90144009134A8EB
:10B590000421069406F031FB214618221EA805F06E
:10B5A000CEF8454B0DF117081A9307231B93434B15
:10B5B0000222CDE91C38424B1AA91F930423209381
:10B5C000404B34A8CDE9213706AB04F0F1FF044627
:10B5D00000286FD17B68202B6CD1DFF8EC90012123
:10B5E0002046FDF78FF907A90646C0B2FFF7C2F95A
:10B5F000054600B332464521344804F001FFC4B18A
:10B600004521334804F0FCFE05240A21314806F0A8
:10B6100030FE022230492F4806F01EFE21462D48FA
:10B6200006F0F7FD0A212B4806F02BFEFFF7D6FBAC
:10B6300026E00124D3E72023014612AA079804F04C
:10B64000EDFE129B4B451ED007990AAA12A804F0E2
:10B6500082FF0546079804F0E0FE002DCFD120229E
:10B6600039680AA805F039F80028C8D1204698F8AA
:10B67000001002F017F804460028C6D1FFF714FEA8
:10B6800059B0BDE8F083FDF743FB40230646CDE902
:10B690000255079A0195009312A924AB2846FDF79D
:10B6A00043F905463046FDF743FB0C4B1B68AB42A4
:10B6B000CAD0A4E70324A8E7FB3601009F1F0100BE
:10B6C000DE360100F31E01003DB8F396033701009A
:10B6D0002837010054520020743601000800002071
:10B6E000002307B502210093044A4FF4D4730448A1
:10B6F00006F0E6FD03B05DF804FB00BF965600209F
:10B700005452002007292DE9F74F044640F2FB80F0
:10B71000037813F0050F40F0F6804388A1F1080587
:10B720005BBA9BB2AB42C0F0EE80834B186083885B
:10B730005BBA8380FFF7D4FFA088012840F0E68041
:10B74000E37904F10800012B12D0062B16D0002B50
:10B7500040F0EC8023785A0704D103B0BDE8F04FE5
:10B76000FFF7A2BD294603B0BDE8F04FFFF700BFC9
:10B77000294603B0BDE8F04FFFF710BC23785B0704
:10B7800002D00820FFF7CAFBFEF736F80121074672
:10B790006A4806F06EFD06226949684806F05CFDBD
:10B7A0000221664806F061FD0025DFF8989104212A
:10B7B000624806F05EFD002847D0052262495F48D6
:10B7C00006F04AFD002840D029465C4806F02BFDD3
:10B7D00000283AD005225D49584806F03DFDA0B347
:10B7E0000221564806F041FD78B30026534CDFF89D
:10B7F00060A1DFF860B122E004225146204606F045
:10B800002BFD10B33146204606F00DFDE8B1314660
:10B810002846FDF777F801A9C0B2FFF7ABF88046DC
:10B82000C8B102224946204606F016FD68B14146DD
:10B83000204606F0EEFC40B1002E43D10126032144
:10B84000204606F016FD0028D6D1FFF749FF02205A
:10B85000FFF764FB55E004225946204606F0FCFC45
:10B8600090B1019B2046996806F0DDFC60B10F2283
:10B870002046394906F0F0FC30B106EB4501204680
:10B88000013106F0D0FC18B9019804F0C6FDDCE7E0
:10B89000019804F0C2FD0321204606F0F2FC0028C6
:10B8A000D3D0002ECAD00221244806F0E6FC00289E
:10B8B000CBD017F8353043B90421204806F0E1FC1D
:10B8C0000028C2D08DB9012571E70E2223491B48FB
:10B8D00006F0C2FC0028B8D03B1D53F835101748BD
:10B8E00006F0A1FC0028E7D1AFE70221134806F0DB
:10B8F000C4FC0028A9D00121104806F0C2FC002891
:10B90000A3D0FFF76BFA03B0BDE8F08F70B9E3790D
:10B91000012B0CD0052B09D1FFF700FB4FF4005091
:10B92000002106F004FE0120FEF7E2FD082003B02E
:10B93000BDE8F04FFFF7F2BA9C52002054520020AD
:10B94000A6360100743601000633010054370100A9
:10B95000D9360100743701005A3701006A370100F7
:10B9600001232DE9F34100240546264FDFF8988096
:10B970003B70264B264E009418603B7813B902B0FA
:10B98000BDE8F081234BC4F58061C3F80086C3F89D
:10B990000486C3F80886C3F80C86C3F81086C3F87B
:10B9A0001486C3F81886C3F81C862B6801AA0131D7
:10B9B000301998470028019B01DC002BDDD004449E
:10B9C0002BB940F201439C42D7D10024D5E733780C
:10B9D000062B09D17378092B0BD1002300936946FC
:10B9E000A01EFFF72DFC04E0042B02D17378142B6A
:10B9F000F5D00128E9D1009907480239FFF782FE06
:10BA0000E3E700BF3E5800203546526EA0520020AA
:10BA1000405C0020008001504158002030BFFFF7FB
:10BA2000FDBF00BF074A936893F90E10002907DB9A
:10BA3000526993421FBF044A536843F080535360D6
:10BA4000704700BF8853002000ED00E0154B9A6A54
:10BA500012F0007F9A6A14BF1E201D2012F0807F12
:10BA60009A6A18BF1F2012F4801F9A6A18BF02201A
:10BA700012F4002F9A6A18BF212012F4802F9A6ABC
:10BA800018BF222012F4003F9A6A18BF232012F434
:10BA9000803F9A6A18BF24206FEA02426FEA12427E
:10BAA0009A62704700ED00E010B5194B0246986AA3
:10BAB0009C6A10F4805F14BF1720162014F4006FE6
:10BAC0009C6A18BF1820A40509D5986B986A0004D1
:10BAD00004D51AB19A6A22F400429A6219200C4BDA
:10BAE0009A6A12F4806F9A6A18BF1A20D2050CD491
:10BAF0009B6A13F4005F18BF1C20054A936A43F445
:10BB00007F43936200230B7010BD1B20F5E700BF3D
:10BB100000ED00E010B51C4B0246986A9C6A10F0DC
:10BB2000100F14BF1120102014F0080F9C6A18BFCA
:10BB30001220A40709D5586B986A000604D51AB1DB
:10BB40009A6A22F080029A6213200F4B9A6A12F0CE
:10BB5000010F9A6A18BF142012F0200F9A6A18BFBA
:10BB60001520D40658BF9B6A074B9A6A920642BFBB
:10BB70005A6A22F400525A629A6A42F0FF029A62AA
:10BB800000230B7010BD00BF00ED00E070B5444B0A
:10BB900006465B6800258AB0C3F3080385F3118865
:10BBA000BFF36F8F02F07F40B0F17F4F11D102F0F1
:10BBB0000C0008280DD010074CBF0E4601250022AE
:10BBC000033B8DF80720032B05D8DFE803F01E5C4C
:10BBD00060592E46F3E700249DF807309BB92022D8
:10BBE000314602A804F0A0FD099B002D53D0C3F3F9
:10BBF000080222B96FEA53236FEA432309932046D0
:10BC000002A904F027FD0AB070BD254BDA6A91073E
:10BC1000E1D4DA6A002ADEDBDA6A5200DBD55A693F
:10BC2000B16942F480725A61BFF34F8FBFF36F8FD7
:10BC30005A6931F8021C22F480725A61BFF34F8FA7
:10BC4000BFF36F8F4DF60272914209D09A6AD2B259
:10BC500042B101200DF10701FFF75CFF0446BBE78D
:10BC60003468B9E79A6A12F47F4F05D001200DF1CC
:10BC70000701FFF719FFF1E79B6AB3F5803FAAD3ED
:10BC8000FFF7E4FEEAE700200DF10701E4E70020FA
:10BC90000DF10701EDE723F4FF7323F00103ADE796
:10BCA00000ED00E0064B5A6942F010025A615A69F1
:10BCB00042F480625A615A6922F008025A61704760
:10BCC00000ED00E0EFF30880EFF3098101B5724663
:10BCD000FFF75CFF01BD00BF002080F31488BFF3B5
:10BCE0006F8F002080F30A8880F30B880F4880F361
:10BCF000088801F031FD00200D490860BFF34F8F27
:10BD000000F01AF8202080F311880A484FF40061EF
:10BD1000401880F30988EFF314800221084380F370
:10BD20001488BFF36F8F00F0C3F80000D891002093
:10BD300094ED00E09860002072B6002383F313882E
:10BD40004FF0FF300C4A03F120010133102B42F871
:10BD50002100F8D100234FF0FF30074A03F16001C2
:10BD60000133102B42F82100F8D162B6BFF34F8F98
:10BD7000BFF36F8F704700BF00E100E0084B9B6886
:10BD800083420BD1EFF3058343B1064B5A6842F06F
:10BD900080525A605A6A22F400425A6203F0A0BAF2
:10BDA0008853002000ED00E013498A684FF030000E
:10BDB0001044EFF3098C80E8F01F202080F31288F4
:10BDC000BFF36F8F0D4F4FF000664A698A603E6087
:10BDD000506F0023536780F3118802F1300090E820
:10BDE000F01F8CF3098802F1000004B504F047FC51
:10BDF000BDE80440704700008853002004ED00E0D7
:10BE00001EF0040F0CBFEFF30880EFF30980816987
:10BE100011F8021C0229FFD001B5724604F020FC83
:10BE200001BD00BF40B2002807DB01234109034ADE
:10BE300000F01F00834042F82130704700E100E02D
:10BE400040B200280CDB01220649430900F01F0024
:10BE50008240203341F82320BFF34F8FBFF36F8F11
:10BE6000704700BF00E100E0054B420953F8222073
:10BE7000012300F01F0003FA00F01040704700BFDC
:10BE800000E100E040B2002801F10101ACBF00F187
:10BE90006040064B4FEA4111C9B2ABBF00F56140AB
:10BEA00000F00F0080F800131954704714ED00E003
:10BEB0000B4A08B50B4B22F07F029A60BFF34F8FFD
:10BEC000BFF36F8FD3F8882022F47002C3F8882064
:10BED00002F028FD03F012FB00F042F802F062FDD0
:10BEE0000082000000ED00E042F8203C009B0B497E
:10BEF00042F81C3C019B21F0010142F8183C029BD6
:10BF000042F8081C42F8143C4FF0807342F8043C9D
:10BF10000023203A02654367704700BF3D020100DD
:10BF200000B5094B0E4698601546436E83F30B88A7
:10BF30002C4686F309880020044B984720460021B0
:10BF400000220023024C204788530020870601006E
:10BF50003D0201001022014B1A61704700ED00E024
:10BF6000002320210348C2180133412B82F800131B
:10BF7000F9D1704700E100E008B5EFF30583064A08
:10BF8000103B02EBC30152F8330049688847BDE813
:10BF90000840FFF747BD00BFDC2601000CB410B518
:10BFA00086B009B90DF10B000024CDE9040109ABFD
:10BFB000089A009404A905480393FEF777F8049BB8
:10BFC0001C7006B0BDE8104002B070475107010078
:10BFD0000122024B0020C3F8402570470090035017
:10BFE00020B1034B800143F001031847704700BFA5
:10BFF000D0290100BFF34F8F0549064BCA6802F4F0
:10C00000E0621343CB60BFF34F8F00BFFDE700BF7B
:10C0100000ED00E00400FA05084B70B5C31A0D46A8
:10C0200007499B10044659434022064804F0A6FBEA
:10C030002B4601462046BDE870401847B852002004
:10C04000B76DDBB650260100402373B50B4C00934F
:10C05000041B0B460D460A49A41061430646094AD3
:10C06000094804F0B6FB011E05DA30462B4602B043
:10C07000BDE87040184702B070BD00BFB852002044
:10C08000B76DDBB63B0801005026010010B5EFF399
:10C090001184202383F31288BFF36F8F074A13683C
:10C0A00023F00201DB07116002D4012005F06EFCD1
:10C0B00084F31188BFF36F8F10BD00BF08530020B9
:10C0C00070B50022012104460520FFF7DBFE0F4872
:10C0D00001F068FC0E4B984215D101F073FC266903
:10C0E0000C49304604F003F900280BDB01253564C8
:10C0F0002469084904F11C0004F0F9F8002801DB68
:10C100000020E56470BD6FF00400FBE711C2000081
:10C110000000AD0BF82B01001FB500220123CDE973
:10C1200002236B46084ACDF800D0CDF804D004F0C5
:10C130007DFB002805DB4FF480420023684602F0B7
:10C14000D7FD05B05DF804FB590801000C22104B27
:10C15000014602FB0033002030B4D3E90E5298634D
:10C16000EFF31180202484F31288BFF36F8F1C6CCF
:10C1700004F0C00444F002041C6480F31188BFF38F
:10C180006F8F1DB12B4630BC0248184730BC70473A
:10C19000B85200205026010010B4EFF31182202382
:10C1A00083F31288BFF36F8F1748016841F00204D0
:10C1B0000460C80707D482F31188BFF36F8F012092
:10C1C00010BC01F013BC4FF05021D1F80C04D1F891
:10C1D0000C14C907EFD5EFF3118083F31288BFF376
:10C1E0006F8F0A490B6C03F0C00343F002030B642A
:10C1F00080F31188BFF36F8F82F31188BFF36F8FC5
:10C20000002010BCFFF7A2BF08530020B852002046
:10C2100010B1012804D07047034B1B6C5B0701D1A0
:10C22000FFF794BF704700BFB85200202DE9F041DE
:10C23000012207463649D1E8EF3FC1E8E02F002848
:10C24000F9D133B9334934484B60CB608A6004F08C
:10C2500061F87B1E012B2BD8012F07D14FF0502303
:10C26000D3F81C3403F00303022B21D006F0EFF8BF
:10C270000546F8B9294B1B78E3B14FF05023022251
:10C280000646C3F808234FF05024DFF89480D4F812
:10C290001824D4F81834D20315D503F00303022B65
:10C2A00001D0012F0FD16DB386F31188BFF36F8FCB
:10C2B000BDE8F081EFF31186202383F31288BFF3EA
:10C2C0006F8F0125DFE7C5B1304604F0F0F9D4F8EF
:10C2D0001835DBB2012BDAD1D4F80421002AD6D0EC
:10C2E0000022C4F80421D4F804210222C4F818253D
:10C2F0002022C8F88021A360C9E70021212006F090
:10C3000016F9E4E74FF050230222C3F80423CFE7E5
:10C31000B4520020A4520020D45200209560002086
:10C3200000E100E0C3780F2B14D9C96B0B480B0E4A
:10C3300013708B0200EA911003F47C030906034397
:10C3400001F0FE4110680B43054901400B430020FA
:10C35000136070476FF08500704700BF00FF030057
:10C36000FF000080024B0B6001231360704700BF89
:10C370000C530020004870471C2C010010B501220E
:10C380000648114606F057F805F067FB044C20609C
:10C3900005F060FB6060002010BD00BF145300205A
:10C3A0000C53002070B50C46154605F053FB29468A
:10C3B0000646204604F0D0FA08B3B4FBF6F306FBB9
:10C3C0001343E3B9B5FBF6F306FB1353BBB9AE4217
:10C3D00001D9002070BD4FF0FF324FF0FF33094804
:10C3E00002F086FC05F036FB0646204601F026FFEB
:10C3F000AD1B3444F9D1034802F046FCE9E76FF085
:10C400001500E7E714530020F8B50E4619463046EC
:10C4100017461C4604F0A0FA08B346EA040515F0D6
:10C4200003051CD1A4B14FF0FF324FF0FF330D488C
:10C4300002F05EFC24F00304A54206EB050009D1DE
:10C44000094AD2F80034DB07FBD5064802F01CFC91
:10C450000020F8BD795901F00FFF0435ECE76FF0CB
:10C460001500F6E714530020009003500048704771
:10C470009C2C010038B545682B69B3B110352846AE
:10C4800001F0B8FD044680B90146284601F080FD60
:10C49000084B98420BD122462846074901F060FD1F
:10C4A000224605210D20FFF7EDFC002038BD6FF07E
:10C4B0000400FBE70000AD0BBDC40000430970B5EC
:10C4C00007D10B4B596821B101250C68094E8540F5
:10C4D00001B970BD8A682A4002D030464B6898473F
:10C4E0001CB1236821461C46F2E72346FAE700BF49
:10C4F00044530020642601002DE9F04340F2063544
:10C500004668D00648BF0320337B02EA050558BFC2
:10C51000C2F3401087B001F01F07B5F5837F1446C2
:10C5200047EA43178DF8030042D00FD8062D18D0E4
:10C5300007D8B5B1022D3DD06FF0150007B0BDE8AA
:10C54000F083B5F5807FF7D101250AE040F20222A1
:10C55000954231D0B5F5407F30D0B5F5007FEBD1B5
:10C5600002250123220303FA01F129D5736899609A
:10C57000326952BB07F01F037F0973D13B4A84F431
:10C58000803102EB8302D2F80032C1F30041C4F3E0
:10C59000404423F4E16344EA410423F007031C43CD
:10C5A00044EA800444EA0524C2F800420020C5E7BA
:10C5B0000725D6E70425D4E70525D2E70325D0E7EC
:10C5C000630344BF7368D960D2E7103639463046FA
:10C5D0000DF1020201F0CAFC14F4403F80460CD178
:10C5E0003946304605F02CFA214B9845DED13046CD
:10C5F0009DF8021001F008FDD8E74FF0000901ABEB
:10C600003946304603AACDE90439CDE90199CDF880
:10C610000C9001F07FFB164B98428DD114F400333F
:10C6200015D09DF8033084F48034C4F300448DF8B1
:10C630000E3039464B46304603AA8DF80C508DF823
:10C640000D4001F015FC0A4B9842CDD074E7CDE9BE
:10C65000043339460DF10303304603AA039301F076
:10C6600059FBF0E7803352F82330FFDE0025845079
:10C670000000AD0BF0B5406801F01F04057B87B0EA
:10C6800044EA45140569002D5FD0B2F5001F00F1A2
:10C69000100506D12146284605F0D4F9002007B040
:10C6A000F0BD0027B2F5800F01AE0197776037D15A
:10C6B000B3F1007F14BF052304238DF80430002359
:10C6C000CDE904630393836823FA01F111F00101BA
:10C6D00018D1B2F1A07F15D104F01F03620903F154
:10C6E000800338D11D4A52F82330DB070AD40DF1FC
:10C6F000030632462146284601F038FC184B984282
:10C7000019D002962146284603AA01F003FB154BD7
:10C7100098421DD101222146284601F081FCBDE747
:10C72000B3F1C06F05D0B3F1007F14BF0123022322
:10C73000C3E70323C1E73146284601F06BFC094BF0
:10C740009842DED06FF00B00A9E76FF08500A6E7F6
:10C750006FF01500A3E751F82330FFDE0025845069
:10C760000400AD0B0000AD0B2DE9F04740F2FF16C1
:10C77000594FDFF868C1DFF868E100EB81018142C1
:10C7800002D10020BDE8F087046814F4804FC4F3A0
:10C79000C325C4F3080340F08C80240EB34208BFC5
:10C7A0004FF0FF337D5D192C00F28680DFE804F046
:10C7B0000D13191C1F251C84848484366084848492
:10C7C00084848484848463787B7EC2F80C355C1C0A
:10C7D0005BD10430D3E7C2F814355C1CF9D00024D7
:10C7E0005CE0C2F80835F2E7C2F81035F5E75C1CEA
:10C7F000C2F80835EDD0002404E05C1CC2F80C350A
:10C80000E7D001245FEA531859D14FF00109DFF84E
:10C81000CC8009FA03FAC8F80CA008E0C2F8083581
:10C82000002DDAD15C1CD4D000240625A146D0F816
:10C8300000A00AF40048B8F1000F1CBF4FF0000937
:10C84000012403F01F085B093FD10CEB8808D8F8DE
:10C850000032CAF3412A03EA0E0343EA8A0343EA99
:10C86000052343EA090343EA4403C8F80032B0E76A
:10C87000C2F80C35D4E7C2F86035B3F1FF3F046865
:10C88000A7D0C4F30044002CBBD05C091AD101240A
:10C89000DFF8488004FA03F9C8F80890A146C6E713
:10C8A000C2F86435E9E7C2F86835E6E7C2F86C35E6
:10C8B000E3E76FF0150065E76FF0850062E700239E
:10C8C000DB60FFDE00239B60FBE7002308F18008AC
:10C8D00053F82830F5E700BFC03701000025845029
:10C8E000F0F8FCFF2DE9F04104460D46476805F0DD
:10C8F000AEFD4FF0200888B9264B1B7873B1642633
:10C90000606804F0AFFCF0B9012004F0DFFF013EE5
:10C91000F6D10021212005F00AFEF0E7EFF31186A1
:10C92000314688F31288BFF36F8F606804F09AFC79
:10C93000A8B986F31188BFF36F8FEFE786F31188EC
:10C94000BFF36F8FE5E7EFF31186314688F3128866
:10C95000BFF36F8F606804F085FC0028EED0BB69E0
:10C9600000201D706368BA691B68C3F84425012262
:10C97000C3F84825C3F82001D3F82041C3F8580173
:10C98000D3F858019A6081F31188BFF36F8FBDE827
:10C99000F08100BF95600020F7B505464268136935
:10C9A0001168C1F82435137D507D927D03431343F4
:10C9B000C1F86C356E68D6E9004313F0010348D026
:10C9C0002F6907F10C0000F0E7FF304B98425AD175
:10C9D000387B04F10C0204F5907104F079FF387B88
:10C9E000012707FA00F000F0D1FF0823C4F8003552
:10C9F000B369C4F844350023C4F84835A760D4F8B7
:10CA00005831002BFBD00021C4F800156B6801AA37
:10CA1000DC68204604F06FFB002805DB019B2268E0
:10CA200019791868FFF7A0FE08216A681368C3F82F
:10CA30000015117A51B9D269C3F834250122C3F81F
:10CA40003825C3F81011D3F810111A60002003B074
:10CA5000F0BD0822C4F80025B269C4F84425C4F822
:10CA600048350123A360D4F82031002BFBD00023EC
:10CA7000C4F82031D4F820310123E3604FF48073EF
:10CA8000C4F80433BBE76FF00400E0E70000AD0B2F
:10CA90002DE9FF4105690646D0F80480A86C2B6D8E
:10CAA000002835D1002B53D0B8F830406A6C9C4236
:10CAB00028BF1C46EF6CEB6C53B1296D41B107F0F8
:10CAC0006041B1F1005F03D0082C28BF08246F6ECD
:10CAD00000926A6CAC651AB1AA6C002A18BF224693
:10CAE000CDE901271BB12B6D002B18BF2346002277
:10CAF00069464046039301F077FD184B984229D0D0
:10CB00006FF00401304604B0BDE8F04104F03BBDD5
:10CB1000696CEF6C0A46B8F83040ABB1834228BF6D
:10CB200003469C4228BF1C460029C4D001F0604344
:10CB3000B3F1005FBFD0082C28BF0824286E22461E
:10CB400003F0F2FD2A6EB6E7844228BF0446EBE705
:10CB50001946D7E704B0BDE8F08100BF0000AD0B77
:10CB60002DE9F04F8DB001934368884602938B887E
:10CB700005469904914604692DD44FF0FF324FF0D9
:10CB8000FF3304F1100002F0B3F8C4F80480D5F8C4
:10CB900004B0D5F810A0DBF8083003939AF85D30A4
:10CBA00023B1DAF80030984500F09D80B8F804E031
:10CBB0001EF4006F16D06FF0850623689B8813F46F
:10CBC000005304D1636004F1100002F05DF83046B8
:10CBD0000DB0BDE8F08FA369002BCED163689845F6
:10CBE000CBD1D4E71EF0090F02D06FF01506E4E7B1
:10CBF000CEF34513082BF8D1D8F800C08B4B9C45D9
:10CC0000F3D904AE0BF10C070FCF0FC697E80F0056
:10CC100086E80F00039B634528BF63469C46844B10
:10CC20009C4511D2834B9C4546D8834B9C4545D8A7
:10CC3000824B9C4544D8824B9C4543D88149824BCA
:10CC4000824A8C4588BF13461EF0020F09930EF0EE
:10CC5000040339D0002B14BF032302238DF828309E
:10CC6000CEF300138DF82930DBF800301EF0020FF0
:10CC7000D3F8082576484FF00103CEF340014FEA80
:10CC8000521625D1002E40F0CB809340C3609AF815
:10CC90005D302BB1584601F06BFC00238AF85D3003
:10CCA0002B4658466B4A04A901F02EFC6A4B984269
:10CCB00014D06FF0040680E7684BC5E7684BC3E704
:10CCC000684BC1E7684BBFE7003B18BF0123C5E7CE
:10CCD000002E40F0A78093408360D8E70123CAF874
:10CCE00000808AF85D30012384F85C30029B996BE8
:10CCF0004A1C03D003F13C0000F0E8F8B9F1000F42
:10CD000068D1C4F834900023A36304F1480204F10D
:10CD1000380104F1340004F061FB019B6064002BD6
:10CD200060D1E3630023236404F1500204F1400165
:10CD300004F13C0004F052FB002601213246E0647D
:10CD40002663204604F081FB2846FFF7A1FE324609
:10CD50003346A06B83424DD100231946266CB14265
:10CD60004FD1934238BF134627464FF4FA524FF043
:10CD7000000802FB03F657F8203B4FF4004C1B68F9
:10CD80004146B6FBF3F640F2E730C8364FF47A720C
:10CD90000023E6FB0C01FBF779FB02460B46384605
:10CDA00001F0A6FF024618B9266B16F1740F2FD1B9
:10CDB0000298C4F8588001F0DBFB6FF0730128463D
:10CDC00084F85D8004F0DFFB384601F0B7FF6FF0B8
:10CDD0007306F2E6D9F800306363002B93D0D9F8DC
:10CDE000043091E7019B1B68E363002B9AD0019B01
:10CDF0005B6898E7616B01EBC301496801330A4442
:10CE0000A8E7E06B00EBC100406801310344A6E7EE
:10CE1000002E3FF4D2AE0146286904F016FBCCE6A2
:10CE2000C960FFDE00239B60FBE700BF47E801000D
:10CE300000127A00FF083D007F841E003F420F0071
:10CE40001FA107008FD0030048E8010090D0030025
:10CE500000258450A91501000000AD0B00093D001C
:10CE600080841E0040420F0020A107000123F0B57E
:10CE700087B08DF80230022300248DF804306B4413
:10CE800003930F4601AB0DF1030104930546029194
:10CE9000059401F0BFF80C4B064698420FD1394675
:10CEA000284603AA00F036FFB0420BD028469DF872
:10CEB000031001F0A9F86FF0040007B0F0BD6FF0A7
:10CEC0001200FAE72046F8E70000AD0B2DE9F0412B
:10CED0000D46064604F0B8FD0022074629463046B6
:10CEE00001F09EF86B0905F01F0429D1174B03EBE5
:10CEF0008404D4F80022164B134043F00C03C4F80A
:10CF0000003204F0B6FB80463368DB597BB1002762
:10CF10003046294604F096FDD4F800220C4B3846E2
:10CF2000134043F00403C4F80032BDE8F08104F07C
:10CF3000A0FBA0EB08000628E6D96FF07307E7E72F
:10CF40000023803453F82430FFDE00BF00258450D6
:10CF5000F0F8FCFF0123834070B5DC430B4AD2E8B4
:10CF6000EF1F01EA0405C2E8E65F002EF7D14FF497
:10CF7000803282400648C0F80823BFF35F8FBFF3BA
:10CF80006F8F0B4214BF0120002070BD545300204E
:10CF90000050015070B40E4922F07F46D1E90034B0
:10CFA000D01AC31844F10004C1E90034A6F50013F7
:10CFB000B3F5400F09D2074B1B681A0A1B069C19D0
:10CFC000054B42F10005C3E9004570BC02F056BBB9
:10CFD000400200205853002048020020D9B101230C
:10CFE0000D4A8340D2E8EFCF4CEA030CC2E8E1CF10
:10CFF0000029F7D14FF48033084A8340C2F8043344
:10D00000074BD3E8AF3FC340DB0742BF4FF40012EA
:10D01000044BC3F8002170475453002000500150C6
:10D020005053002000E100E00D4B1868010A000693
:10D03000BFF35F8F0B4BD3F80435181841F1000193
:10D04000B3F5801F0AD2084BD3E90023904271EB5D
:10D05000030303D210F1807041F10001704700BF5B
:10D060005853002000500150480200202DE9F04F95
:10D0700085B016461F4604469DF840A0FFF76AFF9C
:10D080000190FFF7D1FFB04271EB070352D23B4B47
:10D09000301A67EB0101984271F100014DD2384B13
:10D0A00003EB0413D3E902239F4208BF964258D0F2
:10D0B0004FF48038334908FA04F8204626F07F4BB5
:10D0C000C1F8488304F0C9FA4FF00309584604F147
:10D0D0005005AD00ADB205F1502504F5A87305F576
:10D0E00080350293029A20F07F4341F82230C1F844
:10D0F0004483D1F80435244AC01A033820F07F4015
:10D1000090422ED9286868B1D1F80435A3EB0B0002
:10D1100020F07F40B0F5000F039322D9204604F0A1
:10D120009CFA039BBAF1000F07D109EB030009F148
:10D130000109D7E7BAF1000F09D06FF015052046B5
:10D140000199FFF74BFF284605B0BDE8F08F01239A
:10D150000E4AA340D2E8EF0F1843C2E8E10F0029BE
:10D16000F8D107490E982301C8500F9B01EB041218
:10D170000025C2E902675360E1E700BF01008000BB
:10D180003002002000500150FDFF7F00505300206E
:10D190007FB500254FF0FF304FF0FF31194C1A4B8F
:10D1A0000226C4F80833C4F84833184BC4F80855AD
:10D1B000C3E902014FF480334FF40012C4F8043382
:10D1C000134B0121C4F804631520C3F880212A46BB
:10D1D000FEF758FE1520FEF725FE01230D4AA36039
:10D1E000236013600C4B0D4A009328460023CDE9C1
:10D1F0000155FFF73BFF3046FFF718F8284604B00B
:10D2000070BD00BF0050015003000F00300200202D
:10D2100000E100E05453002095CF0000FFFF7F00A5
:10D220002DE9F7432E4BD3F8042390070BD5D3F801
:10D23000042142B10022C3F804212A4AD3F8043160
:10D24000136801331360264AD2F80433D90326D574
:10D25000254BD3E8EF1F21F00100C3E8E40F002CB9
:10D26000F7D1CB0702D4D2F84031C3B100251C4C12
:10D27000C4F84051D4F84031FFF7D6FEEFF31182E5
:10D28000202383F31288BFF36F8F184BD3E9026713
:10D29000B042B94106D282F31188BFF36F8F03B059
:10D2A000BDE8F0834FF0FF38D3E900104FF0FF39AD
:10D2B0001D60C3E902894FF48033C4F84833C4F8D1
:10D2C0004051D4F8403182F31188BFF36F8F0029A9
:10D2D000E5D0009032463B4628468847DFE700BF4E
:10D2E00000500150585300205053002030020020BD
:10D2F00030B5431C124C85B005D08442A8BF04460B
:10D30000012CB8BF0124FFF78FFE0E4B0C4DD3E963
:10D310000013401AB0F5000F0FD22218AA4228BFFE
:10D320002A46002052180849CDE90100009143F136
:10D330000003FFF79BFE05B030BD2A46F1E700BFB2
:10D34000FFFF7F004002002095CF000008B5FFF7E7
:10D350006BFE024B1B68C01A08BD00BF40020020D4
:10D36000012310B5074C15206360FEF769FD4FF4EB
:10D370000012054BC4F80833C4F84833034BC3F814
:10D38000802110BD0050015003000F0000E100E0BB
:10D3900040EA0103C3F30E0330B58BB940F2151513
:10D3A000094CC90BC0F3C730994201D1002030BDF0
:10D3B000C218D2B202F5C07244F822500133F3E72A
:10D3C0006FF01500F3E700BF00300050054B1B68FD
:10D3D000DA6AB2F5807F01D8DB6918476FF00D007B
:10D3E000704700BFDC910020014B1B681B6A184787
:10D3F000DC910020014B1B685B6A1847DC91002020
:10D4000010B4034C2468E469A44610BC604700BF14
:10D41000D89100202DE9F043234885B004F02DF980
:10D4200000250446204B214ED3F83880DFF8809049
:10D43000A84503D8002005B0BDE8F083636A96E8EC
:10D4400007001F6801AB83E807000C221946384625
:10D4500003F043F988B987B1636A21691B681A69C7
:10D4600091420AD19A69A169914206D8E169914233
:10D4700003D962695B699A430CD0276A77B10D487A
:10D4800002F0CFFE002383F31188BFF36F8F0423D4
:10D49000184602DFE36801351C44C9E7484602F03C
:10D4A000C0FE636A1F60F5E700840000B029010038
:10D4B0000E380100E537010030B5816885B01039BC
:10D4C00021F00704054602F0F2FF102201466846EB
:10D4D00003F035F910226846064903F025F91023B8
:10D4E0006A462146284602F0AEFF003818BF0120E8
:10D4F00005B030BD7E2E010030B50D46816887B085
:10D50000102302AA1039044602F088FF002802DA2C
:10D51000012007B030BD1022204602A904F0D7F840
:10D5200000283AD110221E4902A803F0D6F800289C
:10D530000CBF012302232B70204604F0B4F8012312
:10D5400001460DF10702204602F068FF0028DFDBEC
:10D550009DF80730204603F00F021B096A702B71FB
:10D5600001220DF1070104F0B2F810B96B78042B19
:10D5700003D901236B7000232B71A2682046183A4F
:10D5800022F00702083AA91C04F0B4F80028BFD121
:10D590002046E91C04F007F9BBE70323CBE700BFF3
:10D5A0007E2E0100F0B5354F85B046000546694630
:10D5B00057F8260004F0FDF8044610B1FF2005B02E
:10D5C000F0BD013657F8260002A904F0F2F8012850
:10D5D00037D12A4649212A4802F012FF294B8DF8FB
:10D5E0000C40029300229DF800609DF80870264CC4
:10D5F0003146207804F05DF850B33946607804F085
:10D6000058F828B3A378042B03D09DF8031099424F
:10D610001ED1E378042B03D09DF80B10994217D14B
:10D620002379042B10D16279022A1DD1174B184897
:10D630002A46492102F0E4FE6079831E022BBED9FE
:10D64000BCE70028CED0B9E79DF802109942EAD095
:10D650000132032A04F10604CAD10E482A464921A0
:10D6600002F0CEFE0120AAE7032A05D00A4B0B499F
:10D67000042A08BF0B46DAE7094BD8E7B02D0100B2
:10D680006438010003010303F93801004638010042
:10D69000AF380100D33801004B3801005D3801007C
:10D6A0004138010013B50C4B0C4603EBC00001A937
:10D6B0000079FDF75FF9014660B9221E18BF01220B
:10D6C000019804F0A3F80446019802F0A6FE204653
:10D6D00002B010BD0124FAE7B02D010008B5EFF348
:10D6E0001083012B0C4A07D1126ABFF34F8F511CD4
:10D6F0004A424A41104608BD04F0C6F800B172B66D
:10D70000126ABFF34F8F531C5A425A4104F0BCF8BF
:10D710000028EFD062B6EDE70080FF0008B5EFF318
:10D720001083012B0B4A06D1D269BFF34F8F02F051
:10D730000102104608BD04F0A7F800B172B6D26924
:10D74000BFF34F8F02F0010204F09EF80028F0D0E2
:10D7500062B6EEE70080FF0010B504F095F830B136
:10D760004FF050230022C3F81421C3F8182104F00D
:10D770009AF828B101225F4BC3F8382AC3F87825FC
:10D780004FF47F02D2F83031D2F83421BFF34F8FFB
:10D79000C3F30B03092B05D1012A1EBF0122554BF0
:10D7A000C3F8782504F07FF818B10E22524BC3F865
:10D7B000E42E04F069F830B100224E4BC3F80C2778
:10D7C0000122C3F810270022D30003F57F03D3F80A
:10D7D0000013BFF34F8F013108D0D3F8001301328B
:10D7E000D3F80433B2F5807F0B60EDD1EFF31084F2
:10D7F000FFF794FF00284DD0BFF34F8F3F4BD3F876
:10D800000024012AFBD1C3F80425D3F80024012AFF
:10D81000FBD1012C03D004F037F800B172B6FFF74A
:10D820007DFF58B1364AD36923F00103D361BFF3BA
:10D830004F8F324AD2F80034012BFBD1FFF74EFF55
:10D8400068B12F4A136A23F0FF0343F020031362E9
:10D85000BFF34F8F294AD2F80034012BFBD1012CA2
:10D8600003D004F011F800B162B60022234BC3F8D4
:10D870000425D3F80024012AFBD1BFF34F8F21499F
:10D88000214BCA6802F4E0621343CB60BFF34F8FB1
:10D8900000BFFDE7FFF722FF0028ADD1194AD2F8FB
:10D8A0008C3043F44063C2F88C304FF47F03D3F8DC
:10D8B0003021D3F83431BFF34F8FC2F30B02092A62
:10D8C00016D1013B022B02D8104AD35C83B10C481D
:10D8D0000F490368094A8B420CBF5A230023C2F840
:10D8E000103EC36A8B420CBF5A230023C2F8003E8D
:10D8F00010BD00BF0040005000A003500090035036
:10D900000080FF0000ED00E00400FA050B39010083
:10D91000FA50FA5030B50468ACB1B4FA84F301227D
:10D92000C3F11F03DBB29A4024EA0202D0E8EF5FA2
:10D93000A54204D1C0E8EC2FBCF1000FF6D1EAD12A
:10D9400002480B7030BD0248FCE700BF0000AD0B81
:10D950000200AD0B10B50368CB40DB0710D40123E8
:10D960008B40026843EA0201D0E8EF4F944204D1B1
:10D97000C0E8EC1FBCF1000FF6D1F2D1014810BD98
:10D980000148FCE70000AD0B0400AD0B014BC3F8F0
:10D9900004057047007001500146014800F0B6B818
:10D9A000E8000020044B1A7922B9012218601A718C
:10D9B00002487047024870475C5300200000AD0BDE
:10D9C0000C00AD0B08B5084B1B6833B10520FEF702
:10D9D0004BFA10B90520FEF725FA4FF0502301222B
:10D9E000C3F8182508BD00BF5C53002010B510B166
:10D9F000012847D010BD4FF05023D3F81814D3F8A6
:10DA00001824C90322D502F00303022B05D0012BF1
:10DA100002D0002003F063FF01234FF050220220C8
:10DA2000C2F8183508224FF48273002103F1502305
:10DA300019601C68012402F150221460164A126811
:10DA400022B34FF05023C3F80403D3E7D3F81424D0
:10DA5000D207E1D5D3F81C2402F00302013A012ACF
:10DA6000D7D80D4A12681AB10222C3F80423C1E7BD
:10DA7000D3F80421002AFBD00022C3F80421D3F8F4
:10DA80000431B7E700224FF48073CEE71A68002A0A
:10DA9000FCD019601B68ADE75C530020F8B54FF06F
:10DAA000502301250026D3F80443174F04B9F8BDCD
:10DAB000B4FA84F0C0F11F00830003F580739BB2B9
:10DAC00003F1502305FA00F21968D2B224EA0204E5
:10DAD0000029EBD01E601B684FF05023022AC3F8C8
